{
  "_format": "hh-sol-artifact-1",
  "contractName": "ERC20TokenCenter",
  "sourceName": "contracts/fractional-art/ERC20TokenCenter.sol",
  "abi": [
    {
      "inputs": [
        {
          "internalType": "string",
          "name": "_name",
          "type": "string"
        },
        {
          "internalType": "string",
          "name": "_symbol",
          "type": "string"
        }
      ],
      "stateMutability": "nonpayable",
      "type": "constructor"
    },
    {
      "anonymous": false,
      "inputs": [
        {
          "indexed": true,
          "internalType": "address",
          "name": "owner",
          "type": "address"
        },
        {
          "indexed": true,
          "internalType": "address",
          "name": "spender",
          "type": "address"
        },
        {
          "indexed": false,
          "internalType": "uint256",
          "name": "lastAmount",
          "type": "uint256"
        },
        {
          "indexed": false,
          "internalType": "uint256",
          "name": "amount",
          "type": "uint256"
        }
      ],
      "name": "AllowanceRecord",
      "type": "event"
    },
    {
      "anonymous": false,
      "inputs": [
        {
          "indexed": true,
          "internalType": "address",
          "name": "owner",
          "type": "address"
        },
        {
          "indexed": true,
          "internalType": "address",
          "name": "spender",
          "type": "address"
        },
        {
          "indexed": false,
          "internalType": "uint256",
          "name": "value",
          "type": "uint256"
        }
      ],
      "name": "Approval",
      "type": "event"
    },
    {
      "anonymous": false,
      "inputs": [
        {
          "indexed": false,
          "internalType": "address",
          "name": "_originalToken",
          "type": "address"
        },
        {
          "indexed": false,
          "internalType": "uint256",
          "name": "_ratio",
          "type": "uint256"
        },
        {
          "indexed": false,
          "internalType": "uint256",
          "name": "_supply",
          "type": "uint256"
        }
      ],
      "name": "ExchangeToken",
      "type": "event"
    },
    {
      "anonymous": false,
      "inputs": [
        {
          "indexed": true,
          "internalType": "address",
          "name": "previousOwner",
          "type": "address"
        },
        {
          "indexed": true,
          "internalType": "address",
          "name": "newOwner",
          "type": "address"
        }
      ],
      "name": "OwnershipTransferred",
      "type": "event"
    },
    {
      "anonymous": false,
      "inputs": [
        {
          "indexed": true,
          "internalType": "address",
          "name": "from",
          "type": "address"
        },
        {
          "indexed": true,
          "internalType": "address",
          "name": "to",
          "type": "address"
        },
        {
          "indexed": false,
          "internalType": "uint256",
          "name": "value",
          "type": "uint256"
        }
      ],
      "name": "Transfer",
      "type": "event"
    },
    {
      "inputs": [
        {
          "internalType": "address",
          "name": "owner",
          "type": "address"
        },
        {
          "internalType": "address",
          "name": "spender",
          "type": "address"
        }
      ],
      "name": "allowance",
      "outputs": [
        {
          "internalType": "uint256",
          "name": "",
          "type": "uint256"
        }
      ],
      "stateMutability": "view",
      "type": "function"
    },
    {
      "inputs": [
        {
          "internalType": "address",
          "name": "spender",
          "type": "address"
        },
        {
          "internalType": "uint256",
          "name": "amount",
          "type": "uint256"
        }
      ],
      "name": "approve",
      "outputs": [
        {
          "internalType": "bool",
          "name": "",
          "type": "bool"
        }
      ],
      "stateMutability": "nonpayable",
      "type": "function"
    },
    {
      "inputs": [
        {
          "internalType": "address",
          "name": "account",
          "type": "address"
        }
      ],
      "name": "balanceOf",
      "outputs": [
        {
          "internalType": "uint256",
          "name": "",
          "type": "uint256"
        }
      ],
      "stateMutability": "view",
      "type": "function"
    },
    {
      "inputs": [
        {
          "internalType": "address",
          "name": "_curator",
          "type": "address"
        },
        {
          "internalType": "uint256",
          "name": "amount",
          "type": "uint256"
        }
      ],
      "name": "burn",
      "outputs": [
        {
          "internalType": "bool",
          "name": "",
          "type": "bool"
        }
      ],
      "stateMutability": "nonpayable",
      "type": "function"
    },
    {
      "inputs": [],
      "name": "decimals",
      "outputs": [
        {
          "internalType": "uint8",
          "name": "",
          "type": "uint8"
        }
      ],
      "stateMutability": "view",
      "type": "function"
    },
    {
      "inputs": [
        {
          "internalType": "address",
          "name": "spender",
          "type": "address"
        },
        {
          "internalType": "uint256",
          "name": "subtractedValue",
          "type": "uint256"
        }
      ],
      "name": "decreaseAllowance",
      "outputs": [
        {
          "internalType": "bool",
          "name": "",
          "type": "bool"
        }
      ],
      "stateMutability": "nonpayable",
      "type": "function"
    },
    {
      "inputs": [
        {
          "internalType": "address",
          "name": "_curator",
          "type": "address"
        },
        {
          "internalType": "address",
          "name": "_originalToken",
          "type": "address"
        },
        {
          "internalType": "uint256",
          "name": "_supply",
          "type": "uint256"
        },
        {
          "internalType": "uint256",
          "name": "_ratio",
          "type": "uint256"
        }
      ],
      "name": "exchangeToken",
      "outputs": [
        {
          "internalType": "bool",
          "name": "",
          "type": "bool"
        }
      ],
      "stateMutability": "nonpayable",
      "type": "function"
    },
    {
      "inputs": [
        {
          "internalType": "address",
          "name": "spender",
          "type": "address"
        },
        {
          "internalType": "uint256",
          "name": "addedValue",
          "type": "uint256"
        }
      ],
      "name": "increaseAllowance",
      "outputs": [
        {
          "internalType": "bool",
          "name": "",
          "type": "bool"
        }
      ],
      "stateMutability": "nonpayable",
      "type": "function"
    },
    {
      "inputs": [
        {
          "internalType": "address",
          "name": "to",
          "type": "address"
        },
        {
          "internalType": "uint256",
          "name": "amount",
          "type": "uint256"
        }
      ],
      "name": "mint",
      "outputs": [
        {
          "internalType": "bool",
          "name": "",
          "type": "bool"
        }
      ],
      "stateMutability": "nonpayable",
      "type": "function"
    },
    {
      "inputs": [],
      "name": "name",
      "outputs": [
        {
          "internalType": "string",
          "name": "",
          "type": "string"
        }
      ],
      "stateMutability": "view",
      "type": "function"
    },
    {
      "inputs": [],
      "name": "owner",
      "outputs": [
        {
          "internalType": "address",
          "name": "",
          "type": "address"
        }
      ],
      "stateMutability": "view",
      "type": "function"
    },
    {
      "inputs": [],
      "name": "renounceOwnership",
      "outputs": [],
      "stateMutability": "nonpayable",
      "type": "function"
    },
    {
      "inputs": [
        {
          "internalType": "address",
          "name": "_tokenFactory",
          "type": "address"
        }
      ],
      "name": "setTokenFactory",
      "outputs": [
        {
          "internalType": "bool",
          "name": "",
          "type": "bool"
        }
      ],
      "stateMutability": "nonpayable",
      "type": "function"
    },
    {
      "inputs": [],
      "name": "symbol",
      "outputs": [
        {
          "internalType": "string",
          "name": "",
          "type": "string"
        }
      ],
      "stateMutability": "view",
      "type": "function"
    },
    {
      "inputs": [],
      "name": "tokenFactory",
      "outputs": [
        {
          "internalType": "address",
          "name": "",
          "type": "address"
        }
      ],
      "stateMutability": "view",
      "type": "function"
    },
    {
      "inputs": [],
      "name": "totalSupply",
      "outputs": [
        {
          "internalType": "uint256",
          "name": "",
          "type": "uint256"
        }
      ],
      "stateMutability": "view",
      "type": "function"
    },
    {
      "inputs": [
        {
          "internalType": "address",
          "name": "to",
          "type": "address"
        },
        {
          "internalType": "uint256",
          "name": "amount",
          "type": "uint256"
        }
      ],
      "name": "transfer",
      "outputs": [
        {
          "internalType": "bool",
          "name": "",
          "type": "bool"
        }
      ],
      "stateMutability": "nonpayable",
      "type": "function"
    },
    {
      "inputs": [
        {
          "internalType": "address",
          "name": "from",
          "type": "address"
        },
        {
          "internalType": "address",
          "name": "to",
          "type": "address"
        },
        {
          "internalType": "uint256",
          "name": "amount",
          "type": "uint256"
        }
      ],
      "name": "transferFrom",
      "outputs": [
        {
          "internalType": "bool",
          "name": "",
          "type": "bool"
        }
      ],
      "stateMutability": "nonpayable",
      "type": "function"
    },
    {
      "inputs": [
        {
          "internalType": "address",
          "name": "newOwner",
          "type": "address"
        }
      ],
      "name": "transferOwnership",
      "outputs": [],
      "stateMutability": "nonpayable",
      "type": "function"
    }
  ],
  "bytecode": "0x60806040523480156200001157600080fd5b50604051620012833803806200128383398101604081905262000034916200017e565b8181620000413362000069565b60046200004f838262000277565b5060056200005e828262000277565b505050505062000343565b600080546001600160a01b038381166001600160a01b0319831681178455604051919092169283917f8be0079c531659141344cd1fd0a4f28419497f9722a3daafe3b4186f6b6457e09190a35050565b634e487b7160e01b600052604160045260246000fd5b600082601f830112620000e157600080fd5b81516001600160401b0380821115620000fe57620000fe620000b9565b604051601f8301601f19908116603f01168101908282118183101715620001295762000129620000b9565b816040528381526020925086838588010111156200014657600080fd5b600091505b838210156200016a57858201830151818301840152908201906200014b565b600093810190920192909252949350505050565b600080604083850312156200019257600080fd5b82516001600160401b0380821115620001aa57600080fd5b620001b886838701620000cf565b93506020850151915080821115620001cf57600080fd5b50620001de85828601620000cf565b9150509250929050565b600181811c90821680620001fd57607f821691505b6020821081036200021e57634e487b7160e01b600052602260045260246000fd5b50919050565b601f8211156200027257600081815260208120601f850160051c810160208610156200024d5750805b601f850160051c820191505b818110156200026e5782815560010162000259565b5050505b505050565b81516001600160401b03811115620002935762000293620000b9565b620002ab81620002a48454620001e8565b8462000224565b602080601f831160018114620002e35760008415620002ca5750858301515b600019600386901b1c1916600185901b1785556200026e565b600085815260208120601f198616915b828110156200031457888601518255948401946001909101908401620002f3565b5085821015620003335787850151600019600388901b60f8161c191681555b5050505050600190811b01905550565b610f3080620003536000396000f3fe608060405234801561001057600080fd5b50600436106101215760003560e01c806370a08231116100ad578063a457c2d711610071578063a457c2d71461025a578063a9059cbb1461026d578063dd62ed3e14610280578063e77772fe14610293578063f2fde38b146102a657600080fd5b806370a08231146101e7578063715018a6146102105780638da5cb5b1461021a57806395d89b411461023f5780639dc29fac1461024757600080fd5b80632f73a9f8116100f45780632f73a9f81461018c578063313ce5671461019f57806333844321146101ae57806339509351146101c157806340c10f19146101d457600080fd5b806306fdde0314610126578063095ea7b31461014457806318160ddd1461016757806323b872dd14610179575b600080fd5b61012e6102b9565b60405161013b9190610d22565b60405180910390f35b610157610152366004610d87565b61034b565b604051901515815260200161013b565b6003545b60405190815260200161013b565b610157610187366004610db1565b610365565b61015761019a366004610ded565b610389565b6040516012815260200161013b565b6101576101bc366004610e0f565b6103b7565b6101576101cf366004610d87565b6104e9565b6101576101e2366004610d87565b61056e565b61016b6101f5366004610ded565b6001600160a01b031660009081526001602052604090205490565b61021861058b565b005b6000546001600160a01b03165b6040516001600160a01b03909116815260200161013b565b61012e61059f565b610157610255366004610d87565b6105ae565b610157610268366004610d87565b6105c2565b61015761027b366004610d87565b61068f565b61016b61028e366004610e51565b61069d565b600754610227906001600160a01b031681565b6102186102b4366004610ded565b6106c8565b6060600480546102c890610e84565b80601f01602080910402602001604051908101604052809291908181526020018280546102f490610e84565b80156103415780601f1061031657610100808354040283529160200191610341565b820191906000526020600020905b81548152906001019060200180831161032457829003601f168201915b5050505050905090565b600033610359818585610741565b60019150505b92915050565b600033610373858285610866565b61037e8585856108e0565b506001949350505050565b6000610393610a8b565b50600780546001600160a01b0319166001600160a01b03831617905560015b919050565b6007546000906001600160a01b031663a7de4153336040516001600160e01b031960e084901b1681526001600160a01b039091166004820152602401600060405180830381600087803b15801561040d57600080fd5b505af192505050801561041e575060015b61046f5760405162461bcd60e51b815260206004820152601a60248201527f4572726f723a20496e76616c696420746f6b656e207661756c7400000000000060448201526064015b60405180910390fd5b6001600160a01b03841660009081526006602052604090208290556104948584610ae5565b604080516001600160a01b0386168152602081018490529081018490527f5db3fa436f82288d021119bf3f05ac295e4f5c8255b75a4085674e831aac41f09060600160405180910390a1506001949350505050565b6000336001600160a01b038416817fbb33c2e8d6646ee230d5501f21dc3a6045906477cfa799e615f90fe50644d1d6610522828861069d565b8661052d868a61069d565b6105379190610ed4565b6040805192835260208301919091520160405180910390a361035981858561055f858961069d565b6105699190610ed4565b610741565b6000610578610a8b565b6105828383610ae5565b50600192915050565b610593610a8b565b61059d6000610ba6565b565b6060600580546102c890610e84565b60006105b8610a8b565b6105828383610bf6565b600033816105d0828661069d565b9050838110156106305760405162461bcd60e51b815260206004820152602560248201527f45524332303a2064656372656173656420616c6c6f77616e63652062656c6f77604482015264207a65726f60d81b6064820152608401610466565b6001600160a01b038086169083167fbb33c2e8d6646ee230d5501f21dc3a6045906477cfa799e615f90fe50644d1d68361066a8882610ee7565b6040805192835260208301919091520160405180910390a361037e8286868403610741565b6000336103598185856108e0565b6001600160a01b03918216600090815260026020908152604080832093909416825291909152205490565b6106d0610a8b565b6001600160a01b0381166107355760405162461bcd60e51b815260206004820152602660248201527f4f776e61626c653a206e6577206f776e657220697320746865207a65726f206160448201526564647265737360d01b6064820152608401610466565b61073e81610ba6565b50565b6001600160a01b0383166107a35760405162461bcd60e51b8152602060048201526024808201527f45524332303a20617070726f76652066726f6d20746865207a65726f206164646044820152637265737360e01b6064820152608401610466565b6001600160a01b0382166108045760405162461bcd60e51b815260206004820152602260248201527f45524332303a20617070726f766520746f20746865207a65726f206164647265604482015261737360f01b6064820152608401610466565b6001600160a01b0383811660008181526002602090815260408083209487168084529482529182902085905590518481527f8c5be1e5ebec7d5bd14f71427d1e84f3dd0314c0f7b2291e5b200ac8c7c3b92591015b60405180910390a3505050565b6000610872848461069d565b905060001981146108da57818110156108cd5760405162461bcd60e51b815260206004820152601d60248201527f45524332303a20696e73756666696369656e7420616c6c6f77616e63650000006044820152606401610466565b6108da8484848403610741565b50505050565b6001600160a01b0383166109445760405162461bcd60e51b815260206004820152602560248201527f45524332303a207472616e736665722066726f6d20746865207a65726f206164604482015264647265737360d81b6064820152608401610466565b6001600160a01b0382166109a65760405162461bcd60e51b815260206004820152602360248201527f45524332303a207472616e7366657220746f20746865207a65726f206164647260448201526265737360e81b6064820152608401610466565b6001600160a01b03831660009081526001602052604090205481811015610a1e5760405162461bcd60e51b815260206004820152602660248201527f45524332303a207472616e7366657220616d6f756e7420657863656564732062604482015265616c616e636560d01b6064820152608401610466565b6001600160a01b0380851660008181526001602052604080822086860390559286168082529083902080548601905591517fddf252ad1be2c89b69c2b068fc378daa952ba7f163c4a11628f55a4df523b3ef90610a7e9086815260200190565b60405180910390a36108da565b6000546001600160a01b0316331461059d5760405162461bcd60e51b815260206004820181905260248201527f4f776e61626c653a2063616c6c6572206973206e6f7420746865206f776e65726044820152606401610466565b6001600160a01b038216610b3b5760405162461bcd60e51b815260206004820152601f60248201527f45524332303a206d696e7420746f20746865207a65726f2061646472657373006044820152606401610466565b8060036000828254610b4d9190610ed4565b90915550506001600160a01b0382166000818152600160209081526040808320805486019055518481527fddf252ad1be2c89b69c2b068fc378daa952ba7f163c4a11628f55a4df523b3ef910160405180910390a35050565b600080546001600160a01b038381166001600160a01b0319831681178455604051919092169283917f8be0079c531659141344cd1fd0a4f28419497f9722a3daafe3b4186f6b6457e09190a35050565b6001600160a01b038216610c565760405162461bcd60e51b815260206004820152602160248201527f45524332303a206275726e2066726f6d20746865207a65726f206164647265736044820152607360f81b6064820152608401610466565b6001600160a01b03821660009081526001602052604090205481811015610cca5760405162461bcd60e51b815260206004820152602260248201527f45524332303a206275726e20616d6f756e7420657863656564732062616c616e604482015261636560f01b6064820152608401610466565b6001600160a01b03831660008181526001602090815260408083208686039055600380548790039055518581529192917fddf252ad1be2c89b69c2b068fc378daa952ba7f163c4a11628f55a4df523b3ef9101610859565b600060208083528351808285015260005b81811015610d4f57858101830151858201604001528201610d33565b506000604082860101526040601f19601f8301168501019250505092915050565b80356001600160a01b03811681146103b257600080fd5b60008060408385031215610d9a57600080fd5b610da383610d70565b946020939093013593505050565b600080600060608486031215610dc657600080fd5b610dcf84610d70565b9250610ddd60208501610d70565b9150604084013590509250925092565b600060208284031215610dff57600080fd5b610e0882610d70565b9392505050565b60008060008060808587031215610e2557600080fd5b610e2e85610d70565b9350610e3c60208601610d70565b93969395505050506040820135916060013590565b60008060408385031215610e6457600080fd5b610e6d83610d70565b9150610e7b60208401610d70565b90509250929050565b600181811c90821680610e9857607f821691505b602082108103610eb857634e487b7160e01b600052602260045260246000fd5b50919050565b634e487b7160e01b600052601160045260246000fd5b8082018082111561035f5761035f610ebe565b8181038181111561035f5761035f610ebe56fea2646970667358221220433651ddb0705021c3694a56e2c168d34a97901221f73cbd4e2a01f173a9414364736f6c63430008110033",
  "linkReferences": {},
  "deployedLinkReferences": {}
}