{
  "_format": "hh-sol-artifact-1",
  "contractName": "ERC20TokenCenter",
  "sourceName": "contracts/fractional-art/ERC20TokenCenter.sol",
  "abi": [
    {
      "inputs": [
        {
          "internalType": "string",
          "name": "_name",
          "type": "string"
        },
        {
          "internalType": "string",
          "name": "_symbol",
          "type": "string"
        }
      ],
      "stateMutability": "nonpayable",
      "type": "constructor"
    },
    {
      "inputs": [],
      "name": "InvalidShortString",
      "type": "error"
    },
    {
      "inputs": [
        {
          "internalType": "string",
          "name": "str",
          "type": "string"
        }
      ],
      "name": "StringTooLong",
      "type": "error"
    },
    {
      "anonymous": false,
      "inputs": [
        {
          "indexed": true,
          "internalType": "address",
          "name": "owner",
          "type": "address"
        },
        {
          "indexed": true,
          "internalType": "address",
          "name": "spender",
          "type": "address"
        },
        {
          "indexed": false,
          "internalType": "uint256",
          "name": "lastAmount",
          "type": "uint256"
        },
        {
          "indexed": false,
          "internalType": "uint256",
          "name": "amount",
          "type": "uint256"
        }
      ],
      "name": "AllowanceRecord",
      "type": "event"
    },
    {
      "anonymous": false,
      "inputs": [
        {
          "indexed": true,
          "internalType": "address",
          "name": "owner",
          "type": "address"
        },
        {
          "indexed": true,
          "internalType": "address",
          "name": "spender",
          "type": "address"
        },
        {
          "indexed": false,
          "internalType": "uint256",
          "name": "value",
          "type": "uint256"
        }
      ],
      "name": "Approval",
      "type": "event"
    },
    {
      "anonymous": false,
      "inputs": [],
      "name": "EIP712DomainChanged",
      "type": "event"
    },
    {
      "anonymous": false,
      "inputs": [
        {
          "indexed": false,
          "internalType": "address",
          "name": "_originalToken",
          "type": "address"
        },
        {
          "indexed": false,
          "internalType": "uint256",
          "name": "_ratio",
          "type": "uint256"
        },
        {
          "indexed": false,
          "internalType": "uint256",
          "name": "_supply",
          "type": "uint256"
        }
      ],
      "name": "ExchangeToken",
      "type": "event"
    },
    {
      "anonymous": false,
      "inputs": [
        {
          "indexed": true,
          "internalType": "address",
          "name": "previousOwner",
          "type": "address"
        },
        {
          "indexed": true,
          "internalType": "address",
          "name": "newOwner",
          "type": "address"
        }
      ],
      "name": "OwnershipTransferred",
      "type": "event"
    },
    {
      "anonymous": false,
      "inputs": [
        {
          "indexed": true,
          "internalType": "address",
          "name": "from",
          "type": "address"
        },
        {
          "indexed": true,
          "internalType": "address",
          "name": "to",
          "type": "address"
        },
        {
          "indexed": false,
          "internalType": "uint256",
          "name": "value",
          "type": "uint256"
        }
      ],
      "name": "Transfer",
      "type": "event"
    },
    {
      "anonymous": false,
      "inputs": [
        {
          "indexed": true,
          "internalType": "address",
          "name": "from",
          "type": "address"
        },
        {
          "indexed": true,
          "internalType": "address",
          "name": "spender",
          "type": "address"
        },
        {
          "indexed": false,
          "internalType": "address",
          "name": "to",
          "type": "address"
        },
        {
          "indexed": false,
          "internalType": "uint256",
          "name": "amount",
          "type": "uint256"
        }
      ],
      "name": "TransferByPlatform",
      "type": "event"
    },
    {
      "inputs": [],
      "name": "DOMAIN_SEPARATOR",
      "outputs": [
        {
          "internalType": "bytes32",
          "name": "",
          "type": "bytes32"
        }
      ],
      "stateMutability": "view",
      "type": "function"
    },
    {
      "inputs": [
        {
          "internalType": "address",
          "name": "owner",
          "type": "address"
        },
        {
          "internalType": "address",
          "name": "spender",
          "type": "address"
        }
      ],
      "name": "allowance",
      "outputs": [
        {
          "internalType": "uint256",
          "name": "",
          "type": "uint256"
        }
      ],
      "stateMutability": "view",
      "type": "function"
    },
    {
      "inputs": [
        {
          "internalType": "address",
          "name": "spender",
          "type": "address"
        },
        {
          "internalType": "uint256",
          "name": "amount",
          "type": "uint256"
        }
      ],
      "name": "approve",
      "outputs": [
        {
          "internalType": "bool",
          "name": "",
          "type": "bool"
        }
      ],
      "stateMutability": "nonpayable",
      "type": "function"
    },
    {
      "inputs": [
        {
          "internalType": "address",
          "name": "account",
          "type": "address"
        }
      ],
      "name": "balanceOf",
      "outputs": [
        {
          "internalType": "uint256",
          "name": "",
          "type": "uint256"
        }
      ],
      "stateMutability": "view",
      "type": "function"
    },
    {
      "inputs": [
        {
          "internalType": "address",
          "name": "_curator",
          "type": "address"
        },
        {
          "internalType": "uint256",
          "name": "amount",
          "type": "uint256"
        }
      ],
      "name": "burn",
      "outputs": [
        {
          "internalType": "bool",
          "name": "",
          "type": "bool"
        }
      ],
      "stateMutability": "nonpayable",
      "type": "function"
    },
    {
      "inputs": [],
      "name": "decimals",
      "outputs": [
        {
          "internalType": "uint8",
          "name": "",
          "type": "uint8"
        }
      ],
      "stateMutability": "view",
      "type": "function"
    },
    {
      "inputs": [
        {
          "internalType": "address",
          "name": "spender",
          "type": "address"
        },
        {
          "internalType": "uint256",
          "name": "subtractedValue",
          "type": "uint256"
        }
      ],
      "name": "decreaseAllowance",
      "outputs": [
        {
          "internalType": "bool",
          "name": "",
          "type": "bool"
        }
      ],
      "stateMutability": "nonpayable",
      "type": "function"
    },
    {
      "inputs": [],
      "name": "eip712Domain",
      "outputs": [
        {
          "internalType": "bytes1",
          "name": "fields",
          "type": "bytes1"
        },
        {
          "internalType": "string",
          "name": "name",
          "type": "string"
        },
        {
          "internalType": "string",
          "name": "version",
          "type": "string"
        },
        {
          "internalType": "uint256",
          "name": "chainId",
          "type": "uint256"
        },
        {
          "internalType": "address",
          "name": "verifyingContract",
          "type": "address"
        },
        {
          "internalType": "bytes32",
          "name": "salt",
          "type": "bytes32"
        },
        {
          "internalType": "uint256[]",
          "name": "extensions",
          "type": "uint256[]"
        }
      ],
      "stateMutability": "view",
      "type": "function"
    },
    {
      "inputs": [
        {
          "internalType": "address",
          "name": "_curator",
          "type": "address"
        },
        {
          "internalType": "address",
          "name": "_originalToken",
          "type": "address"
        },
        {
          "internalType": "uint256",
          "name": "_supply",
          "type": "uint256"
        },
        {
          "internalType": "uint256",
          "name": "_ratio",
          "type": "uint256"
        }
      ],
      "name": "exchangeToken",
      "outputs": [
        {
          "internalType": "bool",
          "name": "",
          "type": "bool"
        }
      ],
      "stateMutability": "nonpayable",
      "type": "function"
    },
    {
      "inputs": [
        {
          "internalType": "address",
          "name": "spender",
          "type": "address"
        },
        {
          "internalType": "uint256",
          "name": "addedValue",
          "type": "uint256"
        }
      ],
      "name": "increaseAllowance",
      "outputs": [
        {
          "internalType": "bool",
          "name": "",
          "type": "bool"
        }
      ],
      "stateMutability": "nonpayable",
      "type": "function"
    },
    {
      "inputs": [
        {
          "internalType": "address",
          "name": "to",
          "type": "address"
        },
        {
          "internalType": "uint256",
          "name": "amount",
          "type": "uint256"
        }
      ],
      "name": "mint",
      "outputs": [
        {
          "internalType": "bool",
          "name": "",
          "type": "bool"
        }
      ],
      "stateMutability": "nonpayable",
      "type": "function"
    },
    {
      "inputs": [],
      "name": "name",
      "outputs": [
        {
          "internalType": "string",
          "name": "",
          "type": "string"
        }
      ],
      "stateMutability": "view",
      "type": "function"
    },
    {
      "inputs": [
        {
          "internalType": "address",
          "name": "owner",
          "type": "address"
        }
      ],
      "name": "nonces",
      "outputs": [
        {
          "internalType": "uint256",
          "name": "",
          "type": "uint256"
        }
      ],
      "stateMutability": "view",
      "type": "function"
    },
    {
      "inputs": [],
      "name": "owner",
      "outputs": [
        {
          "internalType": "address",
          "name": "",
          "type": "address"
        }
      ],
      "stateMutability": "view",
      "type": "function"
    },
    {
      "inputs": [
        {
          "internalType": "address",
          "name": "owner",
          "type": "address"
        },
        {
          "internalType": "address",
          "name": "spender",
          "type": "address"
        },
        {
          "internalType": "uint256",
          "name": "value",
          "type": "uint256"
        },
        {
          "internalType": "uint256",
          "name": "deadline",
          "type": "uint256"
        },
        {
          "internalType": "uint8",
          "name": "v",
          "type": "uint8"
        },
        {
          "internalType": "bytes32",
          "name": "r",
          "type": "bytes32"
        },
        {
          "internalType": "bytes32",
          "name": "s",
          "type": "bytes32"
        }
      ],
      "name": "permit",
      "outputs": [],
      "stateMutability": "nonpayable",
      "type": "function"
    },
    {
      "inputs": [],
      "name": "renounceOwnership",
      "outputs": [],
      "stateMutability": "nonpayable",
      "type": "function"
    },
    {
      "inputs": [
        {
          "internalType": "address",
          "name": "_tokenFactory",
          "type": "address"
        }
      ],
      "name": "setTokenFactory",
      "outputs": [
        {
          "internalType": "bool",
          "name": "",
          "type": "bool"
        }
      ],
      "stateMutability": "nonpayable",
      "type": "function"
    },
    {
      "inputs": [],
      "name": "symbol",
      "outputs": [
        {
          "internalType": "string",
          "name": "",
          "type": "string"
        }
      ],
      "stateMutability": "view",
      "type": "function"
    },
    {
      "inputs": [],
      "name": "tokenFactory",
      "outputs": [
        {
          "internalType": "address",
          "name": "",
          "type": "address"
        }
      ],
      "stateMutability": "view",
      "type": "function"
    },
    {
      "inputs": [],
      "name": "totalSupply",
      "outputs": [
        {
          "internalType": "uint256",
          "name": "",
          "type": "uint256"
        }
      ],
      "stateMutability": "view",
      "type": "function"
    },
    {
      "inputs": [
        {
          "internalType": "address",
          "name": "to",
          "type": "address"
        },
        {
          "internalType": "uint256",
          "name": "amount",
          "type": "uint256"
        }
      ],
      "name": "transfer",
      "outputs": [
        {
          "internalType": "bool",
          "name": "",
          "type": "bool"
        }
      ],
      "stateMutability": "nonpayable",
      "type": "function"
    },
    {
      "inputs": [
        {
          "internalType": "address",
          "name": "from",
          "type": "address"
        },
        {
          "internalType": "address",
          "name": "to",
          "type": "address"
        },
        {
          "internalType": "uint256",
          "name": "amount",
          "type": "uint256"
        }
      ],
      "name": "transferFrom",
      "outputs": [
        {
          "internalType": "bool",
          "name": "",
          "type": "bool"
        }
      ],
      "stateMutability": "nonpayable",
      "type": "function"
    },
    {
      "inputs": [
        {
          "internalType": "address",
          "name": "newOwner",
          "type": "address"
        }
      ],
      "name": "transferOwnership",
      "outputs": [],
      "stateMutability": "nonpayable",
      "type": "function"
    }
  ],
  "bytecode": "0x6101606040523480156200001257600080fd5b5060405162001f5938038062001f59833981016040819052620000359162000326565b8180604051806040016040528060018152602001603160f81b81525084846200006d620000676200016660201b60201c565b6200016a565b60046200007b83826200041f565b5060056200008a82826200041f565b505050620000a8600683620001ba60201b62000a261790919060201c565b61012052620000c5816007620001ba602090811b62000a2617901c565b61014052815160208084019190912060e052815190820120610100524660a0526200015360e05161010051604080517f8b73c3c69bb8fe3d512ecc4cf759cc79239f7b179b0ffacaa9a75d522b39400f60208201529081019290925260608201524660808201523060a082015260009060c00160405160208183030381529060405280519060200120905090565b60805250503060c0525062000545915050565b3390565b600080546001600160a01b038381166001600160a01b0319831681178455604051919092169283917f8be0079c531659141344cd1fd0a4f28419497f9722a3daafe3b4186f6b6457e09190a35050565b6000602083511015620001da57620001d2836200020a565b905062000204565b82620001f1836200025660201b62000a571760201c565b90620001fe90826200041f565b5060ff90505b92915050565b600080829050601f8151111562000241578260405163305a27a960e01b8152600401620002389190620004eb565b60405180910390fd5b80516200024e8262000520565b179392505050565b90565b634e487b7160e01b600052604160045260246000fd5b60005b838110156200028c57818101518382015260200162000272565b50506000910152565b600082601f830112620002a757600080fd5b81516001600160401b0380821115620002c457620002c462000259565b604051601f8301601f19908116603f01168101908282118183101715620002ef57620002ef62000259565b816040528381528660208588010111156200030957600080fd5b6200031c8460208301602089016200026f565b9695505050505050565b600080604083850312156200033a57600080fd5b82516001600160401b03808211156200035257600080fd5b620003608683870162000295565b935060208501519150808211156200037757600080fd5b50620003868582860162000295565b9150509250929050565b600181811c90821680620003a557607f821691505b602082108103620003c657634e487b7160e01b600052602260045260246000fd5b50919050565b601f8211156200041a57600081815260208120601f850160051c81016020861015620003f55750805b601f850160051c820191505b81811015620004165782815560010162000401565b5050505b505050565b81516001600160401b038111156200043b576200043b62000259565b62000453816200044c845462000390565b84620003cc565b602080601f8311600181146200048b5760008415620004725750858301515b600019600386901b1c1916600185901b17855562000416565b600085815260208120601f198616915b82811015620004bc578886015182559484019460019091019084016200049b565b5085821015620004db5787850151600019600388901b60f8161c191681555b5050505050600190811b01905550565b60208152600082518060208401526200050c8160408501602087016200026f565b601f01601f19169190910160400192915050565b80516020808301519190811015620003c65760001960209190910360031b1b16919050565b60805160a05160c05160e0516101005161012051610140516119b9620005a060003960006106c50152600061069a01526000610f9901526000610f7101526000610ecc01526000610ef601526000610f2001526119b96000f3fe608060405234801561001057600080fd5b506004361061014d5760003560e01c8063715018a6116100c3578063a457c2d71161007c578063a457c2d7146102bc578063a9059cbb146102cf578063d505accf146102e2578063dd62ed3e146102f5578063e77772fe14610308578063f2fde38b1461031b57600080fd5b8063715018a6146102445780637ecebe001461024e57806384b0196e146102615780638da5cb5b1461027c57806395d89b41146102a15780639dc29fac146102a957600080fd5b8063313ce56711610115578063313ce567146101cb57806333844321146101da5780633644e515146101ed57806339509351146101f557806340c10f191461020857806370a082311461021b57600080fd5b806306fdde0314610152578063095ea7b31461017057806318160ddd1461019357806323b872dd146101a55780632f73a9f8146101b8575b600080fd5b61015a61032e565b6040516101679190611585565b60405180910390f35b61018361017e3660046115b6565b6103c0565b6040519015158152602001610167565b6003545b604051908152602001610167565b6101836101b33660046115e0565b6103da565b6101836101c636600461161c565b610449565b60405160128152602001610167565b6101836101e8366004611637565b610477565b6101976105a9565b6101836102033660046115b6565b6105b8565b6101836102163660046115b6565b61063d565b61019761022936600461161c565b6001600160a01b031660009081526001602052604090205490565b61024c61065a565b005b61019761025c36600461161c565b61066e565b61026961068c565b6040516101679796959493929190611679565b6000546001600160a01b03165b6040516001600160a01b039091168152602001610167565b61015a610715565b6101836102b73660046115b6565b610724565b6101836102ca3660046115b6565b610738565b6101836102dd3660046115b6565b610810565b61024c6102f036600461170f565b61081e565b610197610303366004611782565b610982565b600b54610289906001600160a01b031681565b61024c61032936600461161c565b6109ad565b60606004805461033d906117b5565b80601f0160208091040260200160405190810160405280929190818152602001828054610369906117b5565b80156103b65780601f1061038b576101008083540402835291602001916103b6565b820191906000526020600020905b81548152906001019060200180831161039957829003601f168201915b5050505050905090565b6000336103ce818585610a5a565b60019150505b92915050565b6000336103e8858285610b7f565b6103f3858585610bf9565b604080516001600160a01b0386811682526020820186905280841692908816917f78938870b87caabcb61158279f645a22b7cdccd94455ad4e50a2e016066205c9910160405180910390a3506001949350505050565b6000610453610da4565b50600b80546001600160a01b0319166001600160a01b03831617905560015b919050565b600b546000906001600160a01b031663a7de4153336040516001600160e01b031960e084901b1681526001600160a01b039091166004820152602401600060405180830381600087803b1580156104cd57600080fd5b505af19250505080156104de575060015b61052f5760405162461bcd60e51b815260206004820152601a60248201527f4572726f723a20496e76616c696420746f6b656e207661756c7400000000000060448201526064015b60405180910390fd5b6001600160a01b0384166000908152600a602052604090208290556105548584610dfe565b604080516001600160a01b0386168152602081018490529081018490527f5db3fa436f82288d021119bf3f05ac295e4f5c8255b75a4085674e831aac41f09060600160405180910390a1506001949350505050565b60006105b3610ebf565b905090565b6000336001600160a01b038416817fbb33c2e8d6646ee230d5501f21dc3a6045906477cfa799e615f90fe50644d1d66105f18288610982565b866105fc868a610982565b61060691906117ff565b6040805192835260208301919091520160405180910390a36103ce81858561062e8589610982565b61063891906117ff565b610a5a565b6000610647610da4565b6106518383610dfe565b50600192915050565b610662610da4565b61066c6000610fea565b565b6001600160a01b0381166000908152600860205260408120546103d4565b6000606080828080836106c07f0000000000000000000000000000000000000000000000000000000000000000600661103a565b6106eb7f0000000000000000000000000000000000000000000000000000000000000000600761103a565b60408051600080825260208201909252600f60f81b9b939a50919850469750309650945092509050565b60606005805461033d906117b5565b600061072e610da4565b61065183836110de565b600033816107468286610982565b9050838110156107a65760405162461bcd60e51b815260206004820152602560248201527f45524332303a2064656372656173656420616c6c6f77616e63652062656c6f77604482015264207a65726f60d81b6064820152608401610526565b6001600160a01b038086169083167fbb33c2e8d6646ee230d5501f21dc3a6045906477cfa799e615f90fe50644d1d6836107e08882611828565b6040805192835260208301919091520160405180910390a36108058286868403610a5a565b506001949350505050565b6000336103ce818585610bf9565b8342111561086e5760405162461bcd60e51b815260206004820152601d60248201527f45524332305065726d69743a206578706972656420646561646c696e650000006044820152606401610526565b60007f6e71edae12b1b97f4d1f60370fef10105fa2faae0126114a169c64845d6126c988888861089d8c61120f565b6040805160208101969096526001600160a01b0394851690860152929091166060840152608083015260a082015260c0810186905260e00160405160208183030381529060405280519060200120905060006108f882611237565b9050600061090882878787611264565b9050896001600160a01b0316816001600160a01b03161461096b5760405162461bcd60e51b815260206004820152601e60248201527f45524332305065726d69743a20696e76616c6964207369676e617475726500006044820152606401610526565b6109768a8a8a610a5a565b50505050505050505050565b6001600160a01b03918216600090815260026020908152604080832093909416825291909152205490565b6109b5610da4565b6001600160a01b038116610a1a5760405162461bcd60e51b815260206004820152602660248201527f4f776e61626c653a206e6577206f776e657220697320746865207a65726f206160448201526564647265737360d01b6064820152608401610526565b610a2381610fea565b50565b6000602083511015610a4257610a3b8361128c565b90506103d4565b81610a4d8482611889565b5060ff90506103d4565b90565b6001600160a01b038316610abc5760405162461bcd60e51b8152602060048201526024808201527f45524332303a20617070726f76652066726f6d20746865207a65726f206164646044820152637265737360e01b6064820152608401610526565b6001600160a01b038216610b1d5760405162461bcd60e51b815260206004820152602260248201527f45524332303a20617070726f766520746f20746865207a65726f206164647265604482015261737360f01b6064820152608401610526565b6001600160a01b0383811660008181526002602090815260408083209487168084529482529182902085905590518481527f8c5be1e5ebec7d5bd14f71427d1e84f3dd0314c0f7b2291e5b200ac8c7c3b92591015b60405180910390a3505050565b6000610b8b8484610982565b90506000198114610bf35781811015610be65760405162461bcd60e51b815260206004820152601d60248201527f45524332303a20696e73756666696369656e7420616c6c6f77616e63650000006044820152606401610526565b610bf38484848403610a5a565b50505050565b6001600160a01b038316610c5d5760405162461bcd60e51b815260206004820152602560248201527f45524332303a207472616e736665722066726f6d20746865207a65726f206164604482015264647265737360d81b6064820152608401610526565b6001600160a01b038216610cbf5760405162461bcd60e51b815260206004820152602360248201527f45524332303a207472616e7366657220746f20746865207a65726f206164647260448201526265737360e81b6064820152608401610526565b6001600160a01b03831660009081526001602052604090205481811015610d375760405162461bcd60e51b815260206004820152602660248201527f45524332303a207472616e7366657220616d6f756e7420657863656564732062604482015265616c616e636560d01b6064820152608401610526565b6001600160a01b0380851660008181526001602052604080822086860390559286168082529083902080548601905591517fddf252ad1be2c89b69c2b068fc378daa952ba7f163c4a11628f55a4df523b3ef90610d979086815260200190565b60405180910390a3610bf3565b6000546001600160a01b0316331461066c5760405162461bcd60e51b815260206004820181905260248201527f4f776e61626c653a2063616c6c6572206973206e6f7420746865206f776e65726044820152606401610526565b6001600160a01b038216610e545760405162461bcd60e51b815260206004820152601f60248201527f45524332303a206d696e7420746f20746865207a65726f2061646472657373006044820152606401610526565b8060036000828254610e6691906117ff565b90915550506001600160a01b0382166000818152600160209081526040808320805486019055518481527fddf252ad1be2c89b69c2b068fc378daa952ba7f163c4a11628f55a4df523b3ef910160405180910390a35050565b6000306001600160a01b037f000000000000000000000000000000000000000000000000000000000000000016148015610f1857507f000000000000000000000000000000000000000000000000000000000000000046145b15610f4257507f000000000000000000000000000000000000000000000000000000000000000090565b6105b3604080517f8b73c3c69bb8fe3d512ecc4cf759cc79239f7b179b0ffacaa9a75d522b39400f60208201527f0000000000000000000000000000000000000000000000000000000000000000918101919091527f000000000000000000000000000000000000000000000000000000000000000060608201524660808201523060a082015260009060c00160405160208183030381529060405280519060200120905090565b600080546001600160a01b038381166001600160a01b0319831681178455604051919092169283917f8be0079c531659141344cd1fd0a4f28419497f9722a3daafe3b4186f6b6457e09190a35050565b606060ff831461104d57610a3b836112ca565b818054611059906117b5565b80601f0160208091040260200160405190810160405280929190818152602001828054611085906117b5565b80156110d25780601f106110a7576101008083540402835291602001916110d2565b820191906000526020600020905b8154815290600101906020018083116110b557829003601f168201915b505050505090506103d4565b6001600160a01b03821661113e5760405162461bcd60e51b815260206004820152602160248201527f45524332303a206275726e2066726f6d20746865207a65726f206164647265736044820152607360f81b6064820152608401610526565b6001600160a01b038216600090815260016020526040902054818110156111b25760405162461bcd60e51b815260206004820152602260248201527f45524332303a206275726e20616d6f756e7420657863656564732062616c616e604482015261636560f01b6064820152608401610526565b6001600160a01b03831660008181526001602090815260408083208686039055600380548790039055518581529192917fddf252ad1be2c89b69c2b068fc378daa952ba7f163c4a11628f55a4df523b3ef9101610b72565b505050565b6001600160a01b03811660009081526008602052604090208054600181018255905b50919050565b60006103d4611244610ebf565b8360405161190160f01b8152600281019290925260228201526042902090565b600080600061127587878787611309565b91509150611282816113cd565b5095945050505050565b600080829050601f815111156112b7578260405163305a27a960e01b81526004016105269190611585565b80516112c282611949565b179392505050565b606060006112d783611517565b604080516020808252818301909252919250600091906020820181803683375050509182525060208101929092525090565b6000807f7fffffffffffffffffffffffffffffff5d576e7357a4501ddfe92f46681b20a083111561134057506000905060036113c4565b6040805160008082526020820180845289905260ff881692820192909252606081018690526080810185905260019060a0016020604051602081039080840390855afa158015611394573d6000803e3d6000fd5b5050604051601f1901519150506001600160a01b0381166113bd576000600192509250506113c4565b9150600090505b94509492505050565b60008160048111156113e1576113e161196d565b036113e95750565b60018160048111156113fd576113fd61196d565b0361144a5760405162461bcd60e51b815260206004820152601860248201527f45434453413a20696e76616c6964207369676e617475726500000000000000006044820152606401610526565b600281600481111561145e5761145e61196d565b036114ab5760405162461bcd60e51b815260206004820152601f60248201527f45434453413a20696e76616c6964207369676e6174757265206c656e677468006044820152606401610526565b60038160048111156114bf576114bf61196d565b03610a235760405162461bcd60e51b815260206004820152602260248201527f45434453413a20696e76616c6964207369676e6174757265202773272076616c604482015261756560f01b6064820152608401610526565b600060ff8216601f8111156103d457604051632cd44ac360e21b815260040160405180910390fd5b6000815180845260005b8181101561156557602081850181015186830182015201611549565b506000602082860101526020601f19601f83011685010191505092915050565b602081526000611598602083018461153f565b9392505050565b80356001600160a01b038116811461047257600080fd5b600080604083850312156115c957600080fd5b6115d28361159f565b946020939093013593505050565b6000806000606084860312156115f557600080fd5b6115fe8461159f565b925061160c6020850161159f565b9150604084013590509250925092565b60006020828403121561162e57600080fd5b6115988261159f565b6000806000806080858703121561164d57600080fd5b6116568561159f565b93506116646020860161159f565b93969395505050506040820135916060013590565b60ff60f81b881681526000602060e08184015261169960e084018a61153f565b83810360408501526116ab818a61153f565b606085018990526001600160a01b038816608086015260a0850187905284810360c0860152855180825283870192509083019060005b818110156116fd578351835292840192918401916001016116e1565b50909c9b505050505050505050505050565b600080600080600080600060e0888a03121561172a57600080fd5b6117338861159f565b96506117416020890161159f565b95506040880135945060608801359350608088013560ff8116811461176557600080fd5b9699959850939692959460a0840135945060c09093013592915050565b6000806040838503121561179557600080fd5b61179e8361159f565b91506117ac6020840161159f565b90509250929050565b600181811c908216806117c957607f821691505b60208210810361123157634e487b7160e01b600052602260045260246000fd5b634e487b7160e01b600052601160045260246000fd5b808201808211156103d4576103d46117e9565b634e487b7160e01b600052604160045260246000fd5b818103818111156103d4576103d46117e9565b601f82111561120a57600081815260208120601f850160051c810160208610156118625750805b601f850160051c820191505b818110156118815782815560010161186e565b505050505050565b815167ffffffffffffffff8111156118a3576118a3611812565b6118b7816118b184546117b5565b8461183b565b602080601f8311600181146118ec57600084156118d45750858301515b600019600386901b1c1916600185901b178555611881565b600085815260208120601f198616915b8281101561191b578886015182559484019460019091019084016118fc565b50858210156119395787850151600019600388901b60f8161c191681555b5050505050600190811b01905550565b805160208083015191908110156112315760001960209190910360031b1b16919050565b634e487b7160e01b600052602160045260246000fdfea264697066735822122005674fd757a83565b608e1de47e5929dbe7b52e04893f7c5a4ac7bee43a012e064736f6c63430008110033",
  "linkReferences": {},
  "deployedLinkReferences": {}
}