{
  "_format": "hh-sol-artifact-1",
  "contractName": "UUIDGenerator",
  "sourceName": "contracts/nft/UUIDGenerator.sol",
  "abi": [
    {
      "inputs": [],
      "name": "generateUUID4",
      "outputs": [
        {
          "internalType": "string",
          "name": "",
          "type": "string"
        }
      ],
      "stateMutability": "nonpayable",
      "type": "function"
    },
    {
      "inputs": [
        {
          "internalType": "bytes16",
          "name": "",
          "type": "bytes16"
        }
      ],
      "name": "usedUUIDs",
      "outputs": [
        {
          "internalType": "bool",
          "name": "",
          "type": "bool"
        }
      ],
      "stateMutability": "view",
      "type": "function"
    }
  ],
  "bytecode": "0x608060405234801561001057600080fd5b50610680806100206000396000f3fe608060405234801561001057600080fd5b50600436106100365760003560e01c806315a323f21461003b578063fe6fd27214610073575b600080fd5b61005e6100493660046104a3565b60006020819052908152604090205460ff1681565b60405190151581526020015b60405180910390f35b61007b610088565b60405161006a91906104f8565b60606000805b60038110156100cc5761009f61016d565b6001600160801b0319811660009081526020819052604090205490925060ff16156100cc5760010161008e565b600381036101395760405162461bcd60e51b815260206004820152603060248201527f4661696c656420746f2067656e657261746520226e6f6e2d726570656174696e60448201526f672220555549443420666f72206e6f7760801b606482015260840160405180910390fd5b6001600160801b031982166000908152602081905260409020805460ff1916600117905561016682610292565b9250505090565b600044608081901b9060b081901b6001600160b01b031981169160c01b6001600160c01b03191690600160fe1b6001600160f81b031990911610806101bf5750604f60f81b6001600160f81b03198316115b15610211576101d3601060f884901c61052b565b6101de906040610571565b79ff000000000000000000ffffffffffffffffffffffffffffffff199390931660c884901b60ff60c81b16179260f81b91505b600160ff1b6001600160f81b03198216108061023a575060bf60f81b6001600160f81b03198216115b1561028a5761024e604060f883901c61052b565b610259906080610571565b77ff00000000000000ffffffffffffffffffffffffffffffff199390931660b884901b60ff60b81b16179260f81b90505b509092915050565b606080806102a560e085901c60046103be565b905081816040516020016102ba92919061058a565b60408051601f1981840301815291905291506102df61ffff60d086901c1660026103be565b905081816040516020016102f492919061058a565b60408051601f19818403018152919052915061031961ffff60c086901c1660026103be565b9050818160405160200161032e92919061058a565b60408051601f19818403018152919052915061035361ffff60b086901c1660026103be565b9050818160405160200161036892919061058a565b60408051601f19818403018152919052915061039165ffffffffffff608086901c1660066103be565b905081816040516020016103a69291906105c5565b60408051601f19818403018152919052949350505050565b606060006103cd8360026105f4565b67ffffffffffffffff8111156103e5576103e561060b565b6040519080825280601f01601f19166020018201604052801561040f576020820181803683370190505b509050600060016104218560026105f4565b61042b9190610621565b90505b6f181899199a1a9b1b9c1cb0b131b232b360811b85600f166010811061045657610456610634565b1a60f81b82828151811061046c5761046c610634565b60200101906001600160f81b031916908160001a90535060049490941c938015610499576000190161042e565b5090505b92915050565b6000602082840312156104b557600080fd5b81356001600160801b0319811681146104cd57600080fd5b9392505050565b60005b838110156104ef5781810151838201526020016104d7565b50506000910152565b60208152600082518060208401526105178160408501602087016104d4565b601f01601f19169190910160400192915050565b600060ff83168061054c57634e487b7160e01b600052601260045260246000fd5b8060ff84160691505092915050565b634e487b7160e01b600052601160045260246000fd5b60ff818116838216019081111561049d5761049d61055b565b6000835161059c8184602088016104d4565b8351908301906105b08183602088016104d4565b602d60f81b9101908152600101949350505050565b600083516105d78184602088016104d4565b8351908301906105eb8183602088016104d4565b01949350505050565b808202811582820484141761049d5761049d61055b565b634e487b7160e01b600052604160045260246000fd5b8181038181111561049d5761049d61055b565b634e487b7160e01b600052603260045260246000fdfea2646970667358221220c0bd93d39e81276655dae4dde71318c19f4cab5fcd59109d009f08acb1bfea9d64736f6c63430008110033",
  "linkReferences": {},
  "deployedLinkReferences": {}
}