{
  "_format": "hh-sol-artifact-1",
  "contractName": "ERC721VaultFactory",
  "sourceName": "contracts/fractional-art/ERC721VaultFactory.sol",
  "abi": [
    {
      "inputs": [
        {
          "internalType": "address",
          "name": "_tokenCenter",
          "type": "address"
        },
        {
          "internalType": "address",
          "name": "_hsnlNFT",
          "type": "address"
        }
      ],
      "stateMutability": "nonpayable",
      "type": "constructor"
    },
    {
      "anonymous": false,
      "inputs": [
        {
          "indexed": true,
          "internalType": "address",
          "name": "token",
          "type": "address"
        },
        {
          "indexed": false,
          "internalType": "uint256",
          "name": "id",
          "type": "uint256"
        },
        {
          "indexed": false,
          "internalType": "address",
          "name": "vault",
          "type": "address"
        },
        {
          "indexed": false,
          "internalType": "uint256",
          "name": "vaultId",
          "type": "uint256"
        }
      ],
      "name": "Mint",
      "type": "event"
    },
    {
      "anonymous": false,
      "inputs": [
        {
          "indexed": true,
          "internalType": "address",
          "name": "previousOwner",
          "type": "address"
        },
        {
          "indexed": true,
          "internalType": "address",
          "name": "newOwner",
          "type": "address"
        }
      ],
      "name": "OwnershipTransferred",
      "type": "event"
    },
    {
      "anonymous": false,
      "inputs": [
        {
          "indexed": false,
          "internalType": "address",
          "name": "account",
          "type": "address"
        }
      ],
      "name": "Paused",
      "type": "event"
    },
    {
      "anonymous": false,
      "inputs": [
        {
          "indexed": false,
          "internalType": "address",
          "name": "account",
          "type": "address"
        }
      ],
      "name": "Unpaused",
      "type": "event"
    },
    {
      "inputs": [
        {
          "internalType": "address",
          "name": "token_vault",
          "type": "address"
        }
      ],
      "name": "checkTokenVaultAddress",
      "outputs": [
        {
          "internalType": "bool",
          "name": "",
          "type": "bool"
        }
      ],
      "stateMutability": "view",
      "type": "function"
    },
    {
      "inputs": [],
      "name": "hsnlNFT",
      "outputs": [
        {
          "internalType": "address",
          "name": "",
          "type": "address"
        }
      ],
      "stateMutability": "view",
      "type": "function"
    },
    {
      "inputs": [],
      "name": "logic",
      "outputs": [
        {
          "internalType": "address",
          "name": "",
          "type": "address"
        }
      ],
      "stateMutability": "view",
      "type": "function"
    },
    {
      "inputs": [
        {
          "internalType": "uint256",
          "name": "_id",
          "type": "uint256"
        }
      ],
      "name": "mint",
      "outputs": [
        {
          "internalType": "uint256",
          "name": "",
          "type": "uint256"
        }
      ],
      "stateMutability": "nonpayable",
      "type": "function"
    },
    {
      "inputs": [],
      "name": "owner",
      "outputs": [
        {
          "internalType": "address",
          "name": "",
          "type": "address"
        }
      ],
      "stateMutability": "view",
      "type": "function"
    },
    {
      "inputs": [],
      "name": "pause",
      "outputs": [],
      "stateMutability": "nonpayable",
      "type": "function"
    },
    {
      "inputs": [],
      "name": "paused",
      "outputs": [
        {
          "internalType": "bool",
          "name": "",
          "type": "bool"
        }
      ],
      "stateMutability": "view",
      "type": "function"
    },
    {
      "inputs": [],
      "name": "renounceOwnership",
      "outputs": [],
      "stateMutability": "nonpayable",
      "type": "function"
    },
    {
      "inputs": [],
      "name": "tokenCenter",
      "outputs": [
        {
          "internalType": "address",
          "name": "",
          "type": "address"
        }
      ],
      "stateMutability": "view",
      "type": "function"
    },
    {
      "inputs": [
        {
          "internalType": "address",
          "name": "newOwner",
          "type": "address"
        }
      ],
      "name": "transferOwnership",
      "outputs": [],
      "stateMutability": "nonpayable",
      "type": "function"
    },
    {
      "inputs": [],
      "name": "unpause",
      "outputs": [],
      "stateMutability": "nonpayable",
      "type": "function"
    },
    {
      "inputs": [],
      "name": "vaultCount",
      "outputs": [
        {
          "internalType": "uint256",
          "name": "",
          "type": "uint256"
        }
      ],
      "stateMutability": "view",
      "type": "function"
    },
    {
      "inputs": [
        {
          "internalType": "address",
          "name": "",
          "type": "address"
        }
      ],
      "name": "vaults",
      "outputs": [
        {
          "internalType": "uint256",
          "name": "",
          "type": "uint256"
        }
      ],
      "stateMutability": "view",
      "type": "function"
    }
  ],
  "bytecode": "0x60e06040523480156200001157600080fd5b50604051620027bd380380620027bd833981016040819052620000349162000130565b6200003f33620000b5565b6000805460ff60a01b191690556001600160a01b0380821660a052821660805260405182906200006f9062000105565b6001600160a01b039091168152602001604051809103906000f0801580156200009c573d6000803e3d6000fd5b506001600160a01b031660c05250506001805562000168565b600080546001600160a01b038381166001600160a01b0319831681178455604051919092169283917f8be0079c531659141344cd1fd0a4f28419497f9722a3daafe3b4186f6b6457e09190a35050565b61134f806200146e83390190565b80516001600160a01b03811681146200012b57600080fd5b919050565b600080604083850312156200014457600080fd5b6200014f8362000113565b91506200015f6020840162000113565b90509250929050565b60805160a05160c0516112ac620001c26000396000818161020e015261056f0152600081816101e60152818161032b0152818161041001528181610500015281816105cb01526106770152600061015401526112ac6000f3fe60806040523480156200001157600080fd5b5060043610620000e05760003560e01c8063a0712d681162000097578063a7de4153116200006e578063a7de415314620001c9578063cccd3d9714620001e0578063d7dfa0dd1462000208578063f2fde38b146200023057600080fd5b8063a0712d681462000176578063a622ee7c146200019c578063a7c6a10014620001bf57600080fd5b80633f4ba83a14620000e55780635c975abb14620000f1578063715018a614620001145780638456cb59146200011e5780638da5cb5b14620001285780639d71ad3f146200014e575b600080fd5b620000ef62000247565b005b600054600160a01b900460ff165b60405190151581526020015b60405180910390f35b620000ef6200025d565b620000ef62000273565b6000546001600160a01b03165b6040516001600160a01b0390911681526020016200010b565b620001357f000000000000000000000000000000000000000000000000000000000000000081565b6200018d6200018736600462000b8a565b62000287565b6040519081526020016200010b565b6200018d620001ad36600462000ba4565b60026020526000908152604090205481565b6200018d60015481565b620000ff620001da36600462000ba4565b62000727565b620001357f000000000000000000000000000000000000000000000000000000000000000081565b620001357f000000000000000000000000000000000000000000000000000000000000000081565b620000ef6200024136600462000ba4565b62000799565b6200025162000818565b6200025b62000874565b565b6200026762000818565b6200025b6000620008cb565b6200027d62000818565b6200025b6200091b565b60006200029362000961565b6000620002a2600154620009b0565b604051602001620002b4919062000bfc565b60405160208183030381529060405290506000620002d4600154620009b0565b604051602001620002e6919062000c32565b60408051601f198184030181526080830182526060808452600060208501819052928401839052830182905292509060405163463d31d760e11b8152600481018790527f00000000000000000000000000000000000000000000000000000000000000006001600160a01b031690638c7a63ae906024016000604051808303816000875af1925050508015620003a057506040513d6000823e601f3d908101601f191682016040526200039d919081019062000cee565b60015b620003f25760405162461bcd60e51b815260206004820152601f60248201527f4572726f723a206661696c656420746f2067657420746f6b656e20696e666f0060448201526064015b60405180910390fd5b905060408082015190516346a62eaf60e01b81526001600160a01b037f000000000000000000000000000000000000000000000000000000000000000016916346a62eaf9162000449919060040190815260200190565b6020604051808303816000875af192505050801562000487575060408051601f3d908101601f19168201909252620004849181019062000de1565b60015b620004d55760405162461bcd60e51b815260206004820181905260248201527f4572726f723a206661696c656420746f2067657420746f6b656e20726174696f6044820152606401620003e9565b61ffff1691506000828260600151620004ef919062000e1d565b67ffffffffffffffff1690506000337f000000000000000000000000000000000000000000000000000000000000000089848989896040516024016200053c979695949392919062000e7a565b60408051601f198184030181529181526020820180516001600160e01b031663983e49b360e01b179052519091506000907f00000000000000000000000000000000000000000000000000000000000000009083906200059c9062000b7c565b620005a992919062000ee9565b604051809103906000f080158015620005c6573d6000803e3d6000fd5b5090507f00000000000000000000000000000000000000000000000000000000000000006001600160a01b03167ff3f9b81b1aa7af42b83e33d01a22621ecf67d5ebeb4587a4d63e3737276076818a8360015460405162000643939291909283526001600160a01b03919091166020830152604082015260600190565b60405180910390a2604051632142170760e11b81523360048201526001600160a01b038281166024830152604482018b90527f000000000000000000000000000000000000000000000000000000000000000016906342842e0e90606401600060405180830381600087803b158015620006bc57600080fd5b505af1158015620006d1573d6000803e3d6000fd5b5050600180546001600160a01b0385166000908152600260205260408120829055909350909150620007038362000f17565b91905055506001805462000718919062000f33565b9750505050505050505b919050565b6001600160a01b038116600090815260026020526040812054600111620007915760405162461bcd60e51b815260206004820152601760248201527f4e6f6e6578697374656e7420746f6b656e207661756c740000000000000000006044820152606401620003e9565b506001919050565b620007a362000818565b6001600160a01b0381166200080a5760405162461bcd60e51b815260206004820152602660248201527f4f776e61626c653a206e6577206f776e657220697320746865207a65726f206160448201526564647265737360d01b6064820152608401620003e9565b6200081581620008cb565b50565b6000546001600160a01b031633146200025b5760405162461bcd60e51b815260206004820181905260248201527f4f776e61626c653a2063616c6c6572206973206e6f7420746865206f776e65726044820152606401620003e9565b6200087e62000a4a565b6000805460ff60a01b191690557f5db9ee0a495bf2e6ff9c91a7834c1ba4fdd244a5e8aa4e537bd38aeae4b073aa335b6040516001600160a01b03909116815260200160405180910390a1565b600080546001600160a01b038381166001600160a01b0319831681178455604051919092169283917f8be0079c531659141344cd1fd0a4f28419497f9722a3daafe3b4186f6b6457e09190a35050565b6200092562000961565b6000805460ff60a01b1916600160a01b1790557f62e78cea01bee320cd4e420270b5ea74000d11b0c9f74754ebdbfc544b05a258620008ae3390565b600054600160a01b900460ff16156200025b5760405162461bcd60e51b815260206004820152601060248201526f14185d5cd8589b194e881c185d5cd95960821b6044820152606401620003e9565b60606000620009bf8362000a9c565b600101905060008167ffffffffffffffff811115620009e257620009e262000c5f565b6040519080825280601f01601f19166020018201604052801562000a0d576020820181803683370190505b5090508181016020015b600019016f181899199a1a9b1b9c1cb0b131b232b360811b600a86061a8153600a850494508462000a1757509392505050565b600054600160a01b900460ff166200025b5760405162461bcd60e51b815260206004820152601460248201527314185d5cd8589b194e881b9bdd081c185d5cd95960621b6044820152606401620003e9565b60008072184f03e93ff9f4daa797ed6e38ed64bf6a1f0160401b831062000adc5772184f03e93ff9f4daa797ed6e38ed64bf6a1f0160401b830492506040015b6d04ee2d6d415b85acef8100000000831062000b09576d04ee2d6d415b85acef8100000000830492506020015b662386f26fc10000831062000b2857662386f26fc10000830492506010015b6305f5e100831062000b41576305f5e100830492506008015b612710831062000b5657612710830492506004015b6064831062000b69576064830492506002015b600a831062000b76576001015b92915050565b61032d8062000f4a83390190565b60006020828403121562000b9d57600080fd5b5035919050565b60006020828403121562000bb757600080fd5b81356001600160a01b038116811462000bcf57600080fd5b9392505050565b60005b8381101562000bf357818101518382015260200162000bd9565b50506000910152565b6b02a37b5b2b7102b30bab63a160a51b81526000825162000c2581600c85016020870162000bd6565b91909101600c0192915050565b6202a2b160ed1b81526000825162000c5281600385016020870162000bd6565b9190910160030192915050565b634e487b7160e01b600052604160045260246000fd5b6040516080810167ffffffffffffffff8111828210171562000c9b5762000c9b62000c5f565b60405290565b604051601f8201601f1916810167ffffffffffffffff8111828210171562000ccd5762000ccd62000c5f565b604052919050565b805167ffffffffffffffff811681146200072257600080fd5b6000602080838503121562000d0257600080fd5b825167ffffffffffffffff8082111562000d1b57600080fd5b908401906080828703121562000d3057600080fd5b62000d3a62000c75565b82518281111562000d4a57600080fd5b8301601f8101881362000d5c57600080fd5b80518381111562000d715762000d7162000c5f565b62000d85601f8201601f1916870162000ca1565b9350808452888682840101111562000d9c57600080fd5b62000dad8187860188850162000bd6565b505081815283830151848201526040830151604082015262000dd26060840162000cd5565b60608201529695505050505050565b60006020828403121562000df457600080fd5b815161ffff8116811462000bcf57600080fd5b634e487b7160e01b600052601160045260246000fd5b67ffffffffffffffff81811683821602808216919082811462000e445762000e4462000e07565b505092915050565b6000815180845262000e6681602086016020860162000bd6565b601f01601f19169290920160200192915050565b6001600160a01b03888116825287166020820152604081018690526060810185905260e06080820181905260009062000eb69083018662000e4c565b82810360a084015262000eca818662000e4c565b91505067ffffffffffffffff831660c083015298975050505050505050565b6001600160a01b038316815260406020820181905260009062000f0f9083018462000e4c565b949350505050565b60006001820162000f2c5762000f2c62000e07565b5060010190565b8181038181111562000b765762000b7662000e0756fe60a060405234801561001057600080fd5b5060405161032d38038061032d83398101604081905261002f91610103565b6001600160a01b038216608081905260405160009182916100519085906101d1565b600060405180830381855af49150503d806000811461008c576040519150601f19603f3d011682016040523d82523d6000602084013e610091565b606091505b50915091508181906100bf5760405162461bcd60e51b81526004016100b691906101ed565b60405180910390fd5b5050505050610220565b634e487b7160e01b600052604160045260246000fd5b60005b838110156100fa5781810151838201526020016100e2565b50506000910152565b6000806040838503121561011657600080fd5b82516001600160a01b038116811461012d57600080fd5b60208401519092506001600160401b038082111561014a57600080fd5b818501915085601f83011261015e57600080fd5b815181811115610170576101706100c9565b604051601f8201601f19908116603f01168101908382118183101715610198576101986100c9565b816040528281528860208487010111156101b157600080fd5b6101c28360208301602088016100df565b80955050505050509250929050565b600082516101e38184602087016100df565b9190910192915050565b602081526000825180602084015261020c8160408501602087016100df565b601f01601f19169190910160400192915050565b60805160ef61023e60003960008181602a0152607b015260ef6000f3fe608060405260043610601f5760003560e01c8063d7dfa0dd14606b576025565b36602557005b6040517f00000000000000000000000000000000000000000000000000000000000000009036600082376000803683855af43d806000843e8180156067578184f35b8184fd5b348015607657600080fd5b50609d7f000000000000000000000000000000000000000000000000000000000000000081565b6040516001600160a01b03909116815260200160405180910390f3fea26469706673582212205efa7cc3b671b303c43d967287009cba33285516e318adab3219db1bc5e8c43264736f6c63430008110033a26469706673582212207ca0ccd0e892018f3cc1ad1660daecf0d276cbd2e1bdc6ed5db6675c9319431a64736f6c6343000811003360a060405234801561001057600080fd5b5060405161134f38038061134f83398101604081905261002f91610040565b6001600160a01b0316608052610070565b60006020828403121561005257600080fd5b81516001600160a01b038116811461006957600080fd5b9392505050565b6080516112b661009960003960008181610289015281816104970152610c6f01526112b66000f3fe608060405234801561001057600080fd5b50600436106101375760003560e01c806370a08231116100b8578063a457c2d71161007c578063a457c2d7146102c3578063a9059cbb146102d6578063af640d0f146102e9578063dd62ed3e146102f2578063e66f53b714610305578063fc0c546a1461031857600080fd5b806370a082311461023757806371ca337d1461026057806395d89b4114610269578063983e49b3146102715780639d71ad3f1461028457600080fd5b806323b872dd116100ff57806323b872dd146101db578063313ce567146101ee57806339509351146101fd57806342966c68146102105780635c9920fc1461022357600080fd5b806306fdde031461013c578063095ea7b31461015a5780630c6a62dd1461017d578063150b7a021461019257806318160ddd146101c9575b600080fd5b61014461032b565b6040516101519190610dc4565b60405180910390f35b61016d610168366004610e2e565b6103bd565b6040519015158152602001610151565b61019061018b366004610e58565b6103d7565b005b6101b06101a0366004610f06565b630a85bd0160e11b949350505050565b6040516001600160e01b03199091168152602001610151565b6035545b604051908152602001610151565b61016d6101e9366004610f82565b61044d565b60405160128152602001610151565b61016d61020b366004610e2e565b610471565b61016d61021e366004610fbe565b610493565b60cb5461016d90600160a01b900460ff1681565b6101cd610245366004610e58565b6001600160a01b031660009081526033602052604090205490565b6101cd60cc5481565b61014461052b565b61019061027f366004610ff7565b61053a565b6102ab7f000000000000000000000000000000000000000000000000000000000000000081565b6040516001600160a01b039091168152602001610151565b61016d6102d1366004610e2e565b6106a1565b61016d6102e4366004610e2e565b61071c565b6101cd60ca5481565b6101cd610300366004611099565b61072a565b60cb546102ab906001600160a01b031681565b60c9546102ab906001600160a01b031681565b60606036805461033a906110cc565b80601f0160208091040260200160405190810160405280929190818152602001828054610366906110cc565b80156103b35780601f10610388576101008083540402835291602001916103b3565b820191906000526020600020905b81548152906001019060200180831161039657829003601f168201915b5050505050905090565b6000336103cb818585610755565b60019150505b92915050565b60cb546001600160a01b0316331461042b5760405162461bcd60e51b81526020600482015260126024820152713ab83230ba329d3737ba1031bab930ba37b960711b60448201526064015b60405180910390fd5b60cb80546001600160a01b0319166001600160a01b0392909216919091179055565b60003361045b85828561087a565b6104668585856108f4565b506001949350505050565b6000336103cb818585610484838361072a565b61048e9190611106565b610755565b60007f00000000000000000000000000000000000000000000000000000000000000006001600160a01b031633146105195760405162461bcd60e51b815260206004820152602360248201527f596f7520646f6e2774206861766520726967687420746f206275726e20746f6b60448201526232b71760e91b6064820152608401610422565b6105233383610a9f565b506001919050565b60606037805461033a906110cc565b600054610100900460ff161580801561055a5750600054600160ff909116105b806105745750303b158015610574575060005460ff166001145b6105d75760405162461bcd60e51b815260206004820152602e60248201527f496e697469616c697a61626c653a20636f6e747261637420697320616c72656160448201526d191e481a5b9a5d1a585b1a5e995960921b6064820152608401610422565b6000805460ff1916600117905580156105fa576000805461ff0019166101001790555b6106048484610bd0565b61060c610c05565b60c980546001600160a01b03808a166001600160a01b03199283161790925560ca88905560cb8054928b169290911691909117905560cc8290556106508886610c2e565b508015610697576000805461ff0019169055604051600181527f7f26b83ff96e1f2b6a682f133852f6798a09c465da95921460cefb38474024989060200160405180910390a15b5050505050505050565b600033816106af828661072a565b90508381101561070f5760405162461bcd60e51b815260206004820152602560248201527f45524332303a2064656372656173656420616c6c6f77616e63652062656c6f77604482015264207a65726f60d81b6064820152608401610422565b6104668286868403610755565b6000336103cb8185856108f4565b6001600160a01b03918216600090815260346020908152604080832093909416825291909152205490565b6001600160a01b0383166107b75760405162461bcd60e51b8152602060048201526024808201527f45524332303a20617070726f76652066726f6d20746865207a65726f206164646044820152637265737360e01b6064820152608401610422565b6001600160a01b0382166108185760405162461bcd60e51b815260206004820152602260248201527f45524332303a20617070726f766520746f20746865207a65726f206164647265604482015261737360f01b6064820152608401610422565b6001600160a01b0383811660008181526034602090815260408083209487168084529482529182902085905590518481527f8c5be1e5ebec7d5bd14f71427d1e84f3dd0314c0f7b2291e5b200ac8c7c3b92591015b60405180910390a3505050565b6000610886848461072a565b905060001981146108ee57818110156108e15760405162461bcd60e51b815260206004820152601d60248201527f45524332303a20696e73756666696369656e7420616c6c6f77616e63650000006044820152606401610422565b6108ee8484848403610755565b50505050565b6001600160a01b0383166109585760405162461bcd60e51b815260206004820152602560248201527f45524332303a207472616e736665722066726f6d20746865207a65726f206164604482015264647265737360d81b6064820152608401610422565b6001600160a01b0382166109ba5760405162461bcd60e51b815260206004820152602360248201527f45524332303a207472616e7366657220746f20746865207a65726f206164647260448201526265737360e81b6064820152608401610422565b6001600160a01b03831660009081526033602052604090205481811015610a325760405162461bcd60e51b815260206004820152602660248201527f45524332303a207472616e7366657220616d6f756e7420657863656564732062604482015265616c616e636560d01b6064820152608401610422565b6001600160a01b0380851660008181526033602052604080822086860390559286168082529083902080548601905591517fddf252ad1be2c89b69c2b068fc378daa952ba7f163c4a11628f55a4df523b3ef90610a929086815260200190565b60405180910390a36108ee565b6001600160a01b038216610aff5760405162461bcd60e51b815260206004820152602160248201527f45524332303a206275726e2066726f6d20746865207a65726f206164647265736044820152607360f81b6064820152608401610422565b6001600160a01b03821660009081526033602052604090205481811015610b735760405162461bcd60e51b815260206004820152602260248201527f45524332303a206275726e20616d6f756e7420657863656564732062616c616e604482015261636560f01b6064820152608401610422565b6001600160a01b03831660008181526033602090815260408083208686039055603580548790039055518581529192917fddf252ad1be2c89b69c2b068fc378daa952ba7f163c4a11628f55a4df523b3ef910161086d565b505050565b600054610100900460ff16610bf75760405162461bcd60e51b815260040161042290611127565b610c018282610d2b565b5050565b600054610100900460ff16610c2c5760405162461bcd60e51b815260040161042290611127565b565b6000610c38610d6b565b60cc54604051633384432160e01b81526001600160a01b0385811660048301523060248301526044820185905260648201929092527f000000000000000000000000000000000000000000000000000000000000000090911690633384432190608401600060405180830381600087803b158015610cb557600080fd5b505af1925050508015610cc6575060015b610d1e5760405162461bcd60e51b8152602060048201526024808201527f4572726f723a206661696c656420746f206d696e742067656e6572616c20746f6044820152636b656e7360e01b6064820152608401610422565b5060016103d16001609755565b600054610100900460ff16610d525760405162461bcd60e51b815260040161042290611127565b6036610d5e83826111c0565b506037610bcb82826111c0565b600260975403610dbd5760405162461bcd60e51b815260206004820152601f60248201527f5265656e7472616e637947756172643a207265656e7472616e742063616c6c006044820152606401610422565b6002609755565b600060208083528351808285015260005b81811015610df157858101830151858201604001528201610dd5565b506000604082860101526040601f19601f8301168501019250505092915050565b80356001600160a01b0381168114610e2957600080fd5b919050565b60008060408385031215610e4157600080fd5b610e4a83610e12565b946020939093013593505050565b600060208284031215610e6a57600080fd5b610e7382610e12565b9392505050565b634e487b7160e01b600052604160045260246000fd5b600067ffffffffffffffff80841115610eab57610eab610e7a565b604051601f8501601f19908116603f01168101908282118183101715610ed357610ed3610e7a565b81604052809350858152868686011115610eec57600080fd5b858560208301376000602087830101525050509392505050565b60008060008060808587031215610f1c57600080fd5b610f2585610e12565b9350610f3360208601610e12565b925060408501359150606085013567ffffffffffffffff811115610f5657600080fd5b8501601f81018713610f6757600080fd5b610f7687823560208401610e90565b91505092959194509250565b600080600060608486031215610f9757600080fd5b610fa084610e12565b9250610fae60208501610e12565b9150604084013590509250925092565b600060208284031215610fd057600080fd5b5035919050565b600082601f830112610fe857600080fd5b610e7383833560208501610e90565b600080600080600080600060e0888a03121561101257600080fd5b61101b88610e12565b965061102960208901610e12565b95506040880135945060608801359350608088013567ffffffffffffffff8082111561105457600080fd5b6110608b838c01610fd7565b945060a08a013591508082111561107657600080fd5b506110838a828b01610fd7565b92505060c0880135905092959891949750929550565b600080604083850312156110ac57600080fd5b6110b583610e12565b91506110c360208401610e12565b90509250929050565b600181811c908216806110e057607f821691505b60208210810361110057634e487b7160e01b600052602260045260246000fd5b50919050565b808201808211156103d157634e487b7160e01b600052601160045260246000fd5b6020808252602b908201527f496e697469616c697a61626c653a20636f6e7472616374206973206e6f74206960408201526a6e697469616c697a696e6760a81b606082015260800190565b601f821115610bcb57600081815260208120601f850160051c810160208610156111995750805b601f850160051c820191505b818110156111b8578281556001016111a5565b505050505050565b815167ffffffffffffffff8111156111da576111da610e7a565b6111ee816111e884546110cc565b84611172565b602080601f831160018114611223576000841561120b5750858301515b600019600386901b1c1916600185901b1785556111b8565b600085815260208120601f198616915b8281101561125257888601518255948401946001909101908401611233565b50858210156112705787850151600019600388901b60f8161c191681555b5050505050600190811b0190555056fea264697066735822122065678e31a6ef189e8ecf455f589509d1742a77646e87156854a3ec32d8541e5564736f6c63430008110033",
  "linkReferences": {},
  "deployedLinkReferences": {}
}