{
  "_format": "hh-sol-artifact-1",
  "contractName": "CO2eCertificateNFT",
  "sourceName": "contracts/nft/CO2eCertificateNFT.sol",
  "abi": [
    {
      "inputs": [
        {
          "internalType": "string",
          "name": "name",
          "type": "string"
        },
        {
          "internalType": "string",
          "name": "symbol",
          "type": "string"
        },
        {
          "internalType": "string",
          "name": "source",
          "type": "string"
        },
        {
          "internalType": "string",
          "name": "issueBy",
          "type": "string"
        },
        {
          "internalType": "uint16",
          "name": "ratio",
          "type": "uint16"
        },
        {
          "internalType": "address",
          "name": "tokenCenter",
          "type": "address"
        },
        {
          "internalType": "address",
          "name": "uuidGen",
          "type": "address"
        }
      ],
      "stateMutability": "nonpayable",
      "type": "constructor"
    },
    {
      "anonymous": false,
      "inputs": [
        {
          "indexed": true,
          "internalType": "address",
          "name": "owner",
          "type": "address"
        },
        {
          "indexed": true,
          "internalType": "address",
          "name": "approved",
          "type": "address"
        },
        {
          "indexed": true,
          "internalType": "uint256",
          "name": "tokenId",
          "type": "uint256"
        }
      ],
      "name": "Approval",
      "type": "event"
    },
    {
      "anonymous": false,
      "inputs": [
        {
          "indexed": true,
          "internalType": "address",
          "name": "owner",
          "type": "address"
        },
        {
          "indexed": true,
          "internalType": "address",
          "name": "operator",
          "type": "address"
        },
        {
          "indexed": false,
          "internalType": "bool",
          "name": "approved",
          "type": "bool"
        }
      ],
      "name": "ApprovalForAll",
      "type": "event"
    },
    {
      "anonymous": false,
      "inputs": [
        {
          "indexed": false,
          "internalType": "uint256",
          "name": "_fromTokenId",
          "type": "uint256"
        },
        {
          "indexed": false,
          "internalType": "uint256",
          "name": "_toTokenId",
          "type": "uint256"
        }
      ],
      "name": "BatchMetadataUpdate",
      "type": "event"
    },
    {
      "anonymous": false,
      "inputs": [
        {
          "indexed": false,
          "internalType": "uint256",
          "name": "_tokenId",
          "type": "uint256"
        }
      ],
      "name": "MetadataUpdate",
      "type": "event"
    },
    {
      "anonymous": false,
      "inputs": [
        {
          "indexed": true,
          "internalType": "address",
          "name": "previousOwner",
          "type": "address"
        },
        {
          "indexed": true,
          "internalType": "address",
          "name": "newOwner",
          "type": "address"
        }
      ],
      "name": "OwnershipTransferred",
      "type": "event"
    },
    {
      "anonymous": false,
      "inputs": [
        {
          "indexed": true,
          "internalType": "address",
          "name": "from",
          "type": "address"
        },
        {
          "indexed": true,
          "internalType": "address",
          "name": "to",
          "type": "address"
        },
        {
          "indexed": true,
          "internalType": "uint256",
          "name": "tokenId",
          "type": "uint256"
        }
      ],
      "name": "Transfer",
      "type": "event"
    },
    {
      "inputs": [
        {
          "internalType": "string",
          "name": "issueBy",
          "type": "string"
        },
        {
          "internalType": "uint16",
          "name": "ratio",
          "type": "uint16"
        }
      ],
      "name": "addIssueBy",
      "outputs": [
        {
          "internalType": "bool",
          "name": "",
          "type": "bool"
        }
      ],
      "stateMutability": "pure",
      "type": "function"
    },
    {
      "inputs": [
        {
          "internalType": "string",
          "name": "source",
          "type": "string"
        }
      ],
      "name": "addSource",
      "outputs": [
        {
          "internalType": "bool",
          "name": "",
          "type": "bool"
        }
      ],
      "stateMutability": "pure",
      "type": "function"
    },
    {
      "inputs": [
        {
          "internalType": "address",
          "name": "to",
          "type": "address"
        },
        {
          "internalType": "uint256",
          "name": "tokenId",
          "type": "uint256"
        }
      ],
      "name": "approve",
      "outputs": [],
      "stateMutability": "nonpayable",
      "type": "function"
    },
    {
      "inputs": [
        {
          "internalType": "address",
          "name": "owner",
          "type": "address"
        }
      ],
      "name": "balanceOf",
      "outputs": [
        {
          "internalType": "uint256",
          "name": "",
          "type": "uint256"
        }
      ],
      "stateMutability": "view",
      "type": "function"
    },
    {
      "inputs": [
        {
          "internalType": "uint256",
          "name": "tokenId",
          "type": "uint256"
        }
      ],
      "name": "burnToken",
      "outputs": [
        {
          "internalType": "bool",
          "name": "",
          "type": "bool"
        }
      ],
      "stateMutability": "nonpayable",
      "type": "function"
    },
    {
      "inputs": [],
      "name": "certIssueBy",
      "outputs": [
        {
          "internalType": "bytes30",
          "name": "",
          "type": "bytes30"
        }
      ],
      "stateMutability": "view",
      "type": "function"
    },
    {
      "inputs": [],
      "name": "certIssueById",
      "outputs": [
        {
          "internalType": "uint256",
          "name": "",
          "type": "uint256"
        }
      ],
      "stateMutability": "view",
      "type": "function"
    },
    {
      "inputs": [],
      "name": "certIssueByRatio",
      "outputs": [
        {
          "internalType": "uint16",
          "name": "",
          "type": "uint16"
        }
      ],
      "stateMutability": "view",
      "type": "function"
    },
    {
      "inputs": [],
      "name": "certSource",
      "outputs": [
        {
          "internalType": "bytes32",
          "name": "",
          "type": "bytes32"
        }
      ],
      "stateMutability": "view",
      "type": "function"
    },
    {
      "inputs": [],
      "name": "certSourceId",
      "outputs": [
        {
          "internalType": "uint256",
          "name": "",
          "type": "uint256"
        }
      ],
      "stateMutability": "view",
      "type": "function"
    },
    {
      "inputs": [],
      "name": "currTokenId",
      "outputs": [
        {
          "internalType": "uint256",
          "name": "",
          "type": "uint256"
        }
      ],
      "stateMutability": "view",
      "type": "function"
    },
    {
      "inputs": [
        {
          "internalType": "uint256",
          "name": "issueById",
          "type": "uint256"
        }
      ],
      "name": "delIssueBy",
      "outputs": [
        {
          "internalType": "bool",
          "name": "",
          "type": "bool"
        }
      ],
      "stateMutability": "pure",
      "type": "function"
    },
    {
      "inputs": [
        {
          "internalType": "uint256",
          "name": "sourceId",
          "type": "uint256"
        }
      ],
      "name": "delSource",
      "outputs": [
        {
          "internalType": "bool",
          "name": "",
          "type": "bool"
        }
      ],
      "stateMutability": "pure",
      "type": "function"
    },
    {
      "inputs": [],
      "name": "erc20TokenCenter",
      "outputs": [
        {
          "internalType": "contract ERC20TokenCenter",
          "name": "",
          "type": "address"
        }
      ],
      "stateMutability": "view",
      "type": "function"
    },
    {
      "inputs": [
        {
          "internalType": "uint256",
          "name": "tokenId",
          "type": "uint256"
        }
      ],
      "name": "getApproved",
      "outputs": [
        {
          "internalType": "address",
          "name": "",
          "type": "address"
        }
      ],
      "stateMutability": "view",
      "type": "function"
    },
    {
      "inputs": [],
      "name": "getIssueByList",
      "outputs": [
        {
          "internalType": "string[]",
          "name": "",
          "type": "string[]"
        }
      ],
      "stateMutability": "view",
      "type": "function"
    },
    {
      "inputs": [
        {
          "internalType": "uint256",
          "name": "issueById",
          "type": "uint256"
        }
      ],
      "name": "getRatio",
      "outputs": [
        {
          "internalType": "uint16",
          "name": "",
          "type": "uint16"
        }
      ],
      "stateMutability": "view",
      "type": "function"
    },
    {
      "inputs": [],
      "name": "getRatioList",
      "outputs": [
        {
          "internalType": "uint16[]",
          "name": "",
          "type": "uint16[]"
        }
      ],
      "stateMutability": "view",
      "type": "function"
    },
    {
      "inputs": [],
      "name": "getSourceList",
      "outputs": [
        {
          "internalType": "string[]",
          "name": "",
          "type": "string[]"
        }
      ],
      "stateMutability": "view",
      "type": "function"
    },
    {
      "inputs": [
        {
          "internalType": "uint256",
          "name": "tokenId",
          "type": "uint256"
        }
      ],
      "name": "getTokenInfo",
      "outputs": [
        {
          "components": [
            {
              "internalType": "string",
              "name": "certId",
              "type": "string"
            },
            {
              "internalType": "uint256",
              "name": "sourceId",
              "type": "uint256"
            },
            {
              "internalType": "uint256",
              "name": "issueById",
              "type": "uint256"
            },
            {
              "internalType": "uint64",
              "name": "weight",
              "type": "uint64"
            },
            {
              "internalType": "uint256",
              "name": "date",
              "type": "uint256"
            }
          ],
          "internalType": "struct CO2eCertificateNFT.TokenInfo",
          "name": "",
          "type": "tuple"
        }
      ],
      "stateMutability": "view",
      "type": "function"
    },
    {
      "inputs": [
        {
          "internalType": "uint256",
          "name": "tokenId",
          "type": "uint256"
        }
      ],
      "name": "getTokenInfoLiterally",
      "outputs": [
        {
          "components": [
            {
              "internalType": "string",
              "name": "certId",
              "type": "string"
            },
            {
              "internalType": "string",
              "name": "source",
              "type": "string"
            },
            {
              "internalType": "string",
              "name": "issueBy",
              "type": "string"
            },
            {
              "internalType": "uint64",
              "name": "weight",
              "type": "uint64"
            },
            {
              "internalType": "uint256",
              "name": "date",
              "type": "uint256"
            }
          ],
          "internalType": "struct CO2eCertificateNFT.TokenInfoLiterally",
          "name": "",
          "type": "tuple"
        }
      ],
      "stateMutability": "view",
      "type": "function"
    },
    {
      "inputs": [
        {
          "internalType": "address",
          "name": "owner",
          "type": "address"
        },
        {
          "internalType": "address",
          "name": "operator",
          "type": "address"
        }
      ],
      "name": "isApprovedForAll",
      "outputs": [
        {
          "internalType": "bool",
          "name": "",
          "type": "bool"
        }
      ],
      "stateMutability": "view",
      "type": "function"
    },
    {
      "inputs": [],
      "name": "minSwapAmount",
      "outputs": [
        {
          "internalType": "uint256",
          "name": "",
          "type": "uint256"
        }
      ],
      "stateMutability": "view",
      "type": "function"
    },
    {
      "inputs": [
        {
          "internalType": "address",
          "name": "receiver",
          "type": "address"
        },
        {
          "internalType": "uint256",
          "name": "amount",
          "type": "uint256"
        }
      ],
      "name": "mintToken",
      "outputs": [
        {
          "internalType": "uint256",
          "name": "",
          "type": "uint256"
        }
      ],
      "stateMutability": "nonpayable",
      "type": "function"
    },
    {
      "inputs": [],
      "name": "name",
      "outputs": [
        {
          "internalType": "string",
          "name": "",
          "type": "string"
        }
      ],
      "stateMutability": "view",
      "type": "function"
    },
    {
      "inputs": [],
      "name": "owner",
      "outputs": [
        {
          "internalType": "address",
          "name": "",
          "type": "address"
        }
      ],
      "stateMutability": "view",
      "type": "function"
    },
    {
      "inputs": [
        {
          "internalType": "uint256",
          "name": "tokenId",
          "type": "uint256"
        }
      ],
      "name": "ownerOf",
      "outputs": [
        {
          "internalType": "address",
          "name": "",
          "type": "address"
        }
      ],
      "stateMutability": "view",
      "type": "function"
    },
    {
      "inputs": [],
      "name": "renounceOwnership",
      "outputs": [],
      "stateMutability": "nonpayable",
      "type": "function"
    },
    {
      "inputs": [
        {
          "internalType": "address",
          "name": "from",
          "type": "address"
        },
        {
          "internalType": "address",
          "name": "to",
          "type": "address"
        },
        {
          "internalType": "uint256",
          "name": "tokenId",
          "type": "uint256"
        }
      ],
      "name": "safeTransferFrom",
      "outputs": [],
      "stateMutability": "nonpayable",
      "type": "function"
    },
    {
      "inputs": [
        {
          "internalType": "address",
          "name": "from",
          "type": "address"
        },
        {
          "internalType": "address",
          "name": "to",
          "type": "address"
        },
        {
          "internalType": "uint256",
          "name": "tokenId",
          "type": "uint256"
        },
        {
          "internalType": "bytes",
          "name": "data",
          "type": "bytes"
        }
      ],
      "name": "safeTransferFrom",
      "outputs": [],
      "stateMutability": "nonpayable",
      "type": "function"
    },
    {
      "inputs": [
        {
          "internalType": "address",
          "name": "operator",
          "type": "address"
        },
        {
          "internalType": "bool",
          "name": "approved",
          "type": "bool"
        }
      ],
      "name": "setApprovalForAll",
      "outputs": [],
      "stateMutability": "nonpayable",
      "type": "function"
    },
    {
      "inputs": [
        {
          "internalType": "uint256",
          "name": "issueById",
          "type": "uint256"
        },
        {
          "internalType": "uint16",
          "name": "ratio",
          "type": "uint16"
        }
      ],
      "name": "setRatio",
      "outputs": [
        {
          "internalType": "bool",
          "name": "",
          "type": "bool"
        }
      ],
      "stateMutability": "pure",
      "type": "function"
    },
    {
      "inputs": [
        {
          "internalType": "bytes4",
          "name": "interfaceId",
          "type": "bytes4"
        }
      ],
      "name": "supportsInterface",
      "outputs": [
        {
          "internalType": "bool",
          "name": "",
          "type": "bool"
        }
      ],
      "stateMutability": "view",
      "type": "function"
    },
    {
      "inputs": [],
      "name": "symbol",
      "outputs": [
        {
          "internalType": "string",
          "name": "",
          "type": "string"
        }
      ],
      "stateMutability": "view",
      "type": "function"
    },
    {
      "inputs": [
        {
          "internalType": "uint256",
          "name": "index",
          "type": "uint256"
        }
      ],
      "name": "tokenByIndex",
      "outputs": [
        {
          "internalType": "uint256",
          "name": "",
          "type": "uint256"
        }
      ],
      "stateMutability": "view",
      "type": "function"
    },
    {
      "inputs": [
        {
          "internalType": "address",
          "name": "owner",
          "type": "address"
        },
        {
          "internalType": "uint256",
          "name": "index",
          "type": "uint256"
        }
      ],
      "name": "tokenOfOwnerByIndex",
      "outputs": [
        {
          "internalType": "uint256",
          "name": "",
          "type": "uint256"
        }
      ],
      "stateMutability": "view",
      "type": "function"
    },
    {
      "inputs": [
        {
          "internalType": "uint256",
          "name": "tokenId",
          "type": "uint256"
        }
      ],
      "name": "tokenURI",
      "outputs": [
        {
          "internalType": "string",
          "name": "",
          "type": "string"
        }
      ],
      "stateMutability": "view",
      "type": "function"
    },
    {
      "inputs": [],
      "name": "totalSupply",
      "outputs": [
        {
          "internalType": "uint256",
          "name": "",
          "type": "uint256"
        }
      ],
      "stateMutability": "view",
      "type": "function"
    },
    {
      "inputs": [
        {
          "internalType": "address",
          "name": "from",
          "type": "address"
        },
        {
          "internalType": "address",
          "name": "to",
          "type": "address"
        },
        {
          "internalType": "uint256",
          "name": "tokenId",
          "type": "uint256"
        }
      ],
      "name": "transferFrom",
      "outputs": [],
      "stateMutability": "nonpayable",
      "type": "function"
    },
    {
      "inputs": [
        {
          "internalType": "address",
          "name": "newOwner",
          "type": "address"
        }
      ],
      "name": "transferOwnership",
      "outputs": [],
      "stateMutability": "nonpayable",
      "type": "function"
    },
    {
      "inputs": [],
      "name": "uuidGenerator",
      "outputs": [
        {
          "internalType": "contract UUIDGenerator",
          "name": "",
          "type": "address"
        }
      ],
      "stateMutability": "view",
      "type": "function"
    }
  ],
  "bytecode": "0x6101606040523480156200001257600080fd5b506040516200398a3803806200398a83398101604081905262000035916200041b565b86866200004233620002ce565b6001805560026200005483826200059b565b5060036200006382826200059b565b5050508451600003620000bd5760405162461bcd60e51b815260206004820152601560248201527f466f7262696420656d7074792060736f7572636560000000000000000000000060448201526064015b60405180910390fd5b60218551106200011b5760405162461bcd60e51b815260206004820152602260248201527f546865206c656e677468206f662060736f7572636560203c3d20333220627974604482015261657360f01b6064820152608401620000b4565b83516000036200016e5760405162461bcd60e51b815260206004820152601660248201527f466f7262696420656d70747920606973737565427960000000000000000000006044820152606401620000b4565b601f845110620001cd5760405162461bcd60e51b815260206004820152602360248201527f546865206c656e677468206f6620606973737565427960203c3d20333020627960448201526274657360e81b6064820152608401620000b4565b8261ffff166000036200022f5760405162461bcd60e51b815260206004820152602360248201527f436f6e76657273696f6e2060726174696f60206d757374206265206e6f6e2d7a60448201526265726f60e81b6064820152608401620000b4565b6103e8600d556000608081905260a0526040516200025290869060200162000667565b6040516020818303038152906040526200026c9062000685565b60c0526040516200028290859060200162000667565b6040516020818303038152906040526200029c90620006aa565b61ffff191660e05261ffff92909216610100526001600160a01b0390811661012052166101405250620006dd92505050565b600080546001600160a01b038381166001600160a01b0319831681178455604051919092169283917f8be0079c531659141344cd1fd0a4f28419497f9722a3daafe3b4186f6b6457e09190a35050565b634e487b7160e01b600052604160045260246000fd5b60005b838110156200035157818101518382015260200162000337565b50506000910152565b600082601f8301126200036c57600080fd5b81516001600160401b03808211156200038957620003896200031e565b604051601f8301601f19908116603f01168101908282118183101715620003b457620003b46200031e565b81604052838152866020858801011115620003ce57600080fd5b620003e184602083016020890162000334565b9695505050505050565b805161ffff81168114620003fe57600080fd5b919050565b80516001600160a01b0381168114620003fe57600080fd5b600080600080600080600060e0888a0312156200043757600080fd5b87516001600160401b03808211156200044f57600080fd5b6200045d8b838c016200035a565b985060208a01519150808211156200047457600080fd5b620004828b838c016200035a565b975060408a01519150808211156200049957600080fd5b620004a78b838c016200035a565b965060608a0151915080821115620004be57600080fd5b50620004cd8a828b016200035a565b945050620004de60808901620003eb565b9250620004ee60a0890162000403565b9150620004fe60c0890162000403565b905092959891949750929550565b600181811c908216806200052157607f821691505b6020821081036200054257634e487b7160e01b600052602260045260246000fd5b50919050565b601f8211156200059657600081815260208120601f850160051c81016020861015620005715750805b601f850160051c820191505b8181101562000592578281556001016200057d565b5050505b505050565b81516001600160401b03811115620005b757620005b76200031e565b620005cf81620005c884546200050c565b8462000548565b602080601f831160018114620006075760008415620005ee5750858301515b600019600386901b1c1916600185901b17855562000592565b600085815260208120601f198616915b82811015620006385788860151825594840194600190910190840162000617565b5085821015620006575787850151600019600388901b60f8161c191681555b5050505050600190811b01905550565b600082516200067b81846020870162000334565b9190910192915050565b80516020808301519190811015620005425760001960209190910360031b1b16919050565b8051602082015161ffff19808216929190601e831015620006d557808184601e0360031b1b83161693505b505050919050565b60805160a05160c05160e0516101005161012051610140516131e2620007a8600039600081816104b80152610e500152600081816105e701528181610b4001528181610d850152610dc80152600081816103c8015281816105b70152818161069f01528181610c430152610cda01526000818161043c0152818161115d015261132a015260008181610395015281816112e30152611422015260008181610328015281816110c90152611c3a015260008181610415015281816110a30152611c1101526131e26000f3fe608060405234801561001057600080fd5b50600436106102535760003560e01c8063715018a611610146578063b1bd3383116100c3578063e1a6fb5511610087578063e1a6fb55146105d9578063e4687106146105e2578063e985e9c514610609578063ed62d2ff14610645578063f2fde38b14610653578063f8d0ff9c146102fc57600080fd5b8063b1bd338314610564578063b88d4fde14610584578063c87b56dd14610597578063cb5d372a146105aa578063cd898f51146105b257600080fd5b80638da5cb5b1161010a5780638da5cb5b1461050d5780638f75c9c11461051e57806395d89b4114610533578063a22cb4651461053b578063a79b5feb1461054e57600080fd5b8063715018a61461049857806379c65068146104a05780637ac06018146104b35780637b47ec1a146104da5780638c7a63ae146104ed57600080fd5b8063329162ae116101d45780634f6ccce7116101985780634f6ccce7146103fd5780634fd6e6ef146104105780635eee9ed7146104375780636352211e1461047257806370a082311461048557600080fd5b8063329162ae1461035d578063338246e21461037457806342842e0e1461037d57806345461db01461039057806346a62eaf146103b757600080fd5b806318160ddd1161021b57806318160ddd146102ea578063190ec187146102fc57806323b872dd14610310578063272a01cc146103235780632f745c591461034a57600080fd5b806301ffc9a71461025857806303f3e2751461028057806306fdde0314610295578063081812fc146102aa578063095ea7b3146102d5575b600080fd5b61026b610266366004612731565b610666565b60405190151581526020015b60405180910390f35b610288610677565b604051610277919061274e565b61029d6106e9565b60405161027791906127e6565b6102bd6102b83660046127f9565b61077b565b6040516001600160a01b039091168152602001610277565b6102e86102e336600461282e565b6107a2565b005b600a545b604051908152602001610277565b61026b61030a3660046127f9565b50600190565b6102e861031e366004612858565b6108bc565b6102ee7f000000000000000000000000000000000000000000000000000000000000000081565b6102ee61035836600461282e565b6108ed565b61026b61036b3660046128ee565b60019392505050565b6102ee600d5481565b6102e861038b366004612858565b610983565b6102ee7f000000000000000000000000000000000000000000000000000000000000000081565b6103ea6103c53660046127f9565b507f000000000000000000000000000000000000000000000000000000000000000090565b60405161ffff9091168152602001610277565b6102ee61040b3660046127f9565b61099e565b6102ee7f000000000000000000000000000000000000000000000000000000000000000081565b61045e7f000000000000000000000000000000000000000000000000000000000000000081565b60405161ffff199091168152602001610277565b6102bd6104803660046127f9565b610a31565b6102ee610493366004612941565b610a91565b6102e8610b17565b6102ee6104ae36600461282e565b610b2b565b6102bd7f000000000000000000000000000000000000000000000000000000000000000081565b61026b6104e83660046127f9565b610f33565b6105006104fb3660046127f9565b610f9d565b604051610277919061295c565b6000546001600160a01b03166102bd565b610526611129565b60405161027791906129b5565b61029d6111bf565b6102e8610549366004612a25565b6111ce565b61026b61055c366004612a5c565b600192915050565b6105776105723660046127f9565b6111dd565b6040516102779190612a88565b6102e8610592366004612b77565b6113ab565b61029d6105a53660046127f9565b6113e2565b6105266113ed565b6103ea7f000000000000000000000000000000000000000000000000000000000000000081565b6102ee600c5481565b6102bd7f000000000000000000000000000000000000000000000000000000000000000081565b61026b610617366004612c21565b6001600160a01b03918216600090815260076020908152604080832093909416825291909152205460ff1690565b61026b61055c366004612c4b565b6102e8610661366004612941565b61144f565b6000610671826114c8565b92915050565b60408051600180825281830190925260609160009190602080830190803683370190505090507f0000000000000000000000000000000000000000000000000000000000000000816000815181106106d1576106d1612c8c565b61ffff90921660209283029190910190910152919050565b6060600280546106f890612ca2565b80601f016020809104026020016040519081016040528092919081815260200182805461072490612ca2565b80156107715780601f1061074657610100808354040283529160200191610771565b820191906000526020600020905b81548152906001019060200180831161075457829003601f168201915b5050505050905090565b6000610786826114ed565b506000908152600660205260409020546001600160a01b031690565b60006107ad82610a31565b9050806001600160a01b0316836001600160a01b03160361081f5760405162461bcd60e51b815260206004820152602160248201527f4552433732313a20617070726f76616c20746f2063757272656e74206f776e656044820152603960f91b60648201526084015b60405180910390fd5b336001600160a01b038216148061083b575061083b8133610617565b6108ad5760405162461bcd60e51b815260206004820152603d60248201527f4552433732313a20617070726f76652063616c6c6572206973206e6f7420746f60448201527f6b656e206f776e6572206f7220617070726f76656420666f7220616c6c0000006064820152608401610816565b6108b7838361153d565b505050565b6108c633826115ab565b6108e25760405162461bcd60e51b815260040161081690612cdc565b6108b783838361162a565b60006108f883610a91565b821061095a5760405162461bcd60e51b815260206004820152602b60248201527f455243373231456e756d657261626c653a206f776e657220696e646578206f7560448201526a74206f6620626f756e647360a81b6064820152608401610816565b506001600160a01b03919091166000908152600860209081526040808320938352929052205490565b6108b7838383604051806020016040528060008152506113ab565b60006109a9600a5490565b8210610a0c5760405162461bcd60e51b815260206004820152602c60248201527f455243373231456e756d657261626c653a20676c6f62616c20696e646578206f60448201526b7574206f6620626f756e647360a01b6064820152608401610816565b600a8281548110610a1f57610a1f612c8c565b90600052602060002001549050919050565b6000818152600460205260408120546001600160a01b0316806106715760405162461bcd60e51b8152602060048201526018602482015277115490cdcc8c4e881a5b9d985b1a59081d1bdad95b88125160421b6044820152606401610816565b60006001600160a01b038216610afb5760405162461bcd60e51b815260206004820152602960248201527f4552433732313a2061646472657373207a65726f206973206e6f7420612076616044820152683634b21037bbb732b960b91b6064820152608401610816565b506001600160a01b031660009081526005602052604090205490565b610b1f61179b565b610b2960006117f5565b565b6000610b35611845565b336001600160a01b037f00000000000000000000000000000000000000000000000000000000000000001614610bc35760405162461bcd60e51b815260206004820152602d60248201527f43616c6c6572206973206e6f7420616c6c6f77656420746f20696e766f6b652060448201526c3a3434b990333ab731ba34b7b760991b6064820152608401610816565b600d54821015610c3b5760405162461bcd60e51b815260206004820152603b60248201527f60616d6f756e7460206d757374206265206174206c6561737420606d696e537760448201527f6170416d6f756e746020436172626f6e204372656469742046547300000000006064820152608401610816565b610c6961ffff7f00000000000000000000000000000000000000000000000000000000000000001683612d3f565b15610cd05760405162461bcd60e51b815260206004820152603160248201527f436f6e76657273696f6e2060616d6f756e7460206d7573742062652061206d756044820152700363a34b836329037b310303930ba34b7b607d1b6064820152608401610816565b6000610d0061ffff7f00000000000000000000000000000000000000000000000000000000000000001684612d69565b90506001600160401b03811115610d7f5760405162461bcd60e51b815260206004820152603760248201527f54727920746f20636f6e76657274206f7665727768656c6d696e6720616d6f7560448201527f6e74206f6620436172626f6e20437265646974204654730000000000000000006064820152608401610816565b80610dac7f000000000000000000000000000000000000000000000000000000000000000080308761189e565b604051633477cc1b60e21b8152306004820152602481018590527f00000000000000000000000000000000000000000000000000000000000000006001600160a01b03169063d1df306c906044016020604051808303816000875af1158015610e19573d6000803e3d6000fd5b505050506040513d601f19601f82011682018060405250810190610e3d9190612d7d565b506000610f2560405180606001604052807f00000000000000000000000000000000000000000000000000000000000000006001600160a01b031663fe6fd2726040518163ffffffff1660e01b81526004016000604051808303816000875af1158015610eae573d6000803e3d6000fd5b505050506040513d6000823e601f3d908101601f19168201604052610ed69190810190612d9a565b604051602001610ee69190612e10565b604051602081830303815290604052610efe90612e2c565b8152602001426001600160c01b03168152602001846001600160401b0316815250876119a7565b935050505061067160018055565b6000610f40335b836115ab565b610f8c5760405162461bcd60e51b815260206004820152601960248201527f596f752063616e6e6f74206275726e2074686973204e46542e000000000000006044820152606401610816565b610f95826119d0565b506001919050565b610fd86040518060a0016040528060608152602001600081526020016000815260200160006001600160401b03168152602001600081525090565b610fe182611a85565b61102d5760405162461bcd60e51b815260206004820152601d60248201527f43616e6e6f7420676574206e6f6e2d6578697374656e7420746f6b656e0000006044820152606401610816565b6000828152600e60209081526040918290208251606081018452815481526001909101546001600160c01b03811692820192909252600160c01b9091046001600160401b031681830152815160a08101909252805160c0830152908060e0810160405160208183030381529060405281526020017f000000000000000000000000000000000000000000000000000000000000000081526020017f0000000000000000000000000000000000000000000000000000000000000000815260200182604001516001600160401b0316815260200182602001516001600160c01b031660c08042901c901b6111209190612e50565b90529392505050565b60408051600180825281830190925260609160009190816020015b60608152602001906001900390816111445750506040517f000000000000000000000000000000000000000000000000000000000000000061ffff19166020820152909150603e015b604051602081830303815290604052816000815181106111af576111af612c8c565b6020908102919091010152919050565b6060600380546106f890612ca2565b6111d9338383611aa2565b5050565b6112186040518060a0016040528060608152602001606081526020016060815260200160006001600160401b03168152602001600081525090565b61122182611a85565b61126d5760405162461bcd60e51b815260206004820152601d60248201527f43616e6e6f7420676574206e6f6e2d6578697374656e7420746f6b656e0000006044820152606401610816565b6000828152600e60209081526040918290208251606081018452815481526001909101546001600160c01b03811692820192909252600160c01b9091046001600160401b031681830152815160a08101909252805160c0830152908060e0810160405160208183030381529060405281526020017f000000000000000000000000000000000000000000000000000000000000000060405160200161131491815260200190565b60405160208183030381529060405281526020017f0000000000000000000000000000000000000000000000000000000000000000604051602001611364919061ffff19919091168152601e0190565b604051602081830303815290604052815260200182604001516001600160401b0316815260200182602001516001600160c01b031660c08042901c901b6111209190612e50565b6113b433610f3a565b6113d05760405162461bcd60e51b815260040161081690612cdc565b6113dc84848484611b70565b50505050565b606061067182611ba3565b60408051600180825281830190925260609160009190816020015b6060815260200190600190039081611408575050604080517f000000000000000000000000000000000000000000000000000000000000000060208201529192500161118d565b61145761179b565b6001600160a01b0381166114bc5760405162461bcd60e51b815260206004820152602660248201527f4f776e61626c653a206e6577206f776e657220697320746865207a65726f206160448201526564647265737360d01b6064820152608401610816565b6114c5816117f5565b50565b60006001600160e01b0319821663780e9d6360e01b1480610671575061067182611d03565b6114f681611a85565b6114c55760405162461bcd60e51b8152602060048201526018602482015277115490cdcc8c4e881a5b9d985b1a59081d1bdad95b88125160421b6044820152606401610816565b600081815260066020526040902080546001600160a01b0319166001600160a01b038416908117909155819061157282610a31565b6001600160a01b03167f8c5be1e5ebec7d5bd14f71427d1e84f3dd0314c0f7b2291e5b200ac8c7c3b92560405160405180910390a45050565b6000806115b783610a31565b9050806001600160a01b0316846001600160a01b031614806115fe57506001600160a01b0380821660009081526007602090815260408083209388168352929052205460ff165b806116225750836001600160a01b03166116178461077b565b6001600160a01b0316145b949350505050565b826001600160a01b031661163d82610a31565b6001600160a01b0316146116635760405162461bcd60e51b815260040161081690612e63565b6001600160a01b0382166116c55760405162461bcd60e51b8152602060048201526024808201527f4552433732313a207472616e7366657220746f20746865207a65726f206164646044820152637265737360e01b6064820152608401610816565b6116d28383836001611d53565b826001600160a01b03166116e582610a31565b6001600160a01b03161461170b5760405162461bcd60e51b815260040161081690612e63565b600081815260066020908152604080832080546001600160a01b03199081169091556001600160a01b0387811680865260058552838620805460001901905590871680865283862080546001019055868652600490945282852080549092168417909155905184937fddf252ad1be2c89b69c2b068fc378daa952ba7f163c4a11628f55a4df523b3ef91a4505050565b6000546001600160a01b03163314610b295760405162461bcd60e51b815260206004820181905260248201527f4f776e61626c653a2063616c6c6572206973206e6f7420746865206f776e65726044820152606401610816565b600080546001600160a01b038381166001600160a01b0319831681178455604051919092169283917f8be0079c531659141344cd1fd0a4f28419497f9722a3daafe3b4186f6b6457e09190a35050565b6002600154036118975760405162461bcd60e51b815260206004820152601f60248201527f5265656e7472616e637947756172643a207265656e7472616e742063616c6c006044820152606401610816565b6002600155565b604080516001600160a01b0385811660248301528481166044830152606480830185905283518084039091018152608490920183526020820180516001600160e01b03166323b872dd60e01b17905291516000928392908816916119029190612e10565b6000604051808303816000865af19150503d806000811461193f576040519150601f19603f3d011682016040523d82523d6000602084013e611944565b606091505b509150915081801561196e57508051158061196e57508080602001905181019061196e9190612d7d565b61199f5760405162461bcd60e51b81526020600482015260026024820152612a2360f11b6044820152606401610816565b505050505050565b600c8054600181019091556000906119bf8382611d5f565b6119c98185611d79565b9392505050565b6119d981611a85565b611a255760405162461bcd60e51b815260206004820152601e60248201527f43616e6e6f74206275726e206e6f6e2d6578697374656e7420746f6b656e00006044820152606401610816565b611a2e81611e49565b6040805160608101825260008082526020808301828152838501838152958352600e90915292902090518155905191516001600160401b0316600160c01b026001600160c01b039290921691909117600190910155565b6000908152600460205260409020546001600160a01b0316151590565b816001600160a01b0316836001600160a01b031603611b035760405162461bcd60e51b815260206004820152601960248201527f4552433732313a20617070726f766520746f2063616c6c6572000000000000006044820152606401610816565b6001600160a01b03838116600081815260076020908152604080832094871680845294825291829020805460ff191686151590811790915591519182527f17307eab39ab6107e8899845ad3d59bd9653f200f220920489ca2b5937696c31910160405180910390a3505050565b611b7b84848461162a565b611b8784848484611eec565b6113dc5760405162461bcd60e51b815260040161081690612ea8565b6000818152600e602090815260409182902082516060808201855282548083526001909301546001600160c01b03811683860152600160c01b90046001600160401b03168286015284519384019290925290929091611cdc9101604051602081830303815290604052611c357f0000000000000000000000000000000000000000000000000000000000000000611fed565b611c5e7f0000000000000000000000000000000000000000000000000000000000000000611fed565b611c7485604001516001600160401b0316611fed565b611c804260c01c611fed565b611c9687602001516001600160c01b0316611fed565b604051602001611ca7929190612efa565b60408051601f1981840301815290829052611cc89594939291602001612f29565b60405160208183030381529060405261207f565b604051602001611cec919061308b565b604051602081830303815290604052915050919050565b60006001600160e01b031982166380ac58cd60e01b1480611d3457506001600160e01b03198216635b5e139f60e01b145b8061067157506301ffc9a760e01b6001600160e01b0319831614610671565b6113dc848484846121d1565b6111d9828260405180602001604052806000815250612305565b611d8282611a85565b611dce5760405162461bcd60e51b815260206004820152601d60248201527f43616e6e6f7420736574206e6f6e2d6578697374656e7420746f6b656e0000006044820152606401610816565b6000828152600e60209081526040918290208351815590830151828401516001600160401b0316600160c01b026001600160c01b0390911617600190910155517ff8e1a15aba9398e019f0b49df1a4fde98ee17ae345cb5f6b5e2c27f5033e8ce790611e3d9084815260200190565b60405180910390a15050565b6000611e5482610a31565b9050611e64816000846001611d53565b611e6d82610a31565b600083815260066020908152604080832080546001600160a01b03199081169091556001600160a01b0385168085526005845282852080546000190190558785526004909352818420805490911690555192935084927fddf252ad1be2c89b69c2b068fc378daa952ba7f163c4a11628f55a4df523b3ef908390a45050565b60006001600160a01b0384163b15611fe257604051630a85bd0160e11b81526001600160a01b0385169063150b7a0290611f309033908990889088906004016130d2565b6020604051808303816000875af1925050508015611f6b575060408051601f3d908101601f19168201909252611f689181019061310f565b60015b611fc8573d808015611f99576040519150601f19603f3d011682016040523d82523d6000602084013e611f9e565b606091505b508051600003611fc05760405162461bcd60e51b815260040161081690612ea8565b805181602001fd5b6001600160e01b031916630a85bd0160e11b149050611622565b506001949350505050565b60606000611ffa83612338565b60010190506000816001600160401b0381111561201957612019612b0a565b6040519080825280601f01601f191660200182016040528015612043576020820181803683370190505b5090508181016020015b600019016f181899199a1a9b1b9c1cb0b131b232b360811b600a86061a8153600a850494508461204d57509392505050565b6060815160000361209e57505060408051602081019091526000815290565b600060405180606001604052806040815260200161316d60409139905060006003845160026120cd9190612e50565b6120d79190612d69565b6120e290600461312c565b6001600160401b038111156120f9576120f9612b0a565b6040519080825280601f01601f191660200182016040528015612123576020820181803683370190505b509050600182016020820185865187015b8082101561218f576003820191508151603f8160121c168501518453600184019350603f81600c1c168501518453600184019350603f8160061c168501518453600184019350603f8116850151845350600183019250612134565b50506003865106600181146121ab57600281146121be576121c6565b603d6001830353603d60028303536121c6565b603d60018303535b509195945050505050565b60018111156122405760405162461bcd60e51b815260206004820152603560248201527f455243373231456e756d657261626c653a20636f6e7365637574697665207472604482015274185b9cd9995c9cc81b9bdd081cdd5c1c1bdc9d1959605a1b6064820152608401610816565b816001600160a01b03851661229c5761229781600a80546000838152600b60205260408120829055600182018355919091527fc65a7bb8d6351c1cf70c95a316cc6a92839c986682d98bc35f958f4883f9d2a80155565b6122bf565b836001600160a01b0316856001600160a01b0316146122bf576122bf8582612410565b6001600160a01b0384166122db576122d6816124ad565b6122fe565b846001600160a01b0316846001600160a01b0316146122fe576122fe848261255c565b5050505050565b61230f83836125a0565b61231c6000848484611eec565b6108b75760405162461bcd60e51b815260040161081690612ea8565b60008072184f03e93ff9f4daa797ed6e38ed64bf6a1f0160401b83106123775772184f03e93ff9f4daa797ed6e38ed64bf6a1f0160401b830492506040015b6d04ee2d6d415b85acef810000000083106123a3576d04ee2d6d415b85acef8100000000830492506020015b662386f26fc1000083106123c157662386f26fc10000830492506010015b6305f5e10083106123d9576305f5e100830492506008015b61271083106123ed57612710830492506004015b606483106123ff576064830492506002015b600a83106106715760010192915050565b6000600161241d84610a91565b6124279190613143565b60008381526009602052604090205490915080821461247a576001600160a01b03841660009081526008602090815260408083208584528252808320548484528184208190558352600990915290208190555b5060009182526009602090815260408084208490556001600160a01b039094168352600881528383209183525290812055565b600a546000906124bf90600190613143565b6000838152600b6020526040812054600a80549394509092849081106124e7576124e7612c8c565b9060005260206000200154905080600a838154811061250857612508612c8c565b6000918252602080832090910192909255828152600b9091526040808220849055858252812055600a80548061254057612540613156565b6001900381819060005260206000200160009055905550505050565b600061256783610a91565b6001600160a01b039093166000908152600860209081526040808320868452825280832085905593825260099052919091209190915550565b6001600160a01b0382166125f65760405162461bcd60e51b815260206004820181905260248201527f4552433732313a206d696e7420746f20746865207a65726f20616464726573736044820152606401610816565b6125ff81611a85565b1561264c5760405162461bcd60e51b815260206004820152601c60248201527f4552433732313a20746f6b656e20616c7265616479206d696e746564000000006044820152606401610816565b61265a600083836001611d53565b61266381611a85565b156126b05760405162461bcd60e51b815260206004820152601c60248201527f4552433732313a20746f6b656e20616c7265616479206d696e746564000000006044820152606401610816565b6001600160a01b038216600081815260056020908152604080832080546001019055848352600490915280822080546001600160a01b0319168417905551839291907fddf252ad1be2c89b69c2b068fc378daa952ba7f163c4a11628f55a4df523b3ef908290a45050565b6001600160e01b0319811681146114c557600080fd5b60006020828403121561274357600080fd5b81356119c98161271b565b6020808252825182820181905260009190848201906040850190845b8181101561278a57835161ffff168352928401929184019160010161276a565b50909695505050505050565b60005b838110156127b1578181015183820152602001612799565b50506000910152565b600081518084526127d2816020860160208601612796565b601f01601f19169290920160200192915050565b6020815260006119c960208301846127ba565b60006020828403121561280b57600080fd5b5035919050565b80356001600160a01b038116811461282957600080fd5b919050565b6000806040838503121561284157600080fd5b61284a83612812565b946020939093013593505050565b60008060006060848603121561286d57600080fd5b61287684612812565b925061288460208501612812565b9150604084013590509250925092565b60008083601f8401126128a657600080fd5b5081356001600160401b038111156128bd57600080fd5b6020830191508360208285010111156128d557600080fd5b9250929050565b803561ffff8116811461282957600080fd5b60008060006040848603121561290357600080fd5b83356001600160401b0381111561291957600080fd5b61292586828701612894565b90945092506129389050602085016128dc565b90509250925092565b60006020828403121561295357600080fd5b6119c982612812565b602081526000825160a0602084015261297860c08401826127ba565b905060208401516040840152604084015160608401526001600160401b036060850151166080840152608084015160a08401528091505092915050565b6000602080830181845280855180835260408601915060408160051b870101925083870160005b82811015612a0a57603f198886030184526129f88583516127ba565b945092850192908501906001016129dc565b5092979650505050505050565b80151581146114c557600080fd5b60008060408385031215612a3857600080fd5b612a4183612812565b91506020830135612a5181612a17565b809150509250929050565b60008060408385031215612a6f57600080fd5b82359150612a7f602084016128dc565b90509250929050565b602081526000825160a06020840152612aa460c08401826127ba565b90506020840151601f1980858403016040860152612ac283836127ba565b9250604086015191508085840301606086015250612ae082826127ba565b9150506001600160401b036060850151166080840152608084015160a08401528091505092915050565b634e487b7160e01b600052604160045260246000fd5b604051601f8201601f191681016001600160401b0381118282101715612b4857612b48612b0a565b604052919050565b60006001600160401b03821115612b6957612b69612b0a565b50601f01601f191660200190565b60008060008060808587031215612b8d57600080fd5b612b9685612812565b9350612ba460208601612812565b92506040850135915060608501356001600160401b03811115612bc657600080fd5b8501601f81018713612bd757600080fd5b8035612bea612be582612b50565b612b20565b818152886020838501011115612bff57600080fd5b8160208401602083013760006020838301015280935050505092959194509250565b60008060408385031215612c3457600080fd5b612c3d83612812565b9150612a7f60208401612812565b60008060208385031215612c5e57600080fd5b82356001600160401b03811115612c7457600080fd5b612c8085828601612894565b90969095509350505050565b634e487b7160e01b600052603260045260246000fd5b600181811c90821680612cb657607f821691505b602082108103612cd657634e487b7160e01b600052602260045260246000fd5b50919050565b6020808252602d908201527f4552433732313a2063616c6c6572206973206e6f7420746f6b656e206f776e6560408201526c1c881bdc88185c1c1c9bdd9959609a1b606082015260800190565b634e487b7160e01b600052601260045260246000fd5b600082612d4e57612d4e612d29565b500690565b634e487b7160e01b600052601160045260246000fd5b600082612d7857612d78612d29565b500490565b600060208284031215612d8f57600080fd5b81516119c981612a17565b600060208284031215612dac57600080fd5b81516001600160401b03811115612dc257600080fd5b8201601f81018413612dd357600080fd5b8051612de1612be582612b50565b818152856020838501011115612df657600080fd5b612e07826020830160208601612796565b95945050505050565b60008251612e22818460208701612796565b9190910192915050565b80516020808301519190811015612cd65760001960209190910360031b1b16919050565b8082018082111561067157610671612d53565b60208082526025908201527f4552433732313a207472616e736665722066726f6d20696e636f72726563742060408201526437bbb732b960d91b606082015260800190565b60208082526032908201527f4552433732313a207472616e7366657220746f206e6f6e20455243373231526560408201527131b2b4bb32b91034b6b83632b6b2b73a32b960711b606082015260800190565b60008351612f0c818460208801612796565b835190830190612f20818360208801612796565b01949350505050565b6000610160808352612f55818401600b81526a3d9131b2b93a24b2111d1160a91b602082015260400190565b90508281036020840152612f6981896127ba565b90508281036040840152612f9981600f81526e1116101139b7bab931b2a4b2111d1160891b602082015260400190565b90508281036060840152612fad81886127ba565b83810360808501819052601082526f1116101134b9b9bab2a13ca4b2111d1160811b6020830152604090810160a0860152019050612feb81876127ba565b83810360c08501819052600d82526c111610113bb2b4b3b43a111d1160991b6020830152604090810160e086015201905061302681866127ba565b8381036101008501819052600b82526a111610113230ba32911d1160a91b6020830152604090810161012086015201905061306181856127ba565b8381036101408501526002815261227d60f01b602082015290506040810198975050505050505050565b60408152601d60408201527f646174613a6170706c69636174696f6e2f6a736f6e3b6261736536342c00000060608201526080602082015260006119c960808301846127ba565b6001600160a01b0385811682528416602082015260408101839052608060608201819052600090613105908301846127ba565b9695505050505050565b60006020828403121561312157600080fd5b81516119c98161271b565b808202811582820484141761067157610671612d53565b8181038181111561067157610671612d53565b634e487b7160e01b600052603160045260246000fdfe4142434445464748494a4b4c4d4e4f505152535455565758595a6162636465666768696a6b6c6d6e6f707172737475767778797a303132333435363738392b2fa2646970667358221220554d46d611383bcd8c10992285a6e39e04957be2d8bb66e0c49f7de0c2b9aa8864736f6c63430008110033",
  "linkReferences": {},
  "deployedLinkReferences": {}
}