{
  "_format": "hh-sol-artifact-1",
  "contractName": "CarbonCreditNFT",
  "sourceName": "contracts/hsnl-nft-carboncredit.sol",
  "abi": [
    {
      "inputs": [
        {
          "internalType": "string",
          "name": "name",
          "type": "string"
        },
        {
          "internalType": "string",
          "name": "symbol",
          "type": "string"
        },
        {
          "internalType": "uint256",
          "name": "maxSupply",
          "type": "uint256"
        }
      ],
      "stateMutability": "nonpayable",
      "type": "constructor"
    },
    {
      "anonymous": false,
      "inputs": [
        {
          "indexed": true,
          "internalType": "address",
          "name": "owner",
          "type": "address"
        },
        {
          "indexed": true,
          "internalType": "address",
          "name": "approved",
          "type": "address"
        },
        {
          "indexed": true,
          "internalType": "uint256",
          "name": "tokenId",
          "type": "uint256"
        }
      ],
      "name": "Approval",
      "type": "event"
    },
    {
      "anonymous": false,
      "inputs": [
        {
          "indexed": true,
          "internalType": "address",
          "name": "owner",
          "type": "address"
        },
        {
          "indexed": true,
          "internalType": "address",
          "name": "operator",
          "type": "address"
        },
        {
          "indexed": false,
          "internalType": "bool",
          "name": "approved",
          "type": "bool"
        }
      ],
      "name": "ApprovalForAll",
      "type": "event"
    },
    {
      "anonymous": false,
      "inputs": [
        {
          "indexed": true,
          "internalType": "address",
          "name": "previousOwner",
          "type": "address"
        },
        {
          "indexed": true,
          "internalType": "address",
          "name": "newOwner",
          "type": "address"
        }
      ],
      "name": "OwnershipTransferred",
      "type": "event"
    },
    {
      "anonymous": false,
      "inputs": [
        {
          "indexed": true,
          "internalType": "address",
          "name": "from",
          "type": "address"
        },
        {
          "indexed": true,
          "internalType": "address",
          "name": "to",
          "type": "address"
        },
        {
          "indexed": true,
          "internalType": "uint256",
          "name": "tokenId",
          "type": "uint256"
        }
      ],
      "name": "Transfer",
      "type": "event"
    },
    {
      "inputs": [
        {
          "internalType": "string",
          "name": "issueBy",
          "type": "string"
        }
      ],
      "name": "addIssueBy",
      "outputs": [
        {
          "internalType": "bool",
          "name": "",
          "type": "bool"
        }
      ],
      "stateMutability": "nonpayable",
      "type": "function"
    },
    {
      "inputs": [
        {
          "internalType": "string",
          "name": "source",
          "type": "string"
        }
      ],
      "name": "addSource",
      "outputs": [
        {
          "internalType": "bool",
          "name": "",
          "type": "bool"
        }
      ],
      "stateMutability": "nonpayable",
      "type": "function"
    },
    {
      "inputs": [
        {
          "internalType": "address",
          "name": "to",
          "type": "address"
        },
        {
          "internalType": "uint256",
          "name": "tokenId",
          "type": "uint256"
        }
      ],
      "name": "approve",
      "outputs": [],
      "stateMutability": "nonpayable",
      "type": "function"
    },
    {
      "inputs": [
        {
          "internalType": "address",
          "name": "owner",
          "type": "address"
        }
      ],
      "name": "balanceOf",
      "outputs": [
        {
          "internalType": "uint256",
          "name": "",
          "type": "uint256"
        }
      ],
      "stateMutability": "view",
      "type": "function"
    },
    {
      "inputs": [
        {
          "internalType": "uint256",
          "name": "tokenId",
          "type": "uint256"
        }
      ],
      "name": "burnToken",
      "outputs": [
        {
          "internalType": "bool",
          "name": "",
          "type": "bool"
        }
      ],
      "stateMutability": "nonpayable",
      "type": "function"
    },
    {
      "inputs": [
        {
          "internalType": "uint256",
          "name": "tokenId",
          "type": "uint256"
        }
      ],
      "name": "getApproved",
      "outputs": [
        {
          "internalType": "address",
          "name": "",
          "type": "address"
        }
      ],
      "stateMutability": "view",
      "type": "function"
    },
    {
      "inputs": [],
      "name": "getIssueByList",
      "outputs": [
        {
          "internalType": "string[]",
          "name": "",
          "type": "string[]"
        }
      ],
      "stateMutability": "view",
      "type": "function"
    },
    {
      "inputs": [],
      "name": "getSourceList",
      "outputs": [
        {
          "internalType": "string[]",
          "name": "",
          "type": "string[]"
        }
      ],
      "stateMutability": "view",
      "type": "function"
    },
    {
      "inputs": [
        {
          "internalType": "address",
          "name": "owner",
          "type": "address"
        },
        {
          "internalType": "address",
          "name": "operator",
          "type": "address"
        }
      ],
      "name": "isApprovedForAll",
      "outputs": [
        {
          "internalType": "bool",
          "name": "",
          "type": "bool"
        }
      ],
      "stateMutability": "view",
      "type": "function"
    },
    {
      "inputs": [
        {
          "internalType": "uint256",
          "name": "",
          "type": "uint256"
        }
      ],
      "name": "issueByList",
      "outputs": [
        {
          "internalType": "string",
          "name": "",
          "type": "string"
        }
      ],
      "stateMutability": "view",
      "type": "function"
    },
    {
      "inputs": [],
      "name": "maxTokenSupply",
      "outputs": [
        {
          "internalType": "uint256",
          "name": "",
          "type": "uint256"
        }
      ],
      "stateMutability": "view",
      "type": "function"
    },
    {
      "inputs": [
        {
          "components": [
            {
              "internalType": "string",
              "name": "certId",
              "type": "string"
            },
            {
              "internalType": "uint256",
              "name": "sourceId",
              "type": "uint256"
            },
            {
              "internalType": "uint256",
              "name": "issueById",
              "type": "uint256"
            },
            {
              "internalType": "uint64",
              "name": "weight",
              "type": "uint64"
            }
          ],
          "internalType": "struct CarbonCreditNFT.NewTokenData",
          "name": "_newTokenData",
          "type": "tuple"
        },
        {
          "internalType": "address",
          "name": "receiver",
          "type": "address"
        }
      ],
      "name": "mintToken",
      "outputs": [
        {
          "internalType": "bool",
          "name": "",
          "type": "bool"
        }
      ],
      "stateMutability": "nonpayable",
      "type": "function"
    },
    {
      "inputs": [],
      "name": "name",
      "outputs": [
        {
          "internalType": "string",
          "name": "",
          "type": "string"
        }
      ],
      "stateMutability": "view",
      "type": "function"
    },
    {
      "inputs": [],
      "name": "owner",
      "outputs": [
        {
          "internalType": "address",
          "name": "",
          "type": "address"
        }
      ],
      "stateMutability": "view",
      "type": "function"
    },
    {
      "inputs": [
        {
          "internalType": "uint256",
          "name": "tokenId",
          "type": "uint256"
        }
      ],
      "name": "ownerOf",
      "outputs": [
        {
          "internalType": "address",
          "name": "",
          "type": "address"
        }
      ],
      "stateMutability": "view",
      "type": "function"
    },
    {
      "inputs": [],
      "name": "renounceOwnership",
      "outputs": [],
      "stateMutability": "nonpayable",
      "type": "function"
    },
    {
      "inputs": [
        {
          "internalType": "address",
          "name": "from",
          "type": "address"
        },
        {
          "internalType": "address",
          "name": "to",
          "type": "address"
        },
        {
          "internalType": "uint256",
          "name": "tokenId",
          "type": "uint256"
        }
      ],
      "name": "safeTransferFrom",
      "outputs": [],
      "stateMutability": "nonpayable",
      "type": "function"
    },
    {
      "inputs": [
        {
          "internalType": "address",
          "name": "from",
          "type": "address"
        },
        {
          "internalType": "address",
          "name": "to",
          "type": "address"
        },
        {
          "internalType": "uint256",
          "name": "tokenId",
          "type": "uint256"
        },
        {
          "internalType": "bytes",
          "name": "data",
          "type": "bytes"
        }
      ],
      "name": "safeTransferFrom",
      "outputs": [],
      "stateMutability": "nonpayable",
      "type": "function"
    },
    {
      "inputs": [
        {
          "internalType": "address",
          "name": "operator",
          "type": "address"
        },
        {
          "internalType": "bool",
          "name": "approved",
          "type": "bool"
        }
      ],
      "name": "setApprovalForAll",
      "outputs": [],
      "stateMutability": "nonpayable",
      "type": "function"
    },
    {
      "inputs": [
        {
          "internalType": "uint256",
          "name": "",
          "type": "uint256"
        }
      ],
      "name": "sourceList",
      "outputs": [
        {
          "internalType": "string",
          "name": "",
          "type": "string"
        }
      ],
      "stateMutability": "view",
      "type": "function"
    },
    {
      "inputs": [
        {
          "internalType": "bytes4",
          "name": "interfaceId",
          "type": "bytes4"
        }
      ],
      "name": "supportsInterface",
      "outputs": [
        {
          "internalType": "bool",
          "name": "",
          "type": "bool"
        }
      ],
      "stateMutability": "view",
      "type": "function"
    },
    {
      "inputs": [],
      "name": "symbol",
      "outputs": [
        {
          "internalType": "string",
          "name": "",
          "type": "string"
        }
      ],
      "stateMutability": "view",
      "type": "function"
    },
    {
      "inputs": [
        {
          "internalType": "uint256",
          "name": "index",
          "type": "uint256"
        }
      ],
      "name": "tokenByIndex",
      "outputs": [
        {
          "internalType": "uint256",
          "name": "",
          "type": "uint256"
        }
      ],
      "stateMutability": "view",
      "type": "function"
    },
    {
      "inputs": [
        {
          "internalType": "address",
          "name": "owner",
          "type": "address"
        },
        {
          "internalType": "uint256",
          "name": "index",
          "type": "uint256"
        }
      ],
      "name": "tokenOfOwnerByIndex",
      "outputs": [
        {
          "internalType": "uint256",
          "name": "",
          "type": "uint256"
        }
      ],
      "stateMutability": "view",
      "type": "function"
    },
    {
      "inputs": [
        {
          "internalType": "uint256",
          "name": "tokenId",
          "type": "uint256"
        }
      ],
      "name": "tokenURI",
      "outputs": [
        {
          "internalType": "string",
          "name": "",
          "type": "string"
        }
      ],
      "stateMutability": "view",
      "type": "function"
    },
    {
      "inputs": [],
      "name": "totalSupply",
      "outputs": [
        {
          "internalType": "uint256",
          "name": "",
          "type": "uint256"
        }
      ],
      "stateMutability": "view",
      "type": "function"
    },
    {
      "inputs": [
        {
          "internalType": "address",
          "name": "from",
          "type": "address"
        },
        {
          "internalType": "address",
          "name": "to",
          "type": "address"
        },
        {
          "internalType": "uint256",
          "name": "tokenId",
          "type": "uint256"
        }
      ],
      "name": "transferFrom",
      "outputs": [],
      "stateMutability": "nonpayable",
      "type": "function"
    },
    {
      "inputs": [
        {
          "internalType": "address",
          "name": "newOwner",
          "type": "address"
        }
      ],
      "name": "transferOwnership",
      "outputs": [],
      "stateMutability": "nonpayable",
      "type": "function"
    }
  ],
  "bytecode": "0x60a06040523480156200001157600080fd5b5060405162002e9038038062002e90833981016040819052620000349162000189565b60016000558282620000463362000072565b60026200005483826200028b565b5060036200006382826200028b565b50505060805250620003579050565b600180546001600160a01b038381166001600160a01b0319831681179093556040519116919082907f8be0079c531659141344cd1fd0a4f28419497f9722a3daafe3b4186f6b6457e090600090a35050565b634e487b7160e01b600052604160045260246000fd5b600082601f830112620000ec57600080fd5b81516001600160401b0380821115620001095762000109620000c4565b604051601f8301601f19908116603f01168101908282118183101715620001345762000134620000c4565b816040528381526020925086838588010111156200015157600080fd5b600091505b8382101562000175578582018301518183018401529082019062000156565b600093810190920192909252949350505050565b6000806000606084860312156200019f57600080fd5b83516001600160401b0380821115620001b757600080fd5b620001c587838801620000da565b94506020860151915080821115620001dc57600080fd5b50620001eb86828701620000da565b925050604084015190509250925092565b600181811c908216806200021157607f821691505b6020821081036200023257634e487b7160e01b600052602260045260246000fd5b50919050565b601f8211156200028657600081815260208120601f850160051c81016020861015620002615750805b601f850160051c820191505b8181101562000282578281556001016200026d565b5050505b505050565b81516001600160401b03811115620002a757620002a7620000c4565b620002bf81620002b88454620001fc565b8462000238565b602080601f831160018114620002f75760008415620002de5750858301515b600019600386901b1c1916600185901b17855562000282565b600085815260208120601f198616915b82811015620003285788860151825594840194600190910190840162000307565b5085821015620003475787850151600019600388901b60f8161c191681555b5050505050600190811b01905550565b608051612b166200037a600039600081816102bc01526111300152612b166000f3fe608060405234801561001057600080fd5b50600436106101c45760003560e01c8063715018a6116100f9578063b88d4fde11610097578063e985e9c511610071578063e985e9c5146103b4578063ed62d2ff146103f0578063f2fde38b14610403578063fcc9aa8d1461041657600080fd5b8063b88d4fde14610386578063c87b56dd14610399578063cb5d372a146103ac57600080fd5b80638f75c9c1116100d35780638f75c9c11461034357806395d89b4114610358578063a22cb46514610360578063aec0be131461037357600080fd5b8063715018a6146103175780637b47ec1a1461031f5780638da5cb5b1461033257600080fd5b80632f745c591161016657806350f7c2041161014057806350f7c204146102b75780636352211e146102de57806368f95d07146102f157806370a082311461030457600080fd5b80632f745c591461027e57806342842e0e146102915780634f6ccce7146102a457600080fd5b8063095ea7b3116101a2578063095ea7b31461023157806318160ddd1461024657806323b872dd1461025857806327bb9ede1461026b57600080fd5b806301ffc9a7146101c957806306fdde03146101f1578063081812fc14610206575b600080fd5b6101dc6101d736600461221b565b610429565b60405190151581526020015b60405180910390f35b6101f961043a565b6040516101e89190612288565b61021961021436600461229b565b6104cc565b6040516001600160a01b0390911681526020016101e8565b61024461023f3660046122cb565b6104f3565b005b600a545b6040519081526020016101e8565b6102446102663660046122f5565b61060d565b6101dc610279366004612331565b61063e565b61024a61028c3660046122cb565b610747565b61024461029f3660046122f5565b6107dd565b61024a6102b236600461229b565b6107f8565b61024a7f000000000000000000000000000000000000000000000000000000000000000081565b6102196102ec36600461229b565b61088b565b6101dc6102ff3660046123a2565b6108eb565b61024a6103123660046123f4565b610906565b61024461098c565b6101dc61032d36600461229b565b6109a0565b6001546001600160a01b0316610219565b61034b6109ab565b6040516101e8919061240f565b6101f9610a84565b61024461036e366004612471565b610a93565b6101f961038136600461229b565b610aa2565b6102446103943660046124c3565b610b4e565b6101f96103a736600461229b565b610b87565b61034b610b92565b6101dc6103c236600461259e565b6001600160a01b03918216600090815260076020908152604080832093909416825291909152205460ff1690565b6101dc6103fe366004612331565b610c62565b6102446104113660046123f4565b610d5f565b6101f961042436600461229b565b610dd8565b600061043482610de8565b92915050565b606060028054610449906125ba565b80601f0160208091040260200160405190810160405280929190818152602001828054610475906125ba565b80156104c25780601f10610497576101008083540402835291602001916104c2565b820191906000526020600020905b8154815290600101906020018083116104a557829003601f168201915b5050505050905090565b60006104d782610e0d565b506000908152600660205260409020546001600160a01b031690565b60006104fe8261088b565b9050806001600160a01b0316836001600160a01b0316036105705760405162461bcd60e51b815260206004820152602160248201527f4552433732313a20617070726f76616c20746f2063757272656e74206f776e656044820152603960f91b60648201526084015b60405180910390fd5b336001600160a01b038216148061058c575061058c81336103c2565b6105fe5760405162461bcd60e51b815260206004820152603d60248201527f4552433732313a20617070726f76652063616c6c6572206973206e6f7420746f60448201527f6b656e206f776e6572206f7220617070726f76656420666f7220616c6c0000006064820152608401610567565b6106088383610e6c565b505050565b6106173382610eda565b6106335760405162461bcd60e51b8152600401610567906125f4565b610608838383610f59565b60006106486110ca565b816106a45760405162461bcd60e51b815260206004820152602660248201527f4e657720656c656d656e74206069737375654279602063616e206e6f7420626560448201526520656d70747960d01b6064820152608401610567565b60408211156107005760405162461bcd60e51b815260206004820152602260248201527f4e657720656c656d656e742060697373756542796020697320746f6f206c6f6e604482015261339760f11b6064820152608401610567565b600d80546001810182556000919091527fd7b6990105719101dabeb77144f2a3385c8033acd3af97e9423a695e81ad1eb50161073d83858361268f565b5060019392505050565b600061075283610906565b82106107b45760405162461bcd60e51b815260206004820152602b60248201527f455243373231456e756d657261626c653a206f776e657220696e646578206f7560448201526a74206f6620626f756e647360a81b6064820152608401610567565b506001600160a01b03919091166000908152600860209081526040808320938352929052205490565b61060883838360405180602001604052806000815250610b4e565b6000610803600a5490565b82106108665760405162461bcd60e51b815260206004820152602c60248201527f455243373231456e756d657261626c653a20676c6f62616c20696e646578206f60448201526b7574206f6620626f756e647360a01b6064820152608401610567565b600a82815481106108795761087961274e565b90600052602060002001549050919050565b6000818152600460205260408120546001600160a01b0316806104345760405162461bcd60e51b8152602060048201526018602482015277115490cdcc8c4e881a5b9d985b1a59081d1bdad95b88125160421b6044820152606401610567565b60006108f56110ca565b6108ff8383611124565b9392505050565b60006001600160a01b0382166109705760405162461bcd60e51b815260206004820152602960248201527f4552433732313a2061646472657373207a65726f206973206e6f7420612076616044820152683634b21037bbb732b960b91b6064820152608401610567565b506001600160a01b031660009081526005602052604090205490565b6109946110ca565b61099e60006111d3565b565b600061043482611225565b6060600d805480602002602001604051908101604052809291908181526020016000905b82821015610a7b5783829060005260206000200180546109ee906125ba565b80601f0160208091040260200160405190810160405280929190818152602001828054610a1a906125ba565b8015610a675780601f10610a3c57610100808354040283529160200191610a67565b820191906000526020600020905b815481529060010190602001808311610a4a57829003601f168201915b5050505050815260200190600101906109cf565b50505050905090565b606060038054610449906125ba565b610a9e33838361129f565b5050565b600c8181548110610ab257600080fd5b906000526020600020016000915090508054610acd906125ba565b80601f0160208091040260200160405190810160405280929190818152602001828054610af9906125ba565b8015610b465780601f10610b1b57610100808354040283529160200191610b46565b820191906000526020600020905b815481529060010190602001808311610b2957829003601f168201915b505050505081565b610b59335b83610eda565b610b755760405162461bcd60e51b8152600401610567906125f4565b610b818484848461136d565b50505050565b6060610434826113a0565b6060600c805480602002602001604051908101604052809291908181526020016000905b82821015610a7b578382906000526020600020018054610bd5906125ba565b80601f0160208091040260200160405190810160405280929190818152602001828054610c01906125ba565b8015610c4e5780601f10610c2357610100808354040283529160200191610c4e565b820191906000526020600020905b815481529060010190602001808311610c3157829003601f168201915b505050505081526020019060010190610bb6565b6000610c6c6110ca565b81610cc75760405162461bcd60e51b815260206004820152602560248201527f4e657720656c656d656e742060736f75726365602063616e206e6f7420626520604482015264656d70747960d81b6064820152608401610567565b6040821115610d225760405162461bcd60e51b815260206004820152602160248201527f4e657720656c656d656e742060736f757263656020697320746f6f206c6f6e676044820152601760f91b6064820152608401610567565b600c80546001810182556000919091527fdf6966c971051c3d54ec59162606531493a51404a002842f56009d7e5cf4a8c70161073d83858361268f565b610d676110ca565b6001600160a01b038116610dcc5760405162461bcd60e51b815260206004820152602660248201527f4f776e61626c653a206e6577206f776e657220697320746865207a65726f206160448201526564647265737360d01b6064820152608401610567565b610dd5816111d3565b50565b600d8181548110610ab257600080fd5b60006001600160e01b0319821663780e9d6360e01b148061043457506104348261151f565b6000818152600460205260409020546001600160a01b0316610dd55760405162461bcd60e51b8152602060048201526018602482015277115490cdcc8c4e881a5b9d985b1a59081d1bdad95b88125160421b6044820152606401610567565b600081815260066020526040902080546001600160a01b0319166001600160a01b0384169081179091558190610ea18261088b565b6001600160a01b03167f8c5be1e5ebec7d5bd14f71427d1e84f3dd0314c0f7b2291e5b200ac8c7c3b92560405160405180910390a45050565b600080610ee68361088b565b9050806001600160a01b0316846001600160a01b03161480610f2d57506001600160a01b0380821660009081526007602090815260408083209388168352929052205460ff165b80610f515750836001600160a01b0316610f46846104cc565b6001600160a01b0316145b949350505050565b826001600160a01b0316610f6c8261088b565b6001600160a01b031614610f925760405162461bcd60e51b815260040161056790612764565b6001600160a01b038216610ff45760405162461bcd60e51b8152602060048201526024808201527f4552433732313a207472616e7366657220746f20746865207a65726f206164646044820152637265737360e01b6064820152608401610567565b611001838383600161156f565b826001600160a01b03166110148261088b565b6001600160a01b03161461103a5760405162461bcd60e51b815260040161056790612764565b600081815260066020908152604080832080546001600160a01b03199081169091556001600160a01b0387811680865260058552838620805460001901905590871680865283862080546001019055868652600490945282852080549092168417909155905184937fddf252ad1be2c89b69c2b068fc378daa952ba7f163c4a11628f55a4df523b3ef91a4505050565b6001546001600160a01b0316331461099e5760405162461bcd60e51b815260206004820181905260248201527f4f776e61626c653a2063616c6c6572206973206e6f7420746865206f776e65726044820152606401610567565b600061112e61157b565b7f0000000000000000000000000000000000000000000000000000000000000000611158600a5490565b106111a55760405162461bcd60e51b815260206004820152601e60248201527f54686572652061726520746f6f206d616e79206d696e746564204e46542e00006044820152606401610567565b600e8054600181019091556111ba83826115d4565b6111c481856115ee565b60019150506104346001600055565b600180546001600160a01b038381166001600160a01b0319831681179093556040519116919082907f8be0079c531659141344cd1fd0a4f28419497f9722a3daafe3b4186f6b6457e090600090a35050565b600061122f61157b565b61123833610b53565b6112845760405162461bcd60e51b815260206004820152601960248201527f596f752063616e6e6f74206275726e2074686973204e46542e000000000000006044820152606401610567565b61128d826117d1565b50600161129a6001600055565b919050565b816001600160a01b0316836001600160a01b0316036113005760405162461bcd60e51b815260206004820152601960248201527f4552433732313a20617070726f766520746f2063616c6c6572000000000000006044820152606401610567565b6001600160a01b03838116600081815260076020908152604080832094871680845294825291829020805460ff191686151590811790915591519182527f17307eab39ab6107e8899845ad3d59bd9653f200f220920489ca2b5937696c31910160405180910390a3505050565b611378848484610f59565b61138484848484611833565b610b815760405162461bcd60e51b8152600401610567906127a9565b60606000600f60008481526020019081526020016000206040518060a00160405290816000820180546113d2906125ba565b80601f01602080910402602001604051908101604052809291908181526020018280546113fe906125ba565b801561144b5780601f106114205761010080835404028352916020019161144b565b820191906000526020600020905b81548152906001019060200180831161142e57829003601f168201915b505050918352505060018201546020808301919091526002830154604083015260038301546001600160401b031660608301526004909201546080909101528151908201519192506114f8916114a090611934565b6114ad8460400151611934565b6114c385606001516001600160401b0316611934565b6114d08660800151611934565b6040516020016114e49594939291906127fb565b6040516020818303038152906040526119c6565b6040516020016115089190612900565b604051602081830303815290604052915050919050565b60006001600160e01b031982166380ac58cd60e01b148061155057506001600160e01b03198216635b5e139f60e01b145b8061043457506301ffc9a760e01b6001600160e01b0319831614610434565b610b8184848484611b18565b6002600054036115cd5760405162461bcd60e51b815260206004820152601f60248201527f5265656e7472616e637947756172643a207265656e7472616e742063616c6c006044820152606401610567565b6002600055565b610a9e828260405180602001604052806000815250611c58565b6000828152600460205260409020546001600160a01b03166116695760405162461bcd60e51b815260206004820152602e60248201527f45524337323155524953746f726167653a2055524920736574206f66206e6f6e60448201526d32bc34b9ba32b73a103a37b5b2b760911b6064820152608401610567565b60406116758280612945565b905011156116d55760405162461bcd60e51b815260206004820152602760248201527f4e6577206d696e74696e67204e4654277320606365727449646020697320746f60448201526637903637b7339760c91b6064820152608401610567565b6000196001600160401b03806116f16080850160608601612992565b6001600160401b031611156117575760405162461bcd60e51b815260206004820152602660248201527f4e6577206d696e74696e67204e4654277320607765696768746020697320746f60448201526537903134b39760d11b6064820152608401610567565b6000848152600f6020526040902061176f8480612945565b829161177c91908361268f565b5060208401356001820155604084013560028201556117a16080850160608601612992565b60038201805467ffffffffffffffff19166001600160401b03929092169190911790554260049091015550505050565b6117da81611c8b565b6000818152600f60205260409020805481906117f5906125ba565b159050611807576118078160006121b7565b6000600182018190556002820181905560038201805467ffffffffffffffff1916905560049091015550565b60006001600160a01b0384163b1561192957604051630a85bd0160e11b81526001600160a01b0385169063150b7a02906118779033908990889088906004016129bb565b6020604051808303816000875af19250505080156118b2575060408051601f3d908101601f191682019092526118af918101906129f8565b60015b61190f573d8080156118e0576040519150601f19603f3d011682016040523d82523d6000602084013e6118e5565b606091505b5080516000036119075760405162461bcd60e51b8152600401610567906127a9565b805181602001fd5b6001600160e01b031916630a85bd0160e11b149050610f51565b506001949350505050565b6060600061194183611d2e565b60010190506000816001600160401b03811115611960576119606124ad565b6040519080825280601f01601f19166020018201604052801561198a576020820181803683370190505b5090508181016020015b600019016f181899199a1a9b1b9c1cb0b131b232b360811b600a86061a8153600a850494508461199457509392505050565b606081516000036119e557505060408051602081019091526000815290565b6000604051806060016040528060408152602001612aa16040913990506000600384516002611a149190612a2b565b611a1e9190612a3e565b611a29906004612a60565b6001600160401b03811115611a4057611a406124ad565b6040519080825280601f01601f191660200182016040528015611a6a576020820181803683370190505b509050600182016020820185865187015b80821015611ad6576003820191508151603f8160121c168501518453600184019350603f81600c1c168501518453600184019350603f8160061c168501518453600184019350603f8116850151845350600183019250611a7b565b5050600386510660018114611af25760028114611b0557611b0d565b603d6001830353603d6002830353611b0d565b603d60018303535b509195945050505050565b611b2484848484611e06565b6001811115611b935760405162461bcd60e51b815260206004820152603560248201527f455243373231456e756d657261626c653a20636f6e7365637574697665207472604482015274185b9cd9995c9cc81b9bdd081cdd5c1c1bdc9d1959605a1b6064820152608401610567565b816001600160a01b038516611bef57611bea81600a80546000838152600b60205260408120829055600182018355919091527fc65a7bb8d6351c1cf70c95a316cc6a92839c986682d98bc35f958f4883f9d2a80155565b611c12565b836001600160a01b0316856001600160a01b031614611c1257611c128582611e8e565b6001600160a01b038416611c2e57611c2981611f2b565b611c51565b846001600160a01b0316846001600160a01b031614611c5157611c518482611fda565b5050505050565b611c62838361201e565b611c6f6000848484611833565b6106085760405162461bcd60e51b8152600401610567906127a9565b6000611c968261088b565b9050611ca681600084600161156f565b611caf8261088b565b600083815260066020908152604080832080546001600160a01b03199081169091556001600160a01b0385168085526005845282852080546000190190558785526004909352818420805490911690555192935084927fddf252ad1be2c89b69c2b068fc378daa952ba7f163c4a11628f55a4df523b3ef908390a45050565b60008072184f03e93ff9f4daa797ed6e38ed64bf6a1f0160401b8310611d6d5772184f03e93ff9f4daa797ed6e38ed64bf6a1f0160401b830492506040015b6d04ee2d6d415b85acef81000000008310611d99576d04ee2d6d415b85acef8100000000830492506020015b662386f26fc100008310611db757662386f26fc10000830492506010015b6305f5e1008310611dcf576305f5e100830492506008015b6127108310611de357612710830492506004015b60648310611df5576064830492506002015b600a83106104345760010192915050565b6001811115610b81576001600160a01b03841615611e4c576001600160a01b03841660009081526005602052604081208054839290611e46908490612a77565b90915550505b6001600160a01b03831615610b81576001600160a01b03831660009081526005602052604081208054839290611e83908490612a2b565b909155505050505050565b60006001611e9b84610906565b611ea59190612a77565b600083815260096020526040902054909150808214611ef8576001600160a01b03841660009081526008602090815260408083208584528252808320548484528184208190558352600990915290208190555b5060009182526009602090815260408084208490556001600160a01b039094168352600881528383209183525290812055565b600a54600090611f3d90600190612a77565b6000838152600b6020526040812054600a8054939450909284908110611f6557611f6561274e565b9060005260206000200154905080600a8381548110611f8657611f8661274e565b6000918252602080832090910192909255828152600b9091526040808220849055858252812055600a805480611fbe57611fbe612a8a565b6001900381819060005260206000200160009055905550505050565b6000611fe583610906565b6001600160a01b039093166000908152600860209081526040808320868452825280832085905593825260099052919091209190915550565b6001600160a01b0382166120745760405162461bcd60e51b815260206004820181905260248201527f4552433732313a206d696e7420746f20746865207a65726f20616464726573736044820152606401610567565b6000818152600460205260409020546001600160a01b0316156120d95760405162461bcd60e51b815260206004820152601c60248201527f4552433732313a20746f6b656e20616c7265616479206d696e746564000000006044820152606401610567565b6120e760008383600161156f565b6000818152600460205260409020546001600160a01b03161561214c5760405162461bcd60e51b815260206004820152601c60248201527f4552433732313a20746f6b656e20616c7265616479206d696e746564000000006044820152606401610567565b6001600160a01b038216600081815260056020908152604080832080546001019055848352600490915280822080546001600160a01b0319168417905551839291907fddf252ad1be2c89b69c2b068fc378daa952ba7f163c4a11628f55a4df523b3ef908290a45050565b5080546121c3906125ba565b6000825580601f106121d3575050565b601f016020900490600052602060002090810190610dd591905b8082111561220157600081556001016121ed565b5090565b6001600160e01b031981168114610dd557600080fd5b60006020828403121561222d57600080fd5b81356108ff81612205565b60005b8381101561225357818101518382015260200161223b565b50506000910152565b60008151808452612274816020860160208601612238565b601f01601f19169290920160200192915050565b6020815260006108ff602083018461225c565b6000602082840312156122ad57600080fd5b5035919050565b80356001600160a01b038116811461129a57600080fd5b600080604083850312156122de57600080fd5b6122e7836122b4565b946020939093013593505050565b60008060006060848603121561230a57600080fd5b612313846122b4565b9250612321602085016122b4565b9150604084013590509250925092565b6000806020838503121561234457600080fd5b82356001600160401b038082111561235b57600080fd5b818501915085601f83011261236f57600080fd5b81358181111561237e57600080fd5b86602082850101111561239057600080fd5b60209290920196919550909350505050565b600080604083850312156123b557600080fd5b82356001600160401b038111156123cb57600080fd5b8301608081860312156123dd57600080fd5b91506123eb602084016122b4565b90509250929050565b60006020828403121561240657600080fd5b6108ff826122b4565b6000602080830181845280855180835260408601915060408160051b870101925083870160005b8281101561246457603f1988860301845261245285835161225c565b94509285019290850190600101612436565b5092979650505050505050565b6000806040838503121561248457600080fd5b61248d836122b4565b9150602083013580151581146124a257600080fd5b809150509250929050565b634e487b7160e01b600052604160045260246000fd5b600080600080608085870312156124d957600080fd5b6124e2856122b4565b93506124f0602086016122b4565b92506040850135915060608501356001600160401b038082111561251357600080fd5b818701915087601f83011261252757600080fd5b813581811115612539576125396124ad565b604051601f8201601f19908116603f01168101908382118183101715612561576125616124ad565b816040528281528a602084870101111561257a57600080fd5b82602086016020830137600060208483010152809550505050505092959194509250565b600080604083850312156125b157600080fd5b6123dd836122b4565b600181811c908216806125ce57607f821691505b6020821081036125ee57634e487b7160e01b600052602260045260246000fd5b50919050565b6020808252602d908201527f4552433732313a2063616c6c6572206973206e6f7420746f6b656e206f776e6560408201526c1c881bdc88185c1c1c9bdd9959609a1b606082015260800190565b601f82111561060857600081815260208120601f850160051c810160208610156126685750805b601f850160051c820191505b8181101561268757828155600101612674565b505050505050565b6001600160401b038311156126a6576126a66124ad565b6126ba836126b483546125ba565b83612641565b6000601f8411600181146126ee57600085156126d65750838201355b600019600387901b1c1916600186901b178355611c51565b600083815260209020601f19861690835b8281101561271f57868501358255602094850194600190920191016126ff565b508682101561273c5760001960f88860031b161c19848701351681555b505060018560011b0183555050505050565b634e487b7160e01b600052603260045260246000fd5b60208082526025908201527f4552433732313a207472616e736665722066726f6d20696e636f72726563742060408201526437bbb732b960d91b606082015260800190565b60208082526032908201527f4552433732313a207472616e7366657220746f206e6f6e20455243373231526560408201527131b2b4bb32b91034b6b83632b6b2b73a32b960711b606082015260800190565b6a3d9131b2b93a24b2111d1160a91b8152855160009061282281600b850160208b01612238565b6e1116101139b7bab931b2a4b2111d1160891b600b91840191820152865161285181601a840160208b01612238565b6f1116101134b9b9bab2a13ca4b2111d1160811b601a9290910191820152855161288281602a840160208a01612238565b6c111610113bb2b4b3b43a111d1160991b602a929091019182015284516128b0816037840160208901612238565b6a111610113230ba32911d1160a91b6037929091019182015283516128dc816042840160208801612238565b6128f360428284010161227d60f01b815260020190565b9998505050505050505050565b7f646174613a6170706c69636174696f6e2f6a736f6e3b6261736536342c00000081526000825161293881601d850160208701612238565b91909101601d0192915050565b6000808335601e1984360301811261295c57600080fd5b8301803591506001600160401b0382111561297657600080fd5b60200191503681900382131561298b57600080fd5b9250929050565b6000602082840312156129a457600080fd5b81356001600160401b03811681146108ff57600080fd5b6001600160a01b03858116825284166020820152604081018390526080606082018190526000906129ee9083018461225c565b9695505050505050565b600060208284031215612a0a57600080fd5b81516108ff81612205565b634e487b7160e01b600052601160045260246000fd5b8082018082111561043457610434612a15565b600082612a5b57634e487b7160e01b600052601260045260246000fd5b500490565b808202811582820484141761043457610434612a15565b8181038181111561043457610434612a15565b634e487b7160e01b600052603160045260246000fdfe4142434445464748494a4b4c4d4e4f505152535455565758595a6162636465666768696a6b6c6d6e6f707172737475767778797a303132333435363738392b2fa264697066735822122046950853ea3c6cd0c1a62569fb953e037d023d4fa70ed9ea9d0a635992fc86ce64736f6c63430008110033",
  "linkReferences": {},
  "deployedLinkReferences": {}
}