{
  "_format": "hh-sol-artifact-1",
  "contractName": "CarbonCreditNFT",
  "sourceName": "contracts/nft/CarbonCreditNFT.sol",
  "abi": [
    {
      "inputs": [
        {
          "internalType": "string",
          "name": "name",
          "type": "string"
        },
        {
          "internalType": "string",
          "name": "symbol",
          "type": "string"
        }
      ],
      "stateMutability": "nonpayable",
      "type": "constructor"
    },
    {
      "anonymous": false,
      "inputs": [
        {
          "indexed": true,
          "internalType": "address",
          "name": "owner",
          "type": "address"
        },
        {
          "indexed": true,
          "internalType": "address",
          "name": "approved",
          "type": "address"
        },
        {
          "indexed": true,
          "internalType": "uint256",
          "name": "tokenId",
          "type": "uint256"
        }
      ],
      "name": "Approval",
      "type": "event"
    },
    {
      "anonymous": false,
      "inputs": [
        {
          "indexed": true,
          "internalType": "address",
          "name": "owner",
          "type": "address"
        },
        {
          "indexed": true,
          "internalType": "address",
          "name": "operator",
          "type": "address"
        },
        {
          "indexed": false,
          "internalType": "bool",
          "name": "approved",
          "type": "bool"
        }
      ],
      "name": "ApprovalForAll",
      "type": "event"
    },
    {
      "anonymous": false,
      "inputs": [
        {
          "indexed": false,
          "internalType": "uint256",
          "name": "_fromTokenId",
          "type": "uint256"
        },
        {
          "indexed": false,
          "internalType": "uint256",
          "name": "_toTokenId",
          "type": "uint256"
        }
      ],
      "name": "BatchMetadataUpdate",
      "type": "event"
    },
    {
      "anonymous": false,
      "inputs": [
        {
          "indexed": false,
          "internalType": "uint256",
          "name": "_tokenId",
          "type": "uint256"
        }
      ],
      "name": "MetadataUpdate",
      "type": "event"
    },
    {
      "anonymous": false,
      "inputs": [
        {
          "indexed": true,
          "internalType": "address",
          "name": "previousOwner",
          "type": "address"
        },
        {
          "indexed": true,
          "internalType": "address",
          "name": "newOwner",
          "type": "address"
        }
      ],
      "name": "OwnershipTransferred",
      "type": "event"
    },
    {
      "anonymous": false,
      "inputs": [
        {
          "indexed": true,
          "internalType": "address",
          "name": "from",
          "type": "address"
        },
        {
          "indexed": true,
          "internalType": "address",
          "name": "to",
          "type": "address"
        },
        {
          "indexed": true,
          "internalType": "uint256",
          "name": "tokenId",
          "type": "uint256"
        }
      ],
      "name": "Transfer",
      "type": "event"
    },
    {
      "inputs": [
        {
          "internalType": "string",
          "name": "issueBy",
          "type": "string"
        },
        {
          "internalType": "uint16",
          "name": "ratio",
          "type": "uint16"
        }
      ],
      "name": "addIssueBy",
      "outputs": [
        {
          "internalType": "bool",
          "name": "",
          "type": "bool"
        }
      ],
      "stateMutability": "nonpayable",
      "type": "function"
    },
    {
      "inputs": [
        {
          "internalType": "string",
          "name": "source",
          "type": "string"
        }
      ],
      "name": "addSource",
      "outputs": [
        {
          "internalType": "bool",
          "name": "",
          "type": "bool"
        }
      ],
      "stateMutability": "nonpayable",
      "type": "function"
    },
    {
      "inputs": [
        {
          "internalType": "address",
          "name": "to",
          "type": "address"
        },
        {
          "internalType": "uint256",
          "name": "tokenId",
          "type": "uint256"
        }
      ],
      "name": "approve",
      "outputs": [],
      "stateMutability": "nonpayable",
      "type": "function"
    },
    {
      "inputs": [
        {
          "internalType": "address",
          "name": "owner",
          "type": "address"
        }
      ],
      "name": "balanceOf",
      "outputs": [
        {
          "internalType": "uint256",
          "name": "",
          "type": "uint256"
        }
      ],
      "stateMutability": "view",
      "type": "function"
    },
    {
      "inputs": [
        {
          "internalType": "uint256",
          "name": "tokenId",
          "type": "uint256"
        }
      ],
      "name": "burnToken",
      "outputs": [
        {
          "internalType": "bool",
          "name": "",
          "type": "bool"
        }
      ],
      "stateMutability": "nonpayable",
      "type": "function"
    },
    {
      "inputs": [],
      "name": "currTokenId",
      "outputs": [
        {
          "internalType": "uint256",
          "name": "",
          "type": "uint256"
        }
      ],
      "stateMutability": "view",
      "type": "function"
    },
    {
      "inputs": [
        {
          "internalType": "uint256",
          "name": "issueById",
          "type": "uint256"
        }
      ],
      "name": "delIssueBy",
      "outputs": [
        {
          "internalType": "bool",
          "name": "",
          "type": "bool"
        }
      ],
      "stateMutability": "nonpayable",
      "type": "function"
    },
    {
      "inputs": [
        {
          "internalType": "uint256",
          "name": "sourceId",
          "type": "uint256"
        }
      ],
      "name": "delSource",
      "outputs": [
        {
          "internalType": "bool",
          "name": "",
          "type": "bool"
        }
      ],
      "stateMutability": "nonpayable",
      "type": "function"
    },
    {
      "inputs": [
        {
          "internalType": "uint256",
          "name": "tokenId",
          "type": "uint256"
        }
      ],
      "name": "getApproved",
      "outputs": [
        {
          "internalType": "address",
          "name": "",
          "type": "address"
        }
      ],
      "stateMutability": "view",
      "type": "function"
    },
    {
      "inputs": [],
      "name": "getIssueByList",
      "outputs": [
        {
          "internalType": "string[]",
          "name": "",
          "type": "string[]"
        }
      ],
      "stateMutability": "view",
      "type": "function"
    },
    {
      "inputs": [
        {
          "internalType": "uint256",
          "name": "issueById",
          "type": "uint256"
        }
      ],
      "name": "getRatio",
      "outputs": [
        {
          "internalType": "uint16",
          "name": "",
          "type": "uint16"
        }
      ],
      "stateMutability": "view",
      "type": "function"
    },
    {
      "inputs": [],
      "name": "getRatioList",
      "outputs": [
        {
          "internalType": "uint16[]",
          "name": "",
          "type": "uint16[]"
        }
      ],
      "stateMutability": "view",
      "type": "function"
    },
    {
      "inputs": [],
      "name": "getSourceList",
      "outputs": [
        {
          "internalType": "string[]",
          "name": "",
          "type": "string[]"
        }
      ],
      "stateMutability": "view",
      "type": "function"
    },
    {
      "inputs": [
        {
          "internalType": "uint256",
          "name": "tokenId",
          "type": "uint256"
        }
      ],
      "name": "getTokenInfo",
      "outputs": [
        {
          "components": [
            {
              "internalType": "string",
              "name": "certId",
              "type": "string"
            },
            {
              "internalType": "uint256",
              "name": "sourceId",
              "type": "uint256"
            },
            {
              "internalType": "uint256",
              "name": "issueById",
              "type": "uint256"
            },
            {
              "internalType": "uint64",
              "name": "weight",
              "type": "uint64"
            },
            {
              "internalType": "uint256",
              "name": "date",
              "type": "uint256"
            }
          ],
          "internalType": "struct CarbonCreditNFT.TokenInfo",
          "name": "",
          "type": "tuple"
        }
      ],
      "stateMutability": "view",
      "type": "function"
    },
    {
      "inputs": [
        {
          "internalType": "uint256",
          "name": "tokenId",
          "type": "uint256"
        }
      ],
      "name": "getTokenInfoLiterally",
      "outputs": [
        {
          "components": [
            {
              "internalType": "string",
              "name": "certId",
              "type": "string"
            },
            {
              "internalType": "string",
              "name": "source",
              "type": "string"
            },
            {
              "internalType": "string",
              "name": "issueBy",
              "type": "string"
            },
            {
              "internalType": "uint64",
              "name": "weight",
              "type": "uint64"
            },
            {
              "internalType": "uint256",
              "name": "date",
              "type": "uint256"
            }
          ],
          "internalType": "struct CarbonCreditNFT.TokenInfoLiterally",
          "name": "",
          "type": "tuple"
        }
      ],
      "stateMutability": "view",
      "type": "function"
    },
    {
      "inputs": [
        {
          "internalType": "address",
          "name": "owner",
          "type": "address"
        },
        {
          "internalType": "address",
          "name": "operator",
          "type": "address"
        }
      ],
      "name": "isApprovedForAll",
      "outputs": [
        {
          "internalType": "bool",
          "name": "",
          "type": "bool"
        }
      ],
      "stateMutability": "view",
      "type": "function"
    },
    {
      "inputs": [],
      "name": "maxIssueById",
      "outputs": [
        {
          "internalType": "uint256",
          "name": "",
          "type": "uint256"
        }
      ],
      "stateMutability": "view",
      "type": "function"
    },
    {
      "inputs": [],
      "name": "maxSourceId",
      "outputs": [
        {
          "internalType": "uint256",
          "name": "",
          "type": "uint256"
        }
      ],
      "stateMutability": "view",
      "type": "function"
    },
    {
      "inputs": [
        {
          "components": [
            {
              "internalType": "string",
              "name": "certId",
              "type": "string"
            },
            {
              "internalType": "uint256",
              "name": "sourceId",
              "type": "uint256"
            },
            {
              "internalType": "uint256",
              "name": "issueById",
              "type": "uint256"
            },
            {
              "internalType": "uint64",
              "name": "weight",
              "type": "uint64"
            }
          ],
          "internalType": "struct CarbonCreditNFT.NewTokenData",
          "name": "newTokenData",
          "type": "tuple"
        },
        {
          "internalType": "address",
          "name": "receiver",
          "type": "address"
        }
      ],
      "name": "mintToken",
      "outputs": [
        {
          "internalType": "bool",
          "name": "",
          "type": "bool"
        }
      ],
      "stateMutability": "nonpayable",
      "type": "function"
    },
    {
      "inputs": [],
      "name": "name",
      "outputs": [
        {
          "internalType": "string",
          "name": "",
          "type": "string"
        }
      ],
      "stateMutability": "view",
      "type": "function"
    },
    {
      "inputs": [],
      "name": "owner",
      "outputs": [
        {
          "internalType": "address",
          "name": "",
          "type": "address"
        }
      ],
      "stateMutability": "view",
      "type": "function"
    },
    {
      "inputs": [
        {
          "internalType": "uint256",
          "name": "tokenId",
          "type": "uint256"
        }
      ],
      "name": "ownerOf",
      "outputs": [
        {
          "internalType": "address",
          "name": "",
          "type": "address"
        }
      ],
      "stateMutability": "view",
      "type": "function"
    },
    {
      "inputs": [],
      "name": "renounceOwnership",
      "outputs": [],
      "stateMutability": "nonpayable",
      "type": "function"
    },
    {
      "inputs": [
        {
          "internalType": "address",
          "name": "from",
          "type": "address"
        },
        {
          "internalType": "address",
          "name": "to",
          "type": "address"
        },
        {
          "internalType": "uint256",
          "name": "tokenId",
          "type": "uint256"
        }
      ],
      "name": "safeTransferFrom",
      "outputs": [],
      "stateMutability": "nonpayable",
      "type": "function"
    },
    {
      "inputs": [
        {
          "internalType": "address",
          "name": "from",
          "type": "address"
        },
        {
          "internalType": "address",
          "name": "to",
          "type": "address"
        },
        {
          "internalType": "uint256",
          "name": "tokenId",
          "type": "uint256"
        },
        {
          "internalType": "bytes",
          "name": "data",
          "type": "bytes"
        }
      ],
      "name": "safeTransferFrom",
      "outputs": [],
      "stateMutability": "nonpayable",
      "type": "function"
    },
    {
      "inputs": [
        {
          "internalType": "address",
          "name": "operator",
          "type": "address"
        },
        {
          "internalType": "bool",
          "name": "approved",
          "type": "bool"
        }
      ],
      "name": "setApprovalForAll",
      "outputs": [],
      "stateMutability": "nonpayable",
      "type": "function"
    },
    {
      "inputs": [
        {
          "internalType": "uint256",
          "name": "issueById",
          "type": "uint256"
        },
        {
          "internalType": "uint16",
          "name": "ratio",
          "type": "uint16"
        }
      ],
      "name": "setRatio",
      "outputs": [
        {
          "internalType": "bool",
          "name": "",
          "type": "bool"
        }
      ],
      "stateMutability": "nonpayable",
      "type": "function"
    },
    {
      "inputs": [
        {
          "internalType": "bytes4",
          "name": "interfaceId",
          "type": "bytes4"
        }
      ],
      "name": "supportsInterface",
      "outputs": [
        {
          "internalType": "bool",
          "name": "",
          "type": "bool"
        }
      ],
      "stateMutability": "view",
      "type": "function"
    },
    {
      "inputs": [],
      "name": "symbol",
      "outputs": [
        {
          "internalType": "string",
          "name": "",
          "type": "string"
        }
      ],
      "stateMutability": "view",
      "type": "function"
    },
    {
      "inputs": [
        {
          "internalType": "uint256",
          "name": "index",
          "type": "uint256"
        }
      ],
      "name": "tokenByIndex",
      "outputs": [
        {
          "internalType": "uint256",
          "name": "",
          "type": "uint256"
        }
      ],
      "stateMutability": "view",
      "type": "function"
    },
    {
      "inputs": [
        {
          "internalType": "address",
          "name": "owner",
          "type": "address"
        },
        {
          "internalType": "uint256",
          "name": "index",
          "type": "uint256"
        }
      ],
      "name": "tokenOfOwnerByIndex",
      "outputs": [
        {
          "internalType": "uint256",
          "name": "",
          "type": "uint256"
        }
      ],
      "stateMutability": "view",
      "type": "function"
    },
    {
      "inputs": [
        {
          "internalType": "uint256",
          "name": "tokenId",
          "type": "uint256"
        }
      ],
      "name": "tokenURI",
      "outputs": [
        {
          "internalType": "string",
          "name": "",
          "type": "string"
        }
      ],
      "stateMutability": "view",
      "type": "function"
    },
    {
      "inputs": [],
      "name": "totalSupply",
      "outputs": [
        {
          "internalType": "uint256",
          "name": "",
          "type": "uint256"
        }
      ],
      "stateMutability": "view",
      "type": "function"
    },
    {
      "inputs": [
        {
          "internalType": "address",
          "name": "from",
          "type": "address"
        },
        {
          "internalType": "address",
          "name": "to",
          "type": "address"
        },
        {
          "internalType": "uint256",
          "name": "tokenId",
          "type": "uint256"
        }
      ],
      "name": "transferFrom",
      "outputs": [],
      "stateMutability": "nonpayable",
      "type": "function"
    },
    {
      "inputs": [
        {
          "internalType": "address",
          "name": "newOwner",
          "type": "address"
        }
      ],
      "name": "transferOwnership",
      "outputs": [],
      "stateMutability": "nonpayable",
      "type": "function"
    }
  ],
  "bytecode": "0x60806040523480156200001157600080fd5b50604051620035753803806200357583398101604081905262000034916200017e565b8181620000413362000069565b60016200004f838262000277565b5060026200005e828262000277565b505050505062000343565b600080546001600160a01b038381166001600160a01b0319831681178455604051919092169283917f8be0079c531659141344cd1fd0a4f28419497f9722a3daafe3b4186f6b6457e09190a35050565b634e487b7160e01b600052604160045260246000fd5b600082601f830112620000e157600080fd5b81516001600160401b0380821115620000fe57620000fe620000b9565b604051601f8301601f19908116603f01168101908282118183101715620001295762000129620000b9565b816040528381526020925086838588010111156200014657600080fd5b600091505b838210156200016a57858201830151818301840152908201906200014b565b600093810190920192909252949350505050565b600080604083850312156200019257600080fd5b82516001600160401b0380821115620001aa57600080fd5b620001b886838701620000cf565b93506020850151915080821115620001cf57600080fd5b50620001de85828601620000cf565b9150509250929050565b600181811c90821680620001fd57607f821691505b6020821081036200021e57634e487b7160e01b600052602260045260246000fd5b50919050565b601f8211156200027257600081815260208120601f850160051c810160208610156200024d5750805b601f850160051c820191505b818110156200026e5782815560010162000259565b5050505b505050565b81516001600160401b03811115620002935762000293620000b9565b620002ab81620002a48454620001e8565b8462000224565b602080601f831160018114620002e35760008415620002ca5750858301515b600019600386901b1c1916600185901b1785556200026e565b600085815260208120601f198616915b828110156200031457888601518255948401946001909101908401620002f3565b5085821015620003335787850151600019600388901b60f8161c191681555b5050505050600190811b01905550565b61322280620003536000396000f3fe608060405234801561001057600080fd5b50600436106102115760003560e01c8063715018a611610125578063b88d4fde116100ad578063e1a6fb551161007c578063e1a6fb551461047a578063e985e9c514610483578063ed62d2ff146104bf578063f2fde38b146104d2578063f8d0ff9c146104e557600080fd5b8063b88d4fde14610443578063c87b56dd14610456578063cb5d372a14610469578063ce74f5351461047157600080fd5b80638f75c9c1116100f45780638f75c9c1146103e057806395d89b41146103f5578063a22cb465146103fd578063a79b5feb14610410578063b1bd33831461042357600080fd5b8063715018a6146103945780637b47ec1a1461039c5780638c7a63ae146103af5780638da5cb5b146103cf57600080fd5b80632f745c59116101a857806346a62eaf1161017757806346a62eaf146103225780634f6ccce7146103485780636352211e1461035b57806368f95d071461036e57806370a082311461038157600080fd5b80632f745c59146102e0578063329162ae146102f35780633aab4b571461030657806342842e0e1461030f57600080fd5b8063095ea7b3116101e4578063095ea7b31461029357806318160ddd146102a8578063190ec187146102ba57806323b872dd146102cd57600080fd5b806301ffc9a71461021657806303f3e2751461023e57806306fdde0314610253578063081812fc14610268575b600080fd5b6102296102243660046126a2565b6104f8565b60405190151581526020015b60405180910390f35b610246610509565b60405161023591906126c6565b61025b6105b1565b604051610235919061275e565b61027b610276366004612771565b610643565b6040516001600160a01b039091168152602001610235565b6102a66102a13660046127a1565b61066a565b005b6009545b604051908152602001610235565b6102296102c8366004612771565b610784565b6102a66102db3660046127cb565b61082e565b6102ac6102ee3660046127a1565b61085f565b610229610301366004612861565b6108f5565b6102ac600c5481565b6102a661031d3660046127cb565b610a56565b610335610330366004612771565b610a71565b60405161ffff9091168152602001610235565b6102ac610356366004612771565b610add565b61027b610369366004612771565b610b70565b61022961037c3660046128b4565b610bd0565b6102ac61038f366004612906565b610c03565b6102a6610c89565b6102296103aa366004612771565b610c9d565b6103c26103bd366004612771565b610d07565b6040516102359190612921565b6000546001600160a01b031661027b565b6103e8610e6e565b604051610235919061297a565b61025b610f36565b6102a661040b3660046129dc565b610f45565b61022961041e366004612a18565b610f54565b610436610431366004612771565b610ffe565b6040516102359190612a3b565b6102a6610451366004612ad3565b6111bc565b61025b610464366004612771565b6111f3565b6103e86111fe565b6102ac600b5481565b6102ac600d5481565b610229610491366004612bae565b6001600160a01b03918216600090815260066020908152604080832093909416825291909152205460ff1690565b6102296104cd366004612bca565b6112b2565b6102a66104e0366004612906565b6113c9565b6102296104f3366004612771565b611442565b6000610503826114cc565b92915050565b60606000600c546001600160401b0381111561052757610527612abd565b604051908082528060200260200182016040528015610550578160200160208202803683370190505b50905060005b600c548110156105ab576000818152601060205260409020548251600160f01b90910461ffff169083908390811061059057610590612c0b565b61ffff90921660209283029190910190910152600101610556565b50919050565b6060600180546105c090612c21565b80601f01602080910402602001604051908101604052809291908181526020018280546105ec90612c21565b80156106395780601f1061060e57610100808354040283529160200191610639565b820191906000526020600020905b81548152906001019060200180831161061c57829003601f168201915b5050505050905090565b600061064e826114f1565b506000908152600560205260409020546001600160a01b031690565b600061067582610b70565b9050806001600160a01b0316836001600160a01b0316036106e75760405162461bcd60e51b815260206004820152602160248201527f4552433732313a20617070726f76616c20746f2063757272656e74206f776e656044820152603960f91b60648201526084015b60405180910390fd5b336001600160a01b038216148061070357506107038133610491565b6107755760405162461bcd60e51b815260206004820152603d60248201527f4552433732313a20617070726f76652063616c6c6572206973206e6f7420746f60448201527f6b656e206f776e6572206f7220617070726f76656420666f7220616c6c00000060648201526084016106de565b61077f8383611541565b505050565b600061078e6115af565b600c5482106107eb5760405162461bcd60e51b8152602060048201526024808201527f43616e6e6f742064656c657465206e6f6e2d6578697374656e74206069737375604482015263032a13cb60e51b60648201526084016106de565b5060408051808201825260008082526020808301828152858352601091829052939091209151925161ffff16600160f01b0292901c91909117905560015b919050565b6108383382611609565b6108545760405162461bcd60e51b81526004016106de90612c55565b61077f838383611688565b600061086a83610c03565b82106108cc5760405162461bcd60e51b815260206004820152602b60248201527f455243373231456e756d657261626c653a206f776e657220696e646578206f7560448201526a74206f6620626f756e647360a81b60648201526084016106de565b506001600160a01b03919091166000908152600760209081526040808320938352929052205490565b60006108ff6115af565b60008390036109495760405162461bcd60e51b815260206004820152601660248201527502337b93134b21032b6b83a3c903034b9b9bab2a13cb60551b60448201526064016106de565b601f83106109a55760405162461bcd60e51b815260206004820152602360248201527f546865206c656e677468206f6620606973737565427960203c3d20333020627960448201526274657360e81b60648201526084016106de565b8161ffff166000036109c95760405162461bcd60e51b81526004016106de90612ca2565b60408051808201909152806109e2868660608401612ce5565b6040516020818303038152906040526109fa90612cf5565b61ffff1916815261ffff848116602092830152600c8054600090815260108085526040822086519690950151909316600160f01b029490921c9390931790915581549190610a4783612d3d565b90915550600195945050505050565b61077f838383604051806020016040528060008152506111bc565b6000600c548210610a945760405162461bcd60e51b81526004016106de90612d56565b6000828152601060208190526040909120805490911b61ffff1916610acb5760405162461bcd60e51b81526004016106de90612d56565b54600160f01b900461ffff1692915050565b6000610ae860095490565b8210610b4b5760405162461bcd60e51b815260206004820152602c60248201527f455243373231456e756d657261626c653a20676c6f62616c20696e646578206f60448201526b7574206f6620626f756e647360a01b60648201526084016106de565b60098281548110610b5e57610b5e612c0b565b90600052602060002001549050919050565b6000818152600360205260408120546001600160a01b0316806105035760405162461bcd60e51b8152602060048201526018602482015277115490cdcc8c4e881a5b9d985b1a59081d1bdad95b88125160421b60448201526064016106de565b6000610bda6115af565b600d805460018101909155610bef83826117f9565b610bf98185611813565b5060019392505050565b60006001600160a01b038216610c6d5760405162461bcd60e51b815260206004820152602960248201527f4552433732313a2061646472657373207a65726f206973206e6f7420612076616044820152683634b21037bbb732b960b91b60648201526084016106de565b506001600160a01b031660009081526004602052604090205490565b610c916115af565b610c9b60006119dd565b565b6000610caa335b83611609565b610cf65760405162461bcd60e51b815260206004820152601960248201527f596f752063616e6e6f74206275726e2074686973204e46542e0000000000000060448201526064016106de565b610cff82611a2d565b506001919050565b610d426040518060a0016040528060608152602001600081526020016000815260200160006001600160401b03168152602001600081525090565b610d4b82611aff565b610d975760405162461bcd60e51b815260206004820152601d60248201527f43616e6e6f7420676574206e6f6e2d6578697374656e7420746f6b656e00000060448201526064016106de565b6000828152600e6020908152604091829020825160a080820185528254825260018301549382019390935260028201548185019081526003909201546001600160c01b0381166060830152600160c01b90046001600160401b0316608082015283519283019093525160c08201528060e081016040516020818303038152906040528152602001826000015181526020018260200151815260200182608001516001600160401b0316815260200182606001516001600160c01b031660c08042901c901b610e659190612d97565b90529392505050565b60606000600c546001600160401b03811115610e8c57610e8c612abd565b604051908082528060200260200182016040528015610ebf57816020015b6060815260200190600190039081610eaa5790505b5090506000805b600c54811015610f2e5760008181526010602081815260409283902054925161ffff199390921b92831690820152909250603e01604051602081830303815290604052838281518110610f1b57610f1b612c0b565b6020908102919091010152600101610ec6565b509092915050565b6060600280546105c090612c21565b610f50338383611b1c565b5050565b6000610f5e6115af565b600c548310610f7f5760405162461bcd60e51b81526004016106de90612daa565b8161ffff16600003610fa35760405162461bcd60e51b81526004016106de90612ca2565b6000838152601060208190526040909120805490911b61ffff1916610fda5760405162461bcd60e51b81526004016106de90612daa565b805461ffff8416600160f01b026001600160f01b0390911617905550600192915050565b6110396040518060a0016040528060608152602001606081526020016060815260200160006001600160401b03168152602001600081525090565b61104282611aff565b61108e5760405162461bcd60e51b815260206004820152601d60248201527f43616e6e6f7420676574206e6f6e2d6578697374656e7420746f6b656e00000060448201526064016106de565b6000828152600e6020908152604091829020825160a080820185528254825260018301549382019390935260028201548185019081526003909201546001600160c01b0381166060830152600160c01b90046001600160401b0316608082015283519283019093525160c08201528060e0810160408051808303601f1901815291815290825283516000908152600f602090815290829020548251808301919091529201910160408051601f19818403018152918152908252602084810151600090815260108083529083902054925192901b61ffff19168282015290910190603e0160408051601f1981840301815291815290825260808401516001600160401b031660208301526060840151910190610e65906001600160c01b03166001600160c01b03194216612d97565b6111c533610ca4565b6111e15760405162461bcd60e51b81526004016106de90612c55565b6111ed84848484611bea565b50505050565b606061050382611c1d565b60606000600b546001600160401b0381111561121c5761121c612abd565b60405190808252806020026020018201604052801561124f57816020015b606081526020019060019003908161123a5790505b5090506000805b600b54811015610f2e576000818152600f602090815260409182902054825191820181905293500160405160208183030381529060405283828151811061129f5761129f612c0b565b6020908102919091010152600101611256565b60006112bc6115af565b60008290036113055760405162461bcd60e51b815260206004820152601560248201527402337b93134b21032b6b83a3c903039b7bab931b2b605d1b60448201526064016106de565b602182106113605760405162461bcd60e51b815260206004820152602260248201527f546865206c656e677468206f662060736f7572636560203c3d20333220627974604482015261657360f01b60648201526084016106de565b6040518060200160405280848460405160200161137e929190612ce5565b60405160208183030381529060405261139690612dee565b9052600b80546000908152600f6020526040812092519092558054916113bb83612d3d565b909155506001949350505050565b6113d16115af565b6001600160a01b0381166114365760405162461bcd60e51b815260206004820152602660248201527f4f776e61626c653a206e6577206f776e657220697320746865207a65726f206160448201526564647265737360d01b60648201526084016106de565b61143f816119dd565b50565b600061144c6115af565b600b5482106114a95760405162461bcd60e51b815260206004820152602360248201527f43616e6e6f742064656c657465206e6f6e2d6578697374656e742060736f7572604482015262031b2b60ed1b60648201526084016106de565b5060408051602080820183526000808352938452600f9052912090519055600190565b60006001600160e01b0319821663780e9d6360e01b1480610503575061050382611d5e565b6114fa81611aff565b61143f5760405162461bcd60e51b8152602060048201526018602482015277115490cdcc8c4e881a5b9d985b1a59081d1bdad95b88125160421b60448201526064016106de565b600081815260056020526040902080546001600160a01b0319166001600160a01b038416908117909155819061157682610b70565b6001600160a01b03167f8c5be1e5ebec7d5bd14f71427d1e84f3dd0314c0f7b2291e5b200ac8c7c3b92560405160405180910390a45050565b6000546001600160a01b03163314610c9b5760405162461bcd60e51b815260206004820181905260248201527f4f776e61626c653a2063616c6c6572206973206e6f7420746865206f776e657260448201526064016106de565b60008061161583610b70565b9050806001600160a01b0316846001600160a01b0316148061165c57506001600160a01b0380821660009081526006602090815260408083209388168352929052205460ff165b806116805750836001600160a01b031661167584610643565b6001600160a01b0316145b949350505050565b826001600160a01b031661169b82610b70565b6001600160a01b0316146116c15760405162461bcd60e51b81526004016106de90612e12565b6001600160a01b0382166117235760405162461bcd60e51b8152602060048201526024808201527f4552433732313a207472616e7366657220746f20746865207a65726f206164646044820152637265737360e01b60648201526084016106de565b6117308383836001611dae565b826001600160a01b031661174382610b70565b6001600160a01b0316146117695760405162461bcd60e51b81526004016106de90612e12565b600081815260056020908152604080832080546001600160a01b03199081169091556001600160a01b0387811680865260048552838620805460001901905590871680865283862080546001019055868652600390945282852080549092168417909155905184937fddf252ad1be2c89b69c2b068fc378daa952ba7f163c4a11628f55a4df523b3ef91a4505050565b610f50828260405180602001604052806000815250611dba565b61181c82611aff565b6118685760405162461bcd60e51b815260206004820152601d60248201527f43616e6e6f7420736574206e6f6e2d6578697374656e7420746f6b656e00000060448201526064016106de565b60216118748280612e57565b9050106118ce5760405162461bcd60e51b815260206004820152602260248201527f546865206c656e677468206f66206063657274496460203c3d20333220627974604482015261657360f01b60648201526084016106de565b6040805160a081018252602080840135825283830135908201529081016118f58380612e57565b604051602001611906929190612ce5565b60405160208183030381529060405261191e90612dee565b81526001600160c01b03421660208201526040016119426080840160608501612e9d565b6001600160401b039081169091526000848152600e6020908152604091829020845181559084015160018201558382015160028201556060840151608090940151909216600160c01b026001600160c01b0390931692909217600390910155517ff8e1a15aba9398e019f0b49df1a4fde98ee17ae345cb5f6b5e2c27f5033e8ce7906119d19084815260200190565b60405180910390a15050565b600080546001600160a01b038381166001600160a01b0319831681178455604051919092169283917f8be0079c531659141344cd1fd0a4f28419497f9722a3daafe3b4186f6b6457e09190a35050565b611a3681611aff565b611a825760405162461bcd60e51b815260206004820152601e60248201527f43616e6e6f74206275726e206e6f6e2d6578697374656e7420746f6b656e000060448201526064016106de565b611a8b81611ded565b6040805160a081018252600080825260208083018281528385018381526060850184815260808601858152978552600e90935294909220925183559051600183015591516002820155905191516001600160401b0316600160c01b026001600160c01b039290921691909117600390910155565b6000908152600360205260409020546001600160a01b0316151590565b816001600160a01b0316836001600160a01b031603611b7d5760405162461bcd60e51b815260206004820152601960248201527f4552433732313a20617070726f766520746f2063616c6c65720000000000000060448201526064016106de565b6001600160a01b03838116600081815260066020908152604080832094871680845294825291829020805460ff191686151590811790915591519182527f17307eab39ab6107e8899845ad3d59bd9653f200f220920489ca2b5937696c31910160405180910390a3505050565b611bf5848484611688565b611c0184848484611e90565b6111ed5760405162461bcd60e51b81526004016106de90612ec6565b6000818152600e6020908152604091829020825160a0810184528154815260018201548184015260028201548185018190526003909201546001600160c01b038116606080840191909152600160c01b9091046001600160401b0316608083015284519384019290925290929091611d379101604051602081830303815290604052611cac8360000151611f91565b611cb98460200151611f91565b611ccf85608001516001600160401b0316611f91565b611cdb4260c01c611f91565b611cf187606001516001600160c01b0316611f91565b604051602001611d02929190612f18565b60408051601f1981840301815290829052611d239594939291602001612f47565b604051602081830303815290604052612023565b604051602001611d4791906130a9565b604051602081830303815290604052915050919050565b60006001600160e01b031982166380ac58cd60e01b1480611d8f57506001600160e01b03198216635b5e139f60e01b145b8061050357506301ffc9a760e01b6001600160e01b0319831614610503565b6111ed84848484612175565b611dc483836122a9565b611dd16000848484611e90565b61077f5760405162461bcd60e51b81526004016106de90612ec6565b6000611df882610b70565b9050611e08816000846001611dae565b611e1182610b70565b600083815260056020908152604080832080546001600160a01b03199081169091556001600160a01b0385168085526004845282852080546000190190558785526003909352818420805490911690555192935084927fddf252ad1be2c89b69c2b068fc378daa952ba7f163c4a11628f55a4df523b3ef908390a45050565b60006001600160a01b0384163b15611f8657604051630a85bd0160e11b81526001600160a01b0385169063150b7a0290611ed49033908990889088906004016130f0565b6020604051808303816000875af1925050508015611f0f575060408051601f3d908101601f19168201909252611f0c9181019061312d565b60015b611f6c573d808015611f3d576040519150601f19603f3d011682016040523d82523d6000602084013e611f42565b606091505b508051600003611f645760405162461bcd60e51b81526004016106de90612ec6565b805181602001fd5b6001600160e01b031916630a85bd0160e11b149050611680565b506001949350505050565b60606000611f9e83612424565b60010190506000816001600160401b03811115611fbd57611fbd612abd565b6040519080825280601f01601f191660200182016040528015611fe7576020820181803683370190505b5090508181016020015b600019016f181899199a1a9b1b9c1cb0b131b232b360811b600a86061a8153600a8504945084611ff157509392505050565b6060815160000361204257505060408051602081019091526000815290565b60006040518060600160405280604081526020016131ad60409139905060006003845160026120719190612d97565b61207b919061314a565b61208690600461316c565b6001600160401b0381111561209d5761209d612abd565b6040519080825280601f01601f1916602001820160405280156120c7576020820181803683370190505b509050600182016020820185865187015b80821015612133576003820191508151603f8160121c168501518453600184019350603f81600c1c168501518453600184019350603f8160061c168501518453600184019350603f81168501518453506001830192506120d8565b505060038651066001811461214f57600281146121625761216a565b603d6001830353603d600283035361216a565b603d60018303535b509195945050505050565b60018111156121e45760405162461bcd60e51b815260206004820152603560248201527f455243373231456e756d657261626c653a20636f6e7365637574697665207472604482015274185b9cd9995c9cc81b9bdd081cdd5c1c1bdc9d1959605a1b60648201526084016106de565b816001600160a01b0385166122405761223b81600980546000838152600a60205260408120829055600182018355919091527f6e1540171b6c0c960b71a7020d9f60077f6af931a8bbf590da0223dacf75c7af0155565b612263565b836001600160a01b0316856001600160a01b0316146122635761226385826124fc565b6001600160a01b03841661227f5761227a81612599565b6122a2565b846001600160a01b0316846001600160a01b0316146122a2576122a28482612648565b5050505050565b6001600160a01b0382166122ff5760405162461bcd60e51b815260206004820181905260248201527f4552433732313a206d696e7420746f20746865207a65726f206164647265737360448201526064016106de565b61230881611aff565b156123555760405162461bcd60e51b815260206004820152601c60248201527f4552433732313a20746f6b656e20616c7265616479206d696e7465640000000060448201526064016106de565b612363600083836001611dae565b61236c81611aff565b156123b95760405162461bcd60e51b815260206004820152601c60248201527f4552433732313a20746f6b656e20616c7265616479206d696e7465640000000060448201526064016106de565b6001600160a01b038216600081815260046020908152604080832080546001019055848352600390915280822080546001600160a01b0319168417905551839291907fddf252ad1be2c89b69c2b068fc378daa952ba7f163c4a11628f55a4df523b3ef908290a45050565b60008072184f03e93ff9f4daa797ed6e38ed64bf6a1f0160401b83106124635772184f03e93ff9f4daa797ed6e38ed64bf6a1f0160401b830492506040015b6d04ee2d6d415b85acef8100000000831061248f576d04ee2d6d415b85acef8100000000830492506020015b662386f26fc1000083106124ad57662386f26fc10000830492506010015b6305f5e10083106124c5576305f5e100830492506008015b61271083106124d957612710830492506004015b606483106124eb576064830492506002015b600a83106105035760010192915050565b6000600161250984610c03565b6125139190613183565b600083815260086020526040902054909150808214612566576001600160a01b03841660009081526007602090815260408083208584528252808320548484528184208190558352600890915290208190555b5060009182526008602090815260408084208490556001600160a01b039094168352600781528383209183525290812055565b6009546000906125ab90600190613183565b6000838152600a6020526040812054600980549394509092849081106125d3576125d3612c0b565b9060005260206000200154905080600983815481106125f4576125f4612c0b565b6000918252602080832090910192909255828152600a9091526040808220849055858252812055600980548061262c5761262c613196565b6001900381819060005260206000200160009055905550505050565b600061265383610c03565b6001600160a01b039093166000908152600760209081526040808320868452825280832085905593825260089052919091209190915550565b6001600160e01b03198116811461143f57600080fd5b6000602082840312156126b457600080fd5b81356126bf8161268c565b9392505050565b6020808252825182820181905260009190848201906040850190845b8181101561270257835161ffff16835292840192918401916001016126e2565b50909695505050505050565b60005b83811015612729578181015183820152602001612711565b50506000910152565b6000815180845261274a81602086016020860161270e565b601f01601f19169290920160200192915050565b6020815260006126bf6020830184612732565b60006020828403121561278357600080fd5b5035919050565b80356001600160a01b038116811461082957600080fd5b600080604083850312156127b457600080fd5b6127bd8361278a565b946020939093013593505050565b6000806000606084860312156127e057600080fd5b6127e98461278a565b92506127f76020850161278a565b9150604084013590509250925092565b60008083601f84011261281957600080fd5b5081356001600160401b0381111561283057600080fd5b60208301915083602082850101111561284857600080fd5b9250929050565b803561ffff8116811461082957600080fd5b60008060006040848603121561287657600080fd5b83356001600160401b0381111561288c57600080fd5b61289886828701612807565b90945092506128ab90506020850161284f565b90509250925092565b600080604083850312156128c757600080fd5b82356001600160401b038111156128dd57600080fd5b8301608081860312156128ef57600080fd5b91506128fd6020840161278a565b90509250929050565b60006020828403121561291857600080fd5b6126bf8261278a565b602081526000825160a0602084015261293d60c0840182612732565b905060208401516040840152604084015160608401526001600160401b036060850151166080840152608084015160a08401528091505092915050565b6000602080830181845280855180835260408601915060408160051b870101925083870160005b828110156129cf57603f198886030184526129bd858351612732565b945092850192908501906001016129a1565b5092979650505050505050565b600080604083850312156129ef57600080fd5b6129f88361278a565b915060208301358015158114612a0d57600080fd5b809150509250929050565b60008060408385031215612a2b57600080fd5b823591506128fd6020840161284f565b602081526000825160a06020840152612a5760c0840182612732565b90506020840151601f1980858403016040860152612a758383612732565b9250604086015191508085840301606086015250612a938282612732565b9150506001600160401b036060850151166080840152608084015160a08401528091505092915050565b634e487b7160e01b600052604160045260246000fd5b60008060008060808587031215612ae957600080fd5b612af28561278a565b9350612b006020860161278a565b92506040850135915060608501356001600160401b0380821115612b2357600080fd5b818701915087601f830112612b3757600080fd5b813581811115612b4957612b49612abd565b604051601f8201601f19908116603f01168101908382118183101715612b7157612b71612abd565b816040528281528a6020848701011115612b8a57600080fd5b82602086016020830137600060208483010152809550505050505092959194509250565b60008060408385031215612bc157600080fd5b6128ef8361278a565b60008060208385031215612bdd57600080fd5b82356001600160401b03811115612bf357600080fd5b612bff85828601612807565b90969095509350505050565b634e487b7160e01b600052603260045260246000fd5b600181811c90821680612c3557607f821691505b6020821081036105ab57634e487b7160e01b600052602260045260246000fd5b6020808252602d908201527f4552433732313a2063616c6c6572206973206e6f7420746f6b656e206f776e6560408201526c1c881bdc88185c1c1c9bdd9959609a1b606082015260800190565b60208082526023908201527f436f6e76657273696f6e2060726174696f60206d757374206265206e6f6e2d7a60408201526265726f60e81b606082015260800190565b8183823760009101908152919050565b8051602082015161ffff19808216929190601e831015612d1f57808184601e0360031b1b83161693505b505050919050565b634e487b7160e01b600052601160045260246000fd5b600060018201612d4f57612d4f612d27565b5060010190565b60208082526021908201527f43616e6e6f7420676574206e6f6e2d6578697374656e742060697373756542796040820152600360fd1b606082015260800190565b8082018082111561050357610503612d27565b60208082526024908201527f43616e6e6f74206d6f64696679206e6f6e2d6578697374656e74206069737375604082015263032a13cb60e51b606082015260800190565b805160208083015191908110156105ab5760001960209190910360031b1b16919050565b60208082526025908201527f4552433732313a207472616e736665722066726f6d20696e636f72726563742060408201526437bbb732b960d91b606082015260800190565b6000808335601e19843603018112612e6e57600080fd5b8301803591506001600160401b03821115612e8857600080fd5b60200191503681900382131561284857600080fd5b600060208284031215612eaf57600080fd5b81356001600160401b03811681146126bf57600080fd5b60208082526032908201527f4552433732313a207472616e7366657220746f206e6f6e20455243373231526560408201527131b2b4bb32b91034b6b83632b6b2b73a32b960711b606082015260800190565b60008351612f2a81846020880161270e565b835190830190612f3e81836020880161270e565b01949350505050565b6000610160808352612f73818401600b81526a3d9131b2b93a24b2111d1160a91b602082015260400190565b90508281036020840152612f878189612732565b90508281036040840152612fb781600f81526e1116101139b7bab931b2a4b2111d1160891b602082015260400190565b90508281036060840152612fcb8188612732565b83810360808501819052601082526f1116101134b9b9bab2a13ca4b2111d1160811b6020830152604090810160a08601520190506130098187612732565b83810360c08501819052600d82526c111610113bb2b4b3b43a111d1160991b6020830152604090810160e08601520190506130448186612732565b8381036101008501819052600b82526a111610113230ba32911d1160a91b6020830152604090810161012086015201905061307f8185612732565b8381036101408501526002815261227d60f01b602082015290506040810198975050505050505050565b60408152601d60408201527f646174613a6170706c69636174696f6e2f6a736f6e3b6261736536342c00000060608201526080602082015260006126bf6080830184612732565b6001600160a01b038581168252841660208201526040810183905260806060820181905260009061312390830184612732565b9695505050505050565b60006020828403121561313f57600080fd5b81516126bf8161268c565b60008261316757634e487b7160e01b600052601260045260246000fd5b500490565b808202811582820484141761050357610503612d27565b8181038181111561050357610503612d27565b634e487b7160e01b600052603160045260246000fdfe4142434445464748494a4b4c4d4e4f505152535455565758595a6162636465666768696a6b6c6d6e6f707172737475767778797a303132333435363738392b2fa2646970667358221220616b5b978d315d4ca02dea00879279832cf84d9c3328dda6f40df55c2bdbc16164736f6c63430008110033",
  "linkReferences": {},
  "deployedLinkReferences": {}
}