{
  "_format": "hh-sol-artifact-1",
  "contractName": "ERC721TokenVault",
  "sourceName": "contracts/fractional/ERC721TokenVault.sol",
  "abi": [
    {
      "inputs": [
        {
          "internalType": "contract ERC20TokenCenter",
          "name": "_erc20TokenCenter",
          "type": "address"
        },
        {
          "internalType": "contract CarbonCreditNFT",
          "name": "_underlyingToken",
          "type": "address"
        },
        {
          "internalType": "uint256",
          "name": "_tokenId",
          "type": "uint256"
        },
        {
          "internalType": "address",
          "name": "_creator",
          "type": "address"
        },
        {
          "internalType": "uint256",
          "name": "_vaultId",
          "type": "uint256"
        }
      ],
      "stateMutability": "nonpayable",
      "type": "constructor"
    },
    {
      "inputs": [],
      "name": "creator",
      "outputs": [
        {
          "internalType": "address",
          "name": "",
          "type": "address"
        }
      ],
      "stateMutability": "view",
      "type": "function"
    },
    {
      "inputs": [],
      "name": "erc20TokenCenter",
      "outputs": [
        {
          "internalType": "contract ERC20TokenCenter",
          "name": "",
          "type": "address"
        }
      ],
      "stateMutability": "view",
      "type": "function"
    },
    {
      "inputs": [
        {
          "internalType": "address",
          "name": "operator",
          "type": "address"
        },
        {
          "internalType": "address",
          "name": "from",
          "type": "address"
        },
        {
          "internalType": "uint256",
          "name": "tokenId",
          "type": "uint256"
        },
        {
          "internalType": "bytes",
          "name": "data",
          "type": "bytes"
        }
      ],
      "name": "onERC721Received",
      "outputs": [
        {
          "internalType": "bytes4",
          "name": "",
          "type": "bytes4"
        }
      ],
      "stateMutability": "pure",
      "type": "function"
    },
    {
      "inputs": [],
      "name": "ratio",
      "outputs": [
        {
          "internalType": "uint16",
          "name": "",
          "type": "uint16"
        }
      ],
      "stateMutability": "view",
      "type": "function"
    },
    {
      "inputs": [],
      "name": "supply",
      "outputs": [
        {
          "internalType": "uint256",
          "name": "",
          "type": "uint256"
        }
      ],
      "stateMutability": "view",
      "type": "function"
    },
    {
      "inputs": [],
      "name": "underlyingToken",
      "outputs": [
        {
          "internalType": "contract CarbonCreditNFT",
          "name": "",
          "type": "address"
        }
      ],
      "stateMutability": "view",
      "type": "function"
    },
    {
      "inputs": [],
      "name": "underlyingTokenId",
      "outputs": [
        {
          "internalType": "uint256",
          "name": "",
          "type": "uint256"
        }
      ],
      "stateMutability": "view",
      "type": "function"
    },
    {
      "inputs": [],
      "name": "vaultId",
      "outputs": [
        {
          "internalType": "uint256",
          "name": "",
          "type": "uint256"
        }
      ],
      "stateMutability": "view",
      "type": "function"
    },
    {
      "inputs": [],
      "name": "weight",
      "outputs": [
        {
          "internalType": "uint64",
          "name": "",
          "type": "uint64"
        }
      ],
      "stateMutability": "view",
      "type": "function"
    }
  ],
  "bytecode": "0x61018060405234801561001157600080fd5b50604051610aa9380380610aa983398101604081905261003091610474565b6001600160a01b0385811660805284811660a081905260c085905290831660e0526101008290526040516331a9108f60e11b815260048101859052309190636352211e90602401602060405180830381865afa158015610094573d6000803e3d6000fd5b505050506040513d601f19601f820116820180604052508101906100b891906104d5565b6001600160a01b0316146101225760405162461bcd60e51b815260206004820152602660248201527f4e65772060546f6b656e5661756c746020686173206e6f74206f776e656420746044820152651a194813919560d21b60648201526084015b60405180910390fd5b61015d6040518060a0016040528060608152602001600081526020016000815260200160006001600160401b03168152602001600081525090565b60a05160c05160405163463d31d760e11b81526001600160a01b0390921691638c7a63ae916101929160040190815260200190565b600060405180830381865afa9250505080156101d057506040513d6000823e601f3d908101601f191682016040526101cd9190810190610583565b60015b6102425760405162461bcd60e51b815260206004820152603960248201527f4661696c656420746f206765742060546f6b656e496e666f602066726f6d204360448201527f6172626f6e20437265646974204e465420636f6e7472616374000000000000006064820152608401610119565b905060a0516001600160a01b03166346a62eaf82604001516040518263ffffffff1660e01b815260040161027891815260200190565b602060405180830381865afa9250505080156102b1575060408051601f3d908101601f191682019092526102ae91810190610689565b60015b6103235760405162461bcd60e51b815260206004820152603560248201527f4661696c656420746f206765742060726174696f602066726f6d20436172626f60448201527f6e20437265646974204e465420636f6e747261637400000000000000000000006064820152608401610119565b61ffff811661012081905260608301516001600160401b031661014081905261034c91906106ad565b61016081905260805160e0516101005160a05161012051604051636afdebeb60e11b81526001600160a01b03948516600482015260248101939093529083166044830152606482019490945261ffff909316608484015260009350169063d5fbd7d69060a4016020604051808303816000875af11580156103d1573d6000803e3d6000fd5b505050506040513d601f19601f820116820180604052508101906103f591906106d8565b9050806104505760405162461bcd60e51b8152602060048201526024808201527f4661696c656420746f206d696e74206e657720436172626f6e204372656469746044820152632046547360e01b6064820152608401610119565b505050505050506106fa565b6001600160a01b038116811461047157600080fd5b50565b600080600080600060a0868803121561048c57600080fd5b85516104978161045c565b60208701519095506104a88161045c565b6040870151606088015191955093506104c08161045c565b80925050608086015190509295509295909350565b6000602082840312156104e757600080fd5b81516104f28161045c565b9392505050565b634e487b7160e01b600052604160045260246000fd5b60405160a081016001600160401b0381118282101715610531576105316104f9565b60405290565b604051601f8201601f191681016001600160401b038111828210171561055f5761055f6104f9565b604052919050565b80516001600160401b038116811461057e57600080fd5b919050565b6000602080838503121561059657600080fd5b82516001600160401b03808211156105ad57600080fd5b9084019060a082870312156105c157600080fd5b6105c961050f565b8251828111156105d857600080fd5b8301601f810188136105e957600080fd5b8051838111156105fb576105fb6104f9565b61060d601f8201601f19168701610537565b9350808452888682840101111561062357600080fd5b60005b81811015610641578281018701518582018801528601610626565b506000868286010152505081815283830151848201526040830151604082015261066d60608401610567565b6060820152608083015160808201528094505050505092915050565b60006020828403121561069b57600080fd5b815161ffff811681146104f257600080fd5b80820281158282048414176106d257634e487b7160e01b600052601160045260246000fd5b92915050565b6000602082840312156106ea57600080fd5b815180151581146104f257600080fd5b60805160a05160c05160e0516101005161012051610140516101605161034c61075d600039600060e1015260006101fd015260006101c30152600061019c01526000609d0152600061014e015260006101750152600061023d015261034c6000f3fe608060405234801561001057600080fd5b50600436106100935760003560e01c80632495a599116100665780632495a5991461017057806333194c0a1461019757806371ca337d146101be578063a1aab33f146101f8578063e46871061461023857600080fd5b806302d05d3f14610098578063047fc9aa146100dc578063150b7a021461011157806316e064c214610149575b600080fd5b6100bf7f000000000000000000000000000000000000000000000000000000000000000081565b6040516001600160a01b0390911681526020015b60405180910390f35b6101037f000000000000000000000000000000000000000000000000000000000000000081565b6040519081526020016100d3565b61013061011f36600461027b565b630a85bd0160e11b95945050505050565b6040516001600160e01b031990911681526020016100d3565b6101037f000000000000000000000000000000000000000000000000000000000000000081565b6100bf7f000000000000000000000000000000000000000000000000000000000000000081565b6101037f000000000000000000000000000000000000000000000000000000000000000081565b6101e57f000000000000000000000000000000000000000000000000000000000000000081565b60405161ffff90911681526020016100d3565b61021f7f000000000000000000000000000000000000000000000000000000000000000081565b60405167ffffffffffffffff90911681526020016100d3565b6100bf7f000000000000000000000000000000000000000000000000000000000000000081565b80356001600160a01b038116811461027657600080fd5b919050565b60008060008060006080868803121561029357600080fd5b61029c8661025f565b94506102aa6020870161025f565b935060408601359250606086013567ffffffffffffffff808211156102ce57600080fd5b818801915088601f8301126102e257600080fd5b8135818111156102f157600080fd5b89602082850101111561030357600080fd5b969995985093965060200194939250505056fea2646970667358221220b9571f33bd37cf76e752970a71910f4682919221eb5caa5d1be034c21a17971864736f6c63430008110033",
  "linkReferences": {},
  "deployedLinkReferences": {}
}