{
  "_format": "hh-sol-artifact-1",
  "contractName": "ERC721VaultFactory",
  "sourceName": "contracts/fractional/ERC721VaultFactory.sol",
  "abi": [
    {
      "inputs": [
        {
          "internalType": "address",
          "name": "_erc20TokenCenter",
          "type": "address"
        },
        {
          "internalType": "address",
          "name": "_authorizedNFT",
          "type": "address"
        }
      ],
      "stateMutability": "nonpayable",
      "type": "constructor"
    },
    {
      "anonymous": false,
      "inputs": [
        {
          "indexed": true,
          "internalType": "uint256",
          "name": "tokenId",
          "type": "uint256"
        },
        {
          "indexed": false,
          "internalType": "address",
          "name": "vault",
          "type": "address"
        },
        {
          "indexed": false,
          "internalType": "uint256",
          "name": "vaultId",
          "type": "uint256"
        }
      ],
      "name": "Mint",
      "type": "event"
    },
    {
      "anonymous": false,
      "inputs": [
        {
          "indexed": true,
          "internalType": "address",
          "name": "previousOwner",
          "type": "address"
        },
        {
          "indexed": true,
          "internalType": "address",
          "name": "newOwner",
          "type": "address"
        }
      ],
      "name": "OwnershipTransferred",
      "type": "event"
    },
    {
      "inputs": [],
      "name": "authorizedNFT",
      "outputs": [
        {
          "internalType": "contract CarbonCreditNFT",
          "name": "",
          "type": "address"
        }
      ],
      "stateMutability": "view",
      "type": "function"
    },
    {
      "inputs": [],
      "name": "erc20TokenCenter",
      "outputs": [
        {
          "internalType": "contract ERC20TokenCenter",
          "name": "",
          "type": "address"
        }
      ],
      "stateMutability": "view",
      "type": "function"
    },
    {
      "inputs": [
        {
          "internalType": "uint256",
          "name": "tokenId",
          "type": "uint256"
        }
      ],
      "name": "fractionalization",
      "outputs": [
        {
          "internalType": "uint256",
          "name": "",
          "type": "uint256"
        }
      ],
      "stateMutability": "nonpayable",
      "type": "function"
    },
    {
      "inputs": [
        {
          "internalType": "bytes32",
          "name": "_hash",
          "type": "bytes32"
        },
        {
          "internalType": "bytes",
          "name": "_signature",
          "type": "bytes"
        }
      ],
      "name": "isValidSignature",
      "outputs": [
        {
          "internalType": "bytes4",
          "name": "",
          "type": "bytes4"
        }
      ],
      "stateMutability": "view",
      "type": "function"
    },
    {
      "inputs": [],
      "name": "maxVaultId",
      "outputs": [
        {
          "internalType": "uint256",
          "name": "",
          "type": "uint256"
        }
      ],
      "stateMutability": "view",
      "type": "function"
    },
    {
      "inputs": [],
      "name": "owner",
      "outputs": [
        {
          "internalType": "address",
          "name": "",
          "type": "address"
        }
      ],
      "stateMutability": "view",
      "type": "function"
    },
    {
      "inputs": [],
      "name": "renounceOwnership",
      "outputs": [],
      "stateMutability": "nonpayable",
      "type": "function"
    },
    {
      "inputs": [
        {
          "internalType": "address",
          "name": "newOwner",
          "type": "address"
        }
      ],
      "name": "transferOwnership",
      "outputs": [],
      "stateMutability": "nonpayable",
      "type": "function"
    },
    {
      "inputs": [
        {
          "internalType": "uint256",
          "name": "",
          "type": "uint256"
        }
      ],
      "name": "vaults",
      "outputs": [
        {
          "internalType": "address",
          "name": "",
          "type": "address"
        }
      ],
      "stateMutability": "view",
      "type": "function"
    }
  ],
  "bytecode": "0x60c060405234801561001057600080fd5b506040516118d13803806118d183398101604081905261002f916100bf565b61003833610053565b600180556001600160a01b039182166080521660a0526100f2565b600080546001600160a01b038381166001600160a01b0319831681178455604051919092169283917f8be0079c531659141344cd1fd0a4f28419497f9722a3daafe3b4186f6b6457e09190a35050565b80516001600160a01b03811681146100ba57600080fd5b919050565b600080604083850312156100d257600080fd5b6100db836100a3565b91506100e9602084016100a3565b90509250929050565b60805160a0516117896101486000396000818161013001528181610481015281816105f5015281816106f3015261084a01526000818161019a015281816101e0015281816105cd015261082901526117896000f3fe60806040523480156200001157600080fd5b50600436106200009f5760003560e01c80638da5cb5b116200006e5780638da5cb5b1462000152578063b2ccce2f1462000164578063c2fb1727146200017d578063e46871061462000194578063f2fde38b14620001bc57600080fd5b80631626ba7e14620000a4578063715018a614620000d95780638c64ea4a14620000e55780638d7eaddc146200012a575b600080fd5b620000bb620000b536600462000af8565b620001d3565b6040516001600160e01b031990911681526020015b60405180910390f35b620000e36200043d565b005b62000111620000f636600462000b79565b6003602052600090815260409020546001600160a01b031681565b6040516001600160a01b039091168152602001620000d0565b620001117f000000000000000000000000000000000000000000000000000000000000000081565b6000546001600160a01b031662000111565b6200016e60025481565b604051908152602001620000d0565b6200016e6200018e36600462000b79565b62000455565b620001117f000000000000000000000000000000000000000000000000000000000000000081565b620000e3620001cd36600462000ba9565b62000964565b6000336001600160a01b037f00000000000000000000000000000000000000000000000000000000000000001614620002625760405162461bcd60e51b815260206004820152602660248201527f496e76616c69642063616c6c6572206f662060697356616c69645369676e617460448201526503ab9329414b60d51b60648201526084015b60405180910390fd5b600080620002738486018662000bd0565b60405191935091506200028a908690869062000bff565b60405180910390208614620002f15760405162461bcd60e51b815260206004820152602660248201527f605f7369676e617475726560206973206469666665726e65742066726f6d206060448201526502fb430b9b4360d51b606482015260840162000259565b6002548110620003385760405162461bcd60e51b8152602060048201526011602482015270024b73b30b634b210303b30bab63a24b23607d1b604482015260640162000259565b6001600160a01b0382166200039a5760405162461bcd60e51b815260206004820152602160248201527f43616c6c65722063616e6e6f7420626520746865207a65726f206164647265736044820152607360f81b606482015260840162000259565b6000818152600360205260409020546001600160a01b038381169116146200042b5760405162461bcd60e51b815260206004820152603e60248201527f43616c6c6572206973206e6f7420696e636c7564656420696e2074686520604560448201527f52433732315661756c74466163746f72796027732077686974656c6973740000606482015260840162000259565b50630b135d3f60e11b95945050505050565b62000447620009e3565b62000453600062000a3f565b565b60006200046162000a8f565b60405163020604bf60e21b81526004810183905230906001600160a01b037f0000000000000000000000000000000000000000000000000000000000000000169063081812fc90602401602060405180830381865afa158015620004c9573d6000803e3d6000fd5b505050506040513d601f19601f82011682018060405250810190620004ef919062000c0f565b6001600160a01b0316146200056d5760405162461bcd60e51b815260206004820152603f60248201527f506c656173652067697665204e4654207472616e7366657272696e672070657260448201527f6d697373696f6e20746f20604552433732315661756c74466163746f72796000606482015260840162000259565b6002805460009182620005808362000c2f565b90915550604051909150448218906000906001600160f81b03199030908490620005ad6020820162000aea565b818103601f199081018352601f9091011660408181526001600160a01b037f0000000000000000000000000000000000000000000000000000000000000000811660208401527f00000000000000000000000000000000000000000000000000000000000000001690820152606081018a905233608082015260a0810188905260c00160408051601f198184030181529082905262000650929160200162000c89565b60405160208183030381529060405280519060200120604051602001620006ae94939291906001600160f81b031994909416845260609290921b6bffffffffffffffffffffffff191660018401526015830152603582015260550190565b60408051808303601f19018152908290528051602090910120632142170760e11b82523360048301526001600160a01b038082166024840152604483018890529092507f000000000000000000000000000000000000000000000000000000000000000016906342842e0e90606401600060405180830381600087803b1580156200073857600080fd5b505af19250505080156200074a575060015b620007be5760405162461bcd60e51b815260206004820152603960248201527f4661696c656420746f207472616e73666572204e46542066726f6d207468652060448201527f6f776e657220746f207468652060546f6b656e5661756c746000000000000000606482015260840162000259565b60008381526003602090815260409182902080546001600160a01b0319166001600160a01b038516908117909155825190815290810185905286917f4e3883c75cc9c752bb1db2e406a822e4a75067ae77ad9a0a4d179f2709b9e1f6910160405180910390a26000827f00000000000000000000000000000000000000000000000000000000000000007f00000000000000000000000000000000000000000000000000000000000000008833886040516200087a9062000aea565b6001600160a01b039586168152938516602085015260408401929092529092166060820152608081019190915260a0018190604051809103906000f5905080158015620008cb573d6000803e3d6000fd5b509050816001600160a01b0316816001600160a01b031614620009575760405162461bcd60e51b815260206004820152603860248201527f50726564696374696e672061646472657373206973206661696c65642c20736f60448201527f20726576657274204e4654207472616e7366657272696e670000000000000000606482015260840162000259565b5050600180555092915050565b6200096e620009e3565b6001600160a01b038116620009d55760405162461bcd60e51b815260206004820152602660248201527f4f776e61626c653a206e6577206f776e657220697320746865207a65726f206160448201526564647265737360d01b606482015260840162000259565b620009e08162000a3f565b50565b6000546001600160a01b03163314620004535760405162461bcd60e51b815260206004820181905260248201527f4f776e61626c653a2063616c6c6572206973206e6f7420746865206f776e6572604482015260640162000259565b600080546001600160a01b038381166001600160a01b0319831681178455604051919092169283917f8be0079c531659141344cd1fd0a4f28419497f9722a3daafe3b4186f6b6457e09190a35050565b60026001540362000ae35760405162461bcd60e51b815260206004820152601f60248201527f5265656e7472616e637947756172643a207265656e7472616e742063616c6c00604482015260640162000259565b6002600155565b610aa98062000cab83390190565b60008060006040848603121562000b0e57600080fd5b83359250602084013567ffffffffffffffff8082111562000b2e57600080fd5b818601915086601f83011262000b4357600080fd5b81358181111562000b5357600080fd5b87602082850101111562000b6657600080fd5b6020830194508093505050509250925092565b60006020828403121562000b8c57600080fd5b5035919050565b6001600160a01b0381168114620009e057600080fd5b60006020828403121562000bbc57600080fd5b813562000bc98162000b93565b9392505050565b6000806040838503121562000be457600080fd5b823562000bf18162000b93565b946020939093013593505050565b8183823760009101908152919050565b60006020828403121562000c2257600080fd5b815162000bc98162000b93565b60006001820162000c5057634e487b7160e01b600052601160045260246000fd5b5060010190565b6000815160005b8181101562000c7a576020818501810151868301520162000c5e565b50600093019283525090919050565b600062000ca262000c9b838662000c57565b8462000c57565b94935050505056fe61018060405234801561001157600080fd5b50604051610aa9380380610aa983398101604081905261003091610474565b6001600160a01b0385811660805284811660a081905260c085905290831660e0526101008290526040516331a9108f60e11b815260048101859052309190636352211e90602401602060405180830381865afa158015610094573d6000803e3d6000fd5b505050506040513d601f19601f820116820180604052508101906100b891906104d5565b6001600160a01b0316146101225760405162461bcd60e51b815260206004820152602660248201527f4e65772060546f6b656e5661756c746020686173206e6f74206f776e656420746044820152651a194813919560d21b60648201526084015b60405180910390fd5b61015d6040518060a0016040528060608152602001600081526020016000815260200160006001600160401b03168152602001600081525090565b60a05160c05160405163463d31d760e11b81526001600160a01b0390921691638c7a63ae916101929160040190815260200190565b600060405180830381865afa9250505080156101d057506040513d6000823e601f3d908101601f191682016040526101cd9190810190610583565b60015b6102425760405162461bcd60e51b815260206004820152603960248201527f4661696c656420746f206765742060546f6b656e496e666f602066726f6d204360448201527f6172626f6e20437265646974204e465420636f6e7472616374000000000000006064820152608401610119565b905060a0516001600160a01b03166346a62eaf82604001516040518263ffffffff1660e01b815260040161027891815260200190565b602060405180830381865afa9250505080156102b1575060408051601f3d908101601f191682019092526102ae91810190610689565b60015b6103235760405162461bcd60e51b815260206004820152603560248201527f4661696c656420746f206765742060726174696f602066726f6d20436172626f60448201527f6e20437265646974204e465420636f6e747261637400000000000000000000006064820152608401610119565b61ffff811661012081905260608301516001600160401b031661014081905261034c91906106ad565b61016081905260805160e0516101005160a05161012051604051636afdebeb60e11b81526001600160a01b03948516600482015260248101939093529083166044830152606482019490945261ffff909316608484015260009350169063d5fbd7d69060a4016020604051808303816000875af11580156103d1573d6000803e3d6000fd5b505050506040513d601f19601f820116820180604052508101906103f591906106d8565b9050806104505760405162461bcd60e51b8152602060048201526024808201527f4661696c656420746f206d696e74206e657720436172626f6e204372656469746044820152632046547360e01b6064820152608401610119565b505050505050506106fa565b6001600160a01b038116811461047157600080fd5b50565b600080600080600060a0868803121561048c57600080fd5b85516104978161045c565b60208701519095506104a88161045c565b6040870151606088015191955093506104c08161045c565b80925050608086015190509295509295909350565b6000602082840312156104e757600080fd5b81516104f28161045c565b9392505050565b634e487b7160e01b600052604160045260246000fd5b60405160a081016001600160401b0381118282101715610531576105316104f9565b60405290565b604051601f8201601f191681016001600160401b038111828210171561055f5761055f6104f9565b604052919050565b80516001600160401b038116811461057e57600080fd5b919050565b6000602080838503121561059657600080fd5b82516001600160401b03808211156105ad57600080fd5b9084019060a082870312156105c157600080fd5b6105c961050f565b8251828111156105d857600080fd5b8301601f810188136105e957600080fd5b8051838111156105fb576105fb6104f9565b61060d601f8201601f19168701610537565b9350808452888682840101111561062357600080fd5b60005b81811015610641578281018701518582018801528601610626565b506000868286010152505081815283830151848201526040830151604082015261066d60608401610567565b6060820152608083015160808201528094505050505092915050565b60006020828403121561069b57600080fd5b815161ffff811681146104f257600080fd5b80820281158282048414176106d257634e487b7160e01b600052601160045260246000fd5b92915050565b6000602082840312156106ea57600080fd5b815180151581146104f257600080fd5b60805160a05160c05160e0516101005161012051610140516101605161034c61075d600039600060e1015260006101fd015260006101c30152600061019c01526000609d0152600061014e015260006101750152600061023d015261034c6000f3fe608060405234801561001057600080fd5b50600436106100935760003560e01c80632495a599116100665780632495a5991461017057806333194c0a1461019757806371ca337d146101be578063a1aab33f146101f8578063e46871061461023857600080fd5b806302d05d3f14610098578063047fc9aa146100dc578063150b7a021461011157806316e064c214610149575b600080fd5b6100bf7f000000000000000000000000000000000000000000000000000000000000000081565b6040516001600160a01b0390911681526020015b60405180910390f35b6101037f000000000000000000000000000000000000000000000000000000000000000081565b6040519081526020016100d3565b61013061011f36600461027b565b630a85bd0160e11b95945050505050565b6040516001600160e01b031990911681526020016100d3565b6101037f000000000000000000000000000000000000000000000000000000000000000081565b6100bf7f000000000000000000000000000000000000000000000000000000000000000081565b6101037f000000000000000000000000000000000000000000000000000000000000000081565b6101e57f000000000000000000000000000000000000000000000000000000000000000081565b60405161ffff90911681526020016100d3565b61021f7f000000000000000000000000000000000000000000000000000000000000000081565b60405167ffffffffffffffff90911681526020016100d3565b6100bf7f000000000000000000000000000000000000000000000000000000000000000081565b80356001600160a01b038116811461027657600080fd5b919050565b60008060008060006080868803121561029357600080fd5b61029c8661025f565b94506102aa6020870161025f565b935060408601359250606086013567ffffffffffffffff808211156102ce57600080fd5b818801915088601f8301126102e257600080fd5b8135818111156102f157600080fd5b89602082850101111561030357600080fd5b969995985093965060200194939250505056fea2646970667358221220826b523c798a1c041d78c28ab286f937447953e3db2c3b9942d7ba1cd718895164736f6c63430008110033a264697066735822122053cbfbfc07ac11151dc53270ab725abdf2d52eb559dc13df54a31e7fc65d72f864736f6c63430008110033",
  "linkReferences": {},
  "deployedLinkReferences": {}
}