{
  "_format": "hh-sol-artifact-1",
  "contractName": "CarbonCreditNFT",
  "sourceName": "contracts/nft/CarbonCreditNFT.sol",
  "abi": [
    {
      "inputs": [
        {
          "internalType": "string",
          "name": "name",
          "type": "string"
        },
        {
          "internalType": "string",
          "name": "symbol",
          "type": "string"
        },
        {
          "internalType": "uint256",
          "name": "maxSupply",
          "type": "uint256"
        }
      ],
      "stateMutability": "nonpayable",
      "type": "constructor"
    },
    {
      "anonymous": false,
      "inputs": [
        {
          "indexed": true,
          "internalType": "address",
          "name": "owner",
          "type": "address"
        },
        {
          "indexed": true,
          "internalType": "address",
          "name": "approved",
          "type": "address"
        },
        {
          "indexed": true,
          "internalType": "uint256",
          "name": "tokenId",
          "type": "uint256"
        }
      ],
      "name": "Approval",
      "type": "event"
    },
    {
      "anonymous": false,
      "inputs": [
        {
          "indexed": true,
          "internalType": "address",
          "name": "owner",
          "type": "address"
        },
        {
          "indexed": true,
          "internalType": "address",
          "name": "operator",
          "type": "address"
        },
        {
          "indexed": false,
          "internalType": "bool",
          "name": "approved",
          "type": "bool"
        }
      ],
      "name": "ApprovalForAll",
      "type": "event"
    },
    {
      "anonymous": false,
      "inputs": [
        {
          "indexed": true,
          "internalType": "address",
          "name": "previousOwner",
          "type": "address"
        },
        {
          "indexed": true,
          "internalType": "address",
          "name": "newOwner",
          "type": "address"
        }
      ],
      "name": "OwnershipTransferred",
      "type": "event"
    },
    {
      "anonymous": false,
      "inputs": [
        {
          "indexed": true,
          "internalType": "address",
          "name": "from",
          "type": "address"
        },
        {
          "indexed": true,
          "internalType": "address",
          "name": "to",
          "type": "address"
        },
        {
          "indexed": true,
          "internalType": "uint256",
          "name": "tokenId",
          "type": "uint256"
        }
      ],
      "name": "Transfer",
      "type": "event"
    },
    {
      "inputs": [
        {
          "internalType": "string",
          "name": "issueBy",
          "type": "string"
        }
      ],
      "name": "addIssueBy",
      "outputs": [
        {
          "internalType": "bool",
          "name": "",
          "type": "bool"
        }
      ],
      "stateMutability": "nonpayable",
      "type": "function"
    },
    {
      "inputs": [
        {
          "internalType": "uint256",
          "name": "issueById",
          "type": "uint256"
        },
        {
          "internalType": "uint16",
          "name": "ratio",
          "type": "uint16"
        }
      ],
      "name": "addOrSetRatio",
      "outputs": [
        {
          "internalType": "bool",
          "name": "",
          "type": "bool"
        }
      ],
      "stateMutability": "nonpayable",
      "type": "function"
    },
    {
      "inputs": [
        {
          "internalType": "string",
          "name": "source",
          "type": "string"
        }
      ],
      "name": "addSource",
      "outputs": [
        {
          "internalType": "bool",
          "name": "",
          "type": "bool"
        }
      ],
      "stateMutability": "nonpayable",
      "type": "function"
    },
    {
      "inputs": [
        {
          "internalType": "address",
          "name": "to",
          "type": "address"
        },
        {
          "internalType": "uint256",
          "name": "tokenId",
          "type": "uint256"
        }
      ],
      "name": "approve",
      "outputs": [],
      "stateMutability": "nonpayable",
      "type": "function"
    },
    {
      "inputs": [
        {
          "internalType": "address",
          "name": "owner",
          "type": "address"
        }
      ],
      "name": "balanceOf",
      "outputs": [
        {
          "internalType": "uint256",
          "name": "",
          "type": "uint256"
        }
      ],
      "stateMutability": "view",
      "type": "function"
    },
    {
      "inputs": [
        {
          "internalType": "uint256",
          "name": "tokenId",
          "type": "uint256"
        }
      ],
      "name": "burnToken",
      "outputs": [
        {
          "internalType": "bool",
          "name": "",
          "type": "bool"
        }
      ],
      "stateMutability": "nonpayable",
      "type": "function"
    },
    {
      "inputs": [
        {
          "internalType": "uint256",
          "name": "tokenId",
          "type": "uint256"
        }
      ],
      "name": "getApproved",
      "outputs": [
        {
          "internalType": "address",
          "name": "",
          "type": "address"
        }
      ],
      "stateMutability": "view",
      "type": "function"
    },
    {
      "inputs": [],
      "name": "getIssueByList",
      "outputs": [
        {
          "internalType": "string[]",
          "name": "",
          "type": "string[]"
        }
      ],
      "stateMutability": "view",
      "type": "function"
    },
    {
      "inputs": [
        {
          "internalType": "uint256",
          "name": "issueById",
          "type": "uint256"
        }
      ],
      "name": "getRatio",
      "outputs": [
        {
          "internalType": "uint16",
          "name": "",
          "type": "uint16"
        }
      ],
      "stateMutability": "view",
      "type": "function"
    },
    {
      "inputs": [],
      "name": "getSourceList",
      "outputs": [
        {
          "internalType": "string[]",
          "name": "",
          "type": "string[]"
        }
      ],
      "stateMutability": "view",
      "type": "function"
    },
    {
      "inputs": [
        {
          "internalType": "uint256",
          "name": "tokenId",
          "type": "uint256"
        }
      ],
      "name": "getTokenInfo",
      "outputs": [
        {
          "components": [
            {
              "internalType": "string",
              "name": "certId",
              "type": "string"
            },
            {
              "internalType": "uint256",
              "name": "sourceId",
              "type": "uint256"
            },
            {
              "internalType": "uint256",
              "name": "issueById",
              "type": "uint256"
            },
            {
              "internalType": "uint64",
              "name": "weight",
              "type": "uint64"
            },
            {
              "internalType": "uint256",
              "name": "date",
              "type": "uint256"
            }
          ],
          "internalType": "struct CarbonCreditNFT.TokenInfo",
          "name": "",
          "type": "tuple"
        }
      ],
      "stateMutability": "view",
      "type": "function"
    },
    {
      "inputs": [
        {
          "internalType": "address",
          "name": "owner",
          "type": "address"
        },
        {
          "internalType": "address",
          "name": "operator",
          "type": "address"
        }
      ],
      "name": "isApprovedForAll",
      "outputs": [
        {
          "internalType": "bool",
          "name": "",
          "type": "bool"
        }
      ],
      "stateMutability": "view",
      "type": "function"
    },
    {
      "inputs": [
        {
          "internalType": "uint256",
          "name": "",
          "type": "uint256"
        }
      ],
      "name": "issueByList",
      "outputs": [
        {
          "internalType": "string",
          "name": "",
          "type": "string"
        }
      ],
      "stateMutability": "view",
      "type": "function"
    },
    {
      "inputs": [],
      "name": "maxTokenSupply",
      "outputs": [
        {
          "internalType": "uint256",
          "name": "",
          "type": "uint256"
        }
      ],
      "stateMutability": "view",
      "type": "function"
    },
    {
      "inputs": [
        {
          "components": [
            {
              "internalType": "string",
              "name": "certId",
              "type": "string"
            },
            {
              "internalType": "uint256",
              "name": "sourceId",
              "type": "uint256"
            },
            {
              "internalType": "uint256",
              "name": "issueById",
              "type": "uint256"
            },
            {
              "internalType": "uint64",
              "name": "weight",
              "type": "uint64"
            }
          ],
          "internalType": "struct CarbonCreditNFT.NewTokenData",
          "name": "_newTokenData",
          "type": "tuple"
        },
        {
          "internalType": "address",
          "name": "receiver",
          "type": "address"
        }
      ],
      "name": "mintToken",
      "outputs": [
        {
          "internalType": "bool",
          "name": "",
          "type": "bool"
        }
      ],
      "stateMutability": "nonpayable",
      "type": "function"
    },
    {
      "inputs": [],
      "name": "name",
      "outputs": [
        {
          "internalType": "string",
          "name": "",
          "type": "string"
        }
      ],
      "stateMutability": "view",
      "type": "function"
    },
    {
      "inputs": [],
      "name": "owner",
      "outputs": [
        {
          "internalType": "address",
          "name": "",
          "type": "address"
        }
      ],
      "stateMutability": "view",
      "type": "function"
    },
    {
      "inputs": [
        {
          "internalType": "uint256",
          "name": "tokenId",
          "type": "uint256"
        }
      ],
      "name": "ownerOf",
      "outputs": [
        {
          "internalType": "address",
          "name": "",
          "type": "address"
        }
      ],
      "stateMutability": "view",
      "type": "function"
    },
    {
      "inputs": [],
      "name": "renounceOwnership",
      "outputs": [],
      "stateMutability": "nonpayable",
      "type": "function"
    },
    {
      "inputs": [
        {
          "internalType": "address",
          "name": "from",
          "type": "address"
        },
        {
          "internalType": "address",
          "name": "to",
          "type": "address"
        },
        {
          "internalType": "uint256",
          "name": "tokenId",
          "type": "uint256"
        }
      ],
      "name": "safeTransferFrom",
      "outputs": [],
      "stateMutability": "nonpayable",
      "type": "function"
    },
    {
      "inputs": [
        {
          "internalType": "address",
          "name": "from",
          "type": "address"
        },
        {
          "internalType": "address",
          "name": "to",
          "type": "address"
        },
        {
          "internalType": "uint256",
          "name": "tokenId",
          "type": "uint256"
        },
        {
          "internalType": "bytes",
          "name": "data",
          "type": "bytes"
        }
      ],
      "name": "safeTransferFrom",
      "outputs": [],
      "stateMutability": "nonpayable",
      "type": "function"
    },
    {
      "inputs": [
        {
          "internalType": "address",
          "name": "operator",
          "type": "address"
        },
        {
          "internalType": "bool",
          "name": "approved",
          "type": "bool"
        }
      ],
      "name": "setApprovalForAll",
      "outputs": [],
      "stateMutability": "nonpayable",
      "type": "function"
    },
    {
      "inputs": [
        {
          "internalType": "uint256",
          "name": "",
          "type": "uint256"
        }
      ],
      "name": "sourceList",
      "outputs": [
        {
          "internalType": "string",
          "name": "",
          "type": "string"
        }
      ],
      "stateMutability": "view",
      "type": "function"
    },
    {
      "inputs": [
        {
          "internalType": "bytes4",
          "name": "interfaceId",
          "type": "bytes4"
        }
      ],
      "name": "supportsInterface",
      "outputs": [
        {
          "internalType": "bool",
          "name": "",
          "type": "bool"
        }
      ],
      "stateMutability": "view",
      "type": "function"
    },
    {
      "inputs": [],
      "name": "symbol",
      "outputs": [
        {
          "internalType": "string",
          "name": "",
          "type": "string"
        }
      ],
      "stateMutability": "view",
      "type": "function"
    },
    {
      "inputs": [
        {
          "internalType": "uint256",
          "name": "index",
          "type": "uint256"
        }
      ],
      "name": "tokenByIndex",
      "outputs": [
        {
          "internalType": "uint256",
          "name": "",
          "type": "uint256"
        }
      ],
      "stateMutability": "view",
      "type": "function"
    },
    {
      "inputs": [
        {
          "internalType": "address",
          "name": "owner",
          "type": "address"
        },
        {
          "internalType": "uint256",
          "name": "index",
          "type": "uint256"
        }
      ],
      "name": "tokenOfOwnerByIndex",
      "outputs": [
        {
          "internalType": "uint256",
          "name": "",
          "type": "uint256"
        }
      ],
      "stateMutability": "view",
      "type": "function"
    },
    {
      "inputs": [
        {
          "internalType": "uint256",
          "name": "tokenId",
          "type": "uint256"
        }
      ],
      "name": "tokenURI",
      "outputs": [
        {
          "internalType": "string",
          "name": "",
          "type": "string"
        }
      ],
      "stateMutability": "view",
      "type": "function"
    },
    {
      "inputs": [],
      "name": "totalSupply",
      "outputs": [
        {
          "internalType": "uint256",
          "name": "",
          "type": "uint256"
        }
      ],
      "stateMutability": "view",
      "type": "function"
    },
    {
      "inputs": [
        {
          "internalType": "address",
          "name": "from",
          "type": "address"
        },
        {
          "internalType": "address",
          "name": "to",
          "type": "address"
        },
        {
          "internalType": "uint256",
          "name": "tokenId",
          "type": "uint256"
        }
      ],
      "name": "transferFrom",
      "outputs": [],
      "stateMutability": "nonpayable",
      "type": "function"
    },
    {
      "inputs": [
        {
          "internalType": "address",
          "name": "newOwner",
          "type": "address"
        }
      ],
      "name": "transferOwnership",
      "outputs": [],
      "stateMutability": "nonpayable",
      "type": "function"
    }
  ],
  "bytecode": "0x60a06040523480156200001157600080fd5b50604051620030b1380380620030b1833981016040819052620000349162000189565b60016000558282620000463362000072565b60026200005483826200028b565b5060036200006382826200028b565b50505060805250620003579050565b600180546001600160a01b038381166001600160a01b0319831681179093556040519116919082907f8be0079c531659141344cd1fd0a4f28419497f9722a3daafe3b4186f6b6457e090600090a35050565b634e487b7160e01b600052604160045260246000fd5b600082601f830112620000ec57600080fd5b81516001600160401b0380821115620001095762000109620000c4565b604051601f8301601f19908116603f01168101908282118183101715620001345762000134620000c4565b816040528381526020925086838588010111156200015157600080fd5b600091505b8382101562000175578582018301518183018401529082019062000156565b600093810190920192909252949350505050565b6000806000606084860312156200019f57600080fd5b83516001600160401b0380821115620001b757600080fd5b620001c587838801620000da565b94506020860151915080821115620001dc57600080fd5b50620001eb86828701620000da565b925050604084015190509250925092565b600181811c908216806200021157607f821691505b6020821081036200023257634e487b7160e01b600052602260045260246000fd5b50919050565b601f8211156200028657600081815260208120601f850160051c81016020861015620002615750805b601f850160051c820191505b8181101562000282578281556001016200026d565b5050505b505050565b81516001600160401b03811115620002a757620002a7620000c4565b620002bf81620002b88454620001fc565b8462000238565b602080601f831160018114620002f75760008415620002de5750858301515b600019600386901b1c1916600185901b17855562000282565b600085815260208120601f198616915b82811015620003285788860151825594840194600190910190840162000307565b5085821015620003475787850151600019600388901b60f8161c191681555b5050505050600190811b01905550565b608051612d376200037a6000396000818161031401526113600152612d376000f3fe608060405234801561001057600080fd5b50600436106101e55760003560e01c8063715018a61161010f578063aec0be13116100a2578063e985e9c511610071578063e985e9c51461043f578063ed62d2ff1461047b578063f2fde38b1461048e578063fcc9aa8d146104a157600080fd5b8063aec0be13146103fe578063b88d4fde14610411578063c87b56dd14610424578063cb5d372a1461043757600080fd5b80638f75c9c1116100de5780638f75c9c1146103bb57806390d59643146103d057806395d89b41146103e3578063a22cb465146103eb57600080fd5b8063715018a61461036f5780637b47ec1a146103775780638c7a63ae1461038a5780638da5cb5b146103aa57600080fd5b80632f745c591161018757806350f7c2041161015657806350f7c2041461030f5780636352211e1461033657806368f95d071461034957806370a082311461035c57600080fd5b80632f745c591461029f57806342842e0e146102b257806346a62eaf146102c55780634f6ccce7146102fc57600080fd5b8063095ea7b3116101c3578063095ea7b31461025257806318160ddd1461026757806323b872dd1461027957806327bb9ede1461028c57600080fd5b806301ffc9a7146101ea57806306fdde0314610212578063081812fc14610227575b600080fd5b6101fd6101f83660046123b7565b6104b4565b60405190151581526020015b60405180910390f35b61021a6104c5565b6040516102099190612424565b61023a610235366004612437565b610557565b6040516001600160a01b039091168152602001610209565b610265610260366004612467565b61057e565b005b600a545b604051908152602001610209565b610265610287366004612491565b610698565b6101fd61029a3660046124cd565b6106c9565b61026b6102ad366004612467565b6107d2565b6102656102c0366004612491565b610868565b6102e96102d3366004612437565b60009081526010602052604090205461ffff1690565b60405161ffff9091168152602001610209565b61026b61030a366004612437565b610883565b61026b7f000000000000000000000000000000000000000000000000000000000000000081565b61023a610344366004612437565b610916565b6101fd61035736600461253e565b610976565b61026b61036a366004612590565b610991565b610265610a17565b6101fd610385366004612437565b610a2b565b61039d610398366004612437565b610a36565b60405161020991906125ab565b6001546001600160a01b031661023a565b6103c3610b57565b6040516102099190612604565b6101fd6103de366004612666565b610c30565b61021a610cb4565b6102656103f936600461269d565b610cc3565b61021a61040c366004612437565b610cd2565b61026561041f3660046126e4565b610d7e565b61021a610432366004612437565b610db7565b6103c3610dc2565b6101fd61044d3660046127bf565b6001600160a01b03918216600090815260076020908152604080832093909416825291909152205460ff1690565b6101fd6104893660046124cd565b610e92565b61026561049c366004612590565b610f8f565b61021a6104af366004612437565b611008565b60006104bf82611018565b92915050565b6060600280546104d4906127db565b80601f0160208091040260200160405190810160405280929190818152602001828054610500906127db565b801561054d5780601f106105225761010080835404028352916020019161054d565b820191906000526020600020905b81548152906001019060200180831161053057829003601f168201915b5050505050905090565b60006105628261103d565b506000908152600660205260409020546001600160a01b031690565b600061058982610916565b9050806001600160a01b0316836001600160a01b0316036105fb5760405162461bcd60e51b815260206004820152602160248201527f4552433732313a20617070726f76616c20746f2063757272656e74206f776e656044820152603960f91b60648201526084015b60405180910390fd5b336001600160a01b03821614806106175750610617813361044d565b6106895760405162461bcd60e51b815260206004820152603d60248201527f4552433732313a20617070726f76652063616c6c6572206973206e6f7420746f60448201527f6b656e206f776e6572206f7220617070726f76656420666f7220616c6c00000060648201526084016105f2565b610693838361109c565b505050565b6106a2338261110a565b6106be5760405162461bcd60e51b81526004016105f290612815565b610693838383611189565b60006106d36112fa565b8161072f5760405162461bcd60e51b815260206004820152602660248201527f4e657720656c656d656e74206069737375654279602063616e206e6f7420626560448201526520656d70747960d01b60648201526084016105f2565b604082111561078b5760405162461bcd60e51b815260206004820152602260248201527f4e657720656c656d656e742060697373756542796020697320746f6f206c6f6e604482015261339760f11b60648201526084016105f2565b600d80546001810182556000919091527fd7b6990105719101dabeb77144f2a3385c8033acd3af97e9423a695e81ad1eb5016107c88385836128b0565b5060019392505050565b60006107dd83610991565b821061083f5760405162461bcd60e51b815260206004820152602b60248201527f455243373231456e756d657261626c653a206f776e657220696e646578206f7560448201526a74206f6620626f756e647360a81b60648201526084016105f2565b506001600160a01b03919091166000908152600860209081526040808320938352929052205490565b61069383838360405180602001604052806000815250610d7e565b600061088e600a5490565b82106108f15760405162461bcd60e51b815260206004820152602c60248201527f455243373231456e756d657261626c653a20676c6f62616c20696e646578206f60448201526b7574206f6620626f756e647360a01b60648201526084016105f2565b600a82815481106109045761090461296f565b90600052602060002001549050919050565b6000818152600460205260408120546001600160a01b0316806104bf5760405162461bcd60e51b8152602060048201526018602482015277115490cdcc8c4e881a5b9d985b1a59081d1bdad95b88125160421b60448201526064016105f2565b60006109806112fa565b61098a8383611354565b9392505050565b60006001600160a01b0382166109fb5760405162461bcd60e51b815260206004820152602960248201527f4552433732313a2061646472657373207a65726f206973206e6f7420612076616044820152683634b21037bbb732b960b91b60648201526084016105f2565b506001600160a01b031660009081526005602052604090205490565b610a1f6112fa565b610a296000611403565b565b60006104bf82611455565b610a716040518060a0016040528060608152602001600081526020016000815260200160006001600160401b03168152602001600081525090565b6000196000838152600f602052604090819020815160a08101909252805482908290610a9c906127db565b80601f0160208091040260200160405190810160405280929190818152602001828054610ac8906127db565b8015610b155780601f10610aea57610100808354040283529160200191610b15565b820191906000526020600020905b815481529060010190602001808311610af857829003601f168201915b5050509183525050600182015460208201526002820154604082015260038201546001600160401b031660608201526004909101546080909101529392505050565b6060600d805480602002602001604051908101604052809291908181526020016000905b82821015610c27578382906000526020600020018054610b9a906127db565b80601f0160208091040260200160405190810160405280929190818152602001828054610bc6906127db565b8015610c135780601f10610be857610100808354040283529160200191610c13565b820191906000526020600020905b815481529060010190602001808311610bf657829003601f168201915b505050505081526020019060010190610b7b565b50505050905090565b6000610c3a6112fa565b60001961ffff838116811015610c8a5760405162461bcd60e51b81526020600482015260156024820152742732bb903930ba34b79034b9903a37b7903134b39760591b60448201526064016105f2565b5050506000828152601060205260409020805461ffff831661ffff19909116179055600192915050565b6060600380546104d4906127db565b610cce3383836114cf565b5050565b600c8181548110610ce257600080fd5b906000526020600020016000915090508054610cfd906127db565b80601f0160208091040260200160405190810160405280929190818152602001828054610d29906127db565b8015610d765780601f10610d4b57610100808354040283529160200191610d76565b820191906000526020600020905b815481529060010190602001808311610d5957829003601f168201915b505050505081565b610d89335b8361110a565b610da55760405162461bcd60e51b81526004016105f290612815565b610db18484848461159d565b50505050565b60606104bf826115d0565b6060600c805480602002602001604051908101604052809291908181526020016000905b82821015610c27578382906000526020600020018054610e05906127db565b80601f0160208091040260200160405190810160405280929190818152602001828054610e31906127db565b8015610e7e5780601f10610e5357610100808354040283529160200191610e7e565b820191906000526020600020905b815481529060010190602001808311610e6157829003601f168201915b505050505081526020019060010190610de6565b6000610e9c6112fa565b81610ef75760405162461bcd60e51b815260206004820152602560248201527f4e657720656c656d656e742060736f75726365602063616e206e6f7420626520604482015264656d70747960d81b60648201526084016105f2565b6040821115610f525760405162461bcd60e51b815260206004820152602160248201527f4e657720656c656d656e742060736f757263656020697320746f6f206c6f6e676044820152601760f91b60648201526084016105f2565b600c80546001810182556000919091527fdf6966c971051c3d54ec59162606531493a51404a002842f56009d7e5cf4a8c7016107c88385836128b0565b610f976112fa565b6001600160a01b038116610ffc5760405162461bcd60e51b815260206004820152602660248201527f4f776e61626c653a206e6577206f776e657220697320746865207a65726f206160448201526564647265737360d01b60648201526084016105f2565b61100581611403565b50565b600d8181548110610ce257600080fd5b60006001600160e01b0319821663780e9d6360e01b14806104bf57506104bf8261174f565b6000818152600460205260409020546001600160a01b03166110055760405162461bcd60e51b8152602060048201526018602482015277115490cdcc8c4e881a5b9d985b1a59081d1bdad95b88125160421b60448201526064016105f2565b600081815260066020526040902080546001600160a01b0319166001600160a01b03841690811790915581906110d182610916565b6001600160a01b03167f8c5be1e5ebec7d5bd14f71427d1e84f3dd0314c0f7b2291e5b200ac8c7c3b92560405160405180910390a45050565b60008061111683610916565b9050806001600160a01b0316846001600160a01b0316148061115d57506001600160a01b0380821660009081526007602090815260408083209388168352929052205460ff165b806111815750836001600160a01b031661117684610557565b6001600160a01b0316145b949350505050565b826001600160a01b031661119c82610916565b6001600160a01b0316146111c25760405162461bcd60e51b81526004016105f290612985565b6001600160a01b0382166112245760405162461bcd60e51b8152602060048201526024808201527f4552433732313a207472616e7366657220746f20746865207a65726f206164646044820152637265737360e01b60648201526084016105f2565b611231838383600161179f565b826001600160a01b031661124482610916565b6001600160a01b03161461126a5760405162461bcd60e51b81526004016105f290612985565b600081815260066020908152604080832080546001600160a01b03199081169091556001600160a01b0387811680865260058552838620805460001901905590871680865283862080546001019055868652600490945282852080549092168417909155905184937fddf252ad1be2c89b69c2b068fc378daa952ba7f163c4a11628f55a4df523b3ef91a4505050565b6001546001600160a01b03163314610a295760405162461bcd60e51b815260206004820181905260248201527f4f776e61626c653a2063616c6c6572206973206e6f7420746865206f776e657260448201526064016105f2565b600061135e6117ab565b7f0000000000000000000000000000000000000000000000000000000000000000611388600a5490565b106113d55760405162461bcd60e51b815260206004820152601e60248201527f54686572652061726520746f6f206d616e79206d696e746564204e46542e000060448201526064016105f2565b600e8054600181019091556113ea8382611804565b6113f4818561181e565b60019150506104bf6001600055565b600180546001600160a01b038381166001600160a01b0319831681179093556040519116919082907f8be0079c531659141344cd1fd0a4f28419497f9722a3daafe3b4186f6b6457e090600090a35050565b600061145f6117ab565b61146833610d83565b6114b45760405162461bcd60e51b815260206004820152601960248201527f596f752063616e6e6f74206275726e2074686973204e46542e0000000000000060448201526064016105f2565b6114bd82611a01565b5060016114ca6001600055565b919050565b816001600160a01b0316836001600160a01b0316036115305760405162461bcd60e51b815260206004820152601960248201527f4552433732313a20617070726f766520746f2063616c6c65720000000000000060448201526064016105f2565b6001600160a01b03838116600081815260076020908152604080832094871680845294825291829020805460ff191686151590811790915591519182527f17307eab39ab6107e8899845ad3d59bd9653f200f220920489ca2b5937696c31910160405180910390a3505050565b6115a8848484611189565b6115b484848484611a63565b610db15760405162461bcd60e51b81526004016105f2906129ca565b60606000600f60008481526020019081526020016000206040518060a0016040529081600082018054611602906127db565b80601f016020809104026020016040519081016040528092919081815260200182805461162e906127db565b801561167b5780601f106116505761010080835404028352916020019161167b565b820191906000526020600020905b81548152906001019060200180831161165e57829003601f168201915b505050918352505060018201546020808301919091526002830154604083015260038301546001600160401b03166060830152600490920154608090910152815190820151919250611728916116d090611b64565b6116dd8460400151611b64565b6116f385606001516001600160401b0316611b64565b6117008660800151611b64565b604051602001611714959493929190612a1c565b604051602081830303815290604052611bf6565b6040516020016117389190612b21565b604051602081830303815290604052915050919050565b60006001600160e01b031982166380ac58cd60e01b148061178057506001600160e01b03198216635b5e139f60e01b145b806104bf57506301ffc9a760e01b6001600160e01b03198316146104bf565b610db184848484611d48565b6002600054036117fd5760405162461bcd60e51b815260206004820152601f60248201527f5265656e7472616e637947756172643a207265656e7472616e742063616c6c0060448201526064016105f2565b6002600055565b610cce828260405180602001604052806000815250611e7c565b6000828152600460205260409020546001600160a01b03166118995760405162461bcd60e51b815260206004820152602e60248201527f45524337323155524953746f726167653a2055524920736574206f66206e6f6e60448201526d32bc34b9ba32b73a103a37b5b2b760911b60648201526084016105f2565b60406118a58280612b66565b905011156119055760405162461bcd60e51b815260206004820152602760248201527f4e6577206d696e74696e67204e4654277320606365727449646020697320746f60448201526637903637b7339760c91b60648201526084016105f2565b6000196001600160401b03806119216080850160608601612bb3565b6001600160401b031611156119875760405162461bcd60e51b815260206004820152602660248201527f4e6577206d696e74696e67204e4654277320607765696768746020697320746f60448201526537903134b39760d11b60648201526084016105f2565b6000848152600f6020526040902061199f8480612b66565b82916119ac9190836128b0565b5060208401356001820155604084013560028201556119d16080850160608601612bb3565b60038201805467ffffffffffffffff19166001600160401b03929092169190911790554260049091015550505050565b611a0a81611eaf565b6000818152600f6020526040902080548190611a25906127db565b159050611a3757611a37816000612353565b6000600182018190556002820181905560038201805467ffffffffffffffff1916905560049091015550565b60006001600160a01b0384163b15611b5957604051630a85bd0160e11b81526001600160a01b0385169063150b7a0290611aa7903390899088908890600401612bdc565b6020604051808303816000875af1925050508015611ae2575060408051601f3d908101601f19168201909252611adf91810190612c19565b60015b611b3f573d808015611b10576040519150601f19603f3d011682016040523d82523d6000602084013e611b15565b606091505b508051600003611b375760405162461bcd60e51b81526004016105f2906129ca565b805181602001fd5b6001600160e01b031916630a85bd0160e11b149050611181565b506001949350505050565b60606000611b7183611f52565b60010190506000816001600160401b03811115611b9057611b906126ce565b6040519080825280601f01601f191660200182016040528015611bba576020820181803683370190505b5090508181016020015b600019016f181899199a1a9b1b9c1cb0b131b232b360811b600a86061a8153600a8504945084611bc457509392505050565b60608151600003611c1557505060408051602081019091526000815290565b6000604051806060016040528060408152602001612cc26040913990506000600384516002611c449190612c4c565b611c4e9190612c5f565b611c59906004612c81565b6001600160401b03811115611c7057611c706126ce565b6040519080825280601f01601f191660200182016040528015611c9a576020820181803683370190505b509050600182016020820185865187015b80821015611d06576003820191508151603f8160121c168501518453600184019350603f81600c1c168501518453600184019350603f8160061c168501518453600184019350603f8116850151845350600183019250611cab565b5050600386510660018114611d225760028114611d3557611d3d565b603d6001830353603d6002830353611d3d565b603d60018303535b509195945050505050565b6001811115611db75760405162461bcd60e51b815260206004820152603560248201527f455243373231456e756d657261626c653a20636f6e7365637574697665207472604482015274185b9cd9995c9cc81b9bdd081cdd5c1c1bdc9d1959605a1b60648201526084016105f2565b816001600160a01b038516611e1357611e0e81600a80546000838152600b60205260408120829055600182018355919091527fc65a7bb8d6351c1cf70c95a316cc6a92839c986682d98bc35f958f4883f9d2a80155565b611e36565b836001600160a01b0316856001600160a01b031614611e3657611e36858261202a565b6001600160a01b038416611e5257611e4d816120c7565b611e75565b846001600160a01b0316846001600160a01b031614611e7557611e758482612176565b5050505050565b611e8683836121ba565b611e936000848484611a63565b6106935760405162461bcd60e51b81526004016105f2906129ca565b6000611eba82610916565b9050611eca81600084600161179f565b611ed382610916565b600083815260066020908152604080832080546001600160a01b03199081169091556001600160a01b0385168085526005845282852080546000190190558785526004909352818420805490911690555192935084927fddf252ad1be2c89b69c2b068fc378daa952ba7f163c4a11628f55a4df523b3ef908390a45050565b60008072184f03e93ff9f4daa797ed6e38ed64bf6a1f0160401b8310611f915772184f03e93ff9f4daa797ed6e38ed64bf6a1f0160401b830492506040015b6d04ee2d6d415b85acef81000000008310611fbd576d04ee2d6d415b85acef8100000000830492506020015b662386f26fc100008310611fdb57662386f26fc10000830492506010015b6305f5e1008310611ff3576305f5e100830492506008015b612710831061200757612710830492506004015b60648310612019576064830492506002015b600a83106104bf5760010192915050565b6000600161203784610991565b6120419190612c98565b600083815260096020526040902054909150808214612094576001600160a01b03841660009081526008602090815260408083208584528252808320548484528184208190558352600990915290208190555b5060009182526009602090815260408084208490556001600160a01b039094168352600881528383209183525290812055565b600a546000906120d990600190612c98565b6000838152600b6020526040812054600a80549394509092849081106121015761210161296f565b9060005260206000200154905080600a83815481106121225761212261296f565b6000918252602080832090910192909255828152600b9091526040808220849055858252812055600a80548061215a5761215a612cab565b6001900381819060005260206000200160009055905550505050565b600061218183610991565b6001600160a01b039093166000908152600860209081526040808320868452825280832085905593825260099052919091209190915550565b6001600160a01b0382166122105760405162461bcd60e51b815260206004820181905260248201527f4552433732313a206d696e7420746f20746865207a65726f206164647265737360448201526064016105f2565b6000818152600460205260409020546001600160a01b0316156122755760405162461bcd60e51b815260206004820152601c60248201527f4552433732313a20746f6b656e20616c7265616479206d696e7465640000000060448201526064016105f2565b61228360008383600161179f565b6000818152600460205260409020546001600160a01b0316156122e85760405162461bcd60e51b815260206004820152601c60248201527f4552433732313a20746f6b656e20616c7265616479206d696e7465640000000060448201526064016105f2565b6001600160a01b038216600081815260056020908152604080832080546001019055848352600490915280822080546001600160a01b0319168417905551839291907fddf252ad1be2c89b69c2b068fc378daa952ba7f163c4a11628f55a4df523b3ef908290a45050565b50805461235f906127db565b6000825580601f1061236f575050565b601f01602090049060005260206000209081019061100591905b8082111561239d5760008155600101612389565b5090565b6001600160e01b03198116811461100557600080fd5b6000602082840312156123c957600080fd5b813561098a816123a1565b60005b838110156123ef5781810151838201526020016123d7565b50506000910152565b600081518084526124108160208601602086016123d4565b601f01601f19169290920160200192915050565b60208152600061098a60208301846123f8565b60006020828403121561244957600080fd5b5035919050565b80356001600160a01b03811681146114ca57600080fd5b6000806040838503121561247a57600080fd5b61248383612450565b946020939093013593505050565b6000806000606084860312156124a657600080fd5b6124af84612450565b92506124bd60208501612450565b9150604084013590509250925092565b600080602083850312156124e057600080fd5b82356001600160401b03808211156124f757600080fd5b818501915085601f83011261250b57600080fd5b81358181111561251a57600080fd5b86602082850101111561252c57600080fd5b60209290920196919550909350505050565b6000806040838503121561255157600080fd5b82356001600160401b0381111561256757600080fd5b83016080818603121561257957600080fd5b915061258760208401612450565b90509250929050565b6000602082840312156125a257600080fd5b61098a82612450565b602081526000825160a060208401526125c760c08401826123f8565b905060208401516040840152604084015160608401526001600160401b036060850151166080840152608084015160a08401528091505092915050565b6000602080830181845280855180835260408601915060408160051b870101925083870160005b8281101561265957603f198886030184526126478583516123f8565b9450928501929085019060010161262b565b5092979650505050505050565b6000806040838503121561267957600080fd5b82359150602083013561ffff8116811461269257600080fd5b809150509250929050565b600080604083850312156126b057600080fd5b6126b983612450565b91506020830135801515811461269257600080fd5b634e487b7160e01b600052604160045260246000fd5b600080600080608085870312156126fa57600080fd5b61270385612450565b935061271160208601612450565b92506040850135915060608501356001600160401b038082111561273457600080fd5b818701915087601f83011261274857600080fd5b81358181111561275a5761275a6126ce565b604051601f8201601f19908116603f01168101908382118183101715612782576127826126ce565b816040528281528a602084870101111561279b57600080fd5b82602086016020830137600060208483010152809550505050505092959194509250565b600080604083850312156127d257600080fd5b61257983612450565b600181811c908216806127ef57607f821691505b60208210810361280f57634e487b7160e01b600052602260045260246000fd5b50919050565b6020808252602d908201527f4552433732313a2063616c6c6572206973206e6f7420746f6b656e206f776e6560408201526c1c881bdc88185c1c1c9bdd9959609a1b606082015260800190565b601f82111561069357600081815260208120601f850160051c810160208610156128895750805b601f850160051c820191505b818110156128a857828155600101612895565b505050505050565b6001600160401b038311156128c7576128c76126ce565b6128db836128d583546127db565b83612862565b6000601f84116001811461290f57600085156128f75750838201355b600019600387901b1c1916600186901b178355611e75565b600083815260209020601f19861690835b828110156129405786850135825560209485019460019092019101612920565b508682101561295d5760001960f88860031b161c19848701351681555b505060018560011b0183555050505050565b634e487b7160e01b600052603260045260246000fd5b60208082526025908201527f4552433732313a207472616e736665722066726f6d20696e636f72726563742060408201526437bbb732b960d91b606082015260800190565b60208082526032908201527f4552433732313a207472616e7366657220746f206e6f6e20455243373231526560408201527131b2b4bb32b91034b6b83632b6b2b73a32b960711b606082015260800190565b6a3d9131b2b93a24b2111d1160a91b81528551600090612a4381600b850160208b016123d4565b6e1116101139b7bab931b2a4b2111d1160891b600b918401918201528651612a7281601a840160208b016123d4565b6f1116101134b9b9bab2a13ca4b2111d1160811b601a92909101918201528551612aa381602a840160208a016123d4565b6c111610113bb2b4b3b43a111d1160991b602a92909101918201528451612ad18160378401602089016123d4565b6a111610113230ba32911d1160a91b603792909101918201528351612afd8160428401602088016123d4565b612b1460428284010161227d60f01b815260020190565b9998505050505050505050565b7f646174613a6170706c69636174696f6e2f6a736f6e3b6261736536342c000000815260008251612b5981601d8501602087016123d4565b91909101601d0192915050565b6000808335601e19843603018112612b7d57600080fd5b8301803591506001600160401b03821115612b9757600080fd5b602001915036819003821315612bac57600080fd5b9250929050565b600060208284031215612bc557600080fd5b81356001600160401b038116811461098a57600080fd5b6001600160a01b0385811682528416602082015260408101839052608060608201819052600090612c0f908301846123f8565b9695505050505050565b600060208284031215612c2b57600080fd5b815161098a816123a1565b634e487b7160e01b600052601160045260246000fd5b808201808211156104bf576104bf612c36565b600082612c7c57634e487b7160e01b600052601260045260246000fd5b500490565b80820281158282048414176104bf576104bf612c36565b818103818111156104bf576104bf612c36565b634e487b7160e01b600052603160045260246000fdfe4142434445464748494a4b4c4d4e4f505152535455565758595a6162636465666768696a6b6c6d6e6f707172737475767778797a303132333435363738392b2fa2646970667358221220826fed5c85e065e551dc5ee1e9d9d7abf143ff6ef9840cdb7f129cf938da09ba64736f6c63430008110033",
  "linkReferences": {},
  "deployedLinkReferences": {}
}