{
  "_format": "hh-sol-artifact-1",
  "contractName": "ERC721TokenVault",
  "sourceName": "contracts/fractional-art/ERC721TokenVault.sol",
  "abi": [
    {
      "inputs": [
        {
          "internalType": "address",
          "name": "_tokenCenter",
          "type": "address"
        }
      ],
      "stateMutability": "nonpayable",
      "type": "constructor"
    },
    {
      "anonymous": false,
      "inputs": [
        {
          "indexed": true,
          "internalType": "address",
          "name": "owner",
          "type": "address"
        },
        {
          "indexed": true,
          "internalType": "address",
          "name": "spender",
          "type": "address"
        },
        {
          "indexed": false,
          "internalType": "uint256",
          "name": "value",
          "type": "uint256"
        }
      ],
      "name": "Approval",
      "type": "event"
    },
    {
      "anonymous": false,
      "inputs": [
        {
          "indexed": false,
          "internalType": "uint8",
          "name": "version",
          "type": "uint8"
        }
      ],
      "name": "Initialized",
      "type": "event"
    },
    {
      "anonymous": false,
      "inputs": [
        {
          "indexed": true,
          "internalType": "address",
          "name": "from",
          "type": "address"
        },
        {
          "indexed": true,
          "internalType": "address",
          "name": "to",
          "type": "address"
        },
        {
          "indexed": false,
          "internalType": "uint256",
          "name": "value",
          "type": "uint256"
        }
      ],
      "name": "Transfer",
      "type": "event"
    },
    {
      "inputs": [
        {
          "internalType": "address",
          "name": "owner",
          "type": "address"
        },
        {
          "internalType": "address",
          "name": "spender",
          "type": "address"
        }
      ],
      "name": "allowance",
      "outputs": [
        {
          "internalType": "uint256",
          "name": "",
          "type": "uint256"
        }
      ],
      "stateMutability": "view",
      "type": "function"
    },
    {
      "inputs": [
        {
          "internalType": "address",
          "name": "spender",
          "type": "address"
        },
        {
          "internalType": "uint256",
          "name": "amount",
          "type": "uint256"
        }
      ],
      "name": "approve",
      "outputs": [
        {
          "internalType": "bool",
          "name": "",
          "type": "bool"
        }
      ],
      "stateMutability": "nonpayable",
      "type": "function"
    },
    {
      "inputs": [
        {
          "internalType": "address",
          "name": "account",
          "type": "address"
        }
      ],
      "name": "balanceOf",
      "outputs": [
        {
          "internalType": "uint256",
          "name": "",
          "type": "uint256"
        }
      ],
      "stateMutability": "view",
      "type": "function"
    },
    {
      "inputs": [
        {
          "internalType": "uint256",
          "name": "amount",
          "type": "uint256"
        }
      ],
      "name": "burn",
      "outputs": [
        {
          "internalType": "bool",
          "name": "",
          "type": "bool"
        }
      ],
      "stateMutability": "nonpayable",
      "type": "function"
    },
    {
      "inputs": [],
      "name": "curator",
      "outputs": [
        {
          "internalType": "address",
          "name": "",
          "type": "address"
        }
      ],
      "stateMutability": "view",
      "type": "function"
    },
    {
      "inputs": [],
      "name": "decimals",
      "outputs": [
        {
          "internalType": "uint8",
          "name": "",
          "type": "uint8"
        }
      ],
      "stateMutability": "view",
      "type": "function"
    },
    {
      "inputs": [
        {
          "internalType": "address",
          "name": "spender",
          "type": "address"
        },
        {
          "internalType": "uint256",
          "name": "subtractedValue",
          "type": "uint256"
        }
      ],
      "name": "decreaseAllowance",
      "outputs": [
        {
          "internalType": "bool",
          "name": "",
          "type": "bool"
        }
      ],
      "stateMutability": "nonpayable",
      "type": "function"
    },
    {
      "inputs": [],
      "name": "id",
      "outputs": [
        {
          "internalType": "uint256",
          "name": "",
          "type": "uint256"
        }
      ],
      "stateMutability": "view",
      "type": "function"
    },
    {
      "inputs": [
        {
          "internalType": "address",
          "name": "spender",
          "type": "address"
        },
        {
          "internalType": "uint256",
          "name": "addedValue",
          "type": "uint256"
        }
      ],
      "name": "increaseAllowance",
      "outputs": [
        {
          "internalType": "bool",
          "name": "",
          "type": "bool"
        }
      ],
      "stateMutability": "nonpayable",
      "type": "function"
    },
    {
      "inputs": [
        {
          "internalType": "address",
          "name": "_curator",
          "type": "address"
        },
        {
          "internalType": "address",
          "name": "_token",
          "type": "address"
        },
        {
          "internalType": "uint256",
          "name": "_id",
          "type": "uint256"
        },
        {
          "internalType": "uint256",
          "name": "_supply",
          "type": "uint256"
        },
        {
          "internalType": "string",
          "name": "_name",
          "type": "string"
        },
        {
          "internalType": "string",
          "name": "_symbol",
          "type": "string"
        },
        {
          "internalType": "uint256",
          "name": "_ratio",
          "type": "uint256"
        }
      ],
      "name": "initialize",
      "outputs": [],
      "stateMutability": "nonpayable",
      "type": "function"
    },
    {
      "inputs": [],
      "name": "name",
      "outputs": [
        {
          "internalType": "string",
          "name": "",
          "type": "string"
        }
      ],
      "stateMutability": "view",
      "type": "function"
    },
    {
      "inputs": [
        {
          "internalType": "address",
          "name": "",
          "type": "address"
        },
        {
          "internalType": "address",
          "name": "",
          "type": "address"
        },
        {
          "internalType": "uint256",
          "name": "",
          "type": "uint256"
        },
        {
          "internalType": "bytes",
          "name": "",
          "type": "bytes"
        }
      ],
      "name": "onERC721Received",
      "outputs": [
        {
          "internalType": "bytes4",
          "name": "",
          "type": "bytes4"
        }
      ],
      "stateMutability": "nonpayable",
      "type": "function"
    },
    {
      "inputs": [],
      "name": "ratio",
      "outputs": [
        {
          "internalType": "uint256",
          "name": "",
          "type": "uint256"
        }
      ],
      "stateMutability": "view",
      "type": "function"
    },
    {
      "inputs": [],
      "name": "symbol",
      "outputs": [
        {
          "internalType": "string",
          "name": "",
          "type": "string"
        }
      ],
      "stateMutability": "view",
      "type": "function"
    },
    {
      "inputs": [],
      "name": "token",
      "outputs": [
        {
          "internalType": "address",
          "name": "",
          "type": "address"
        }
      ],
      "stateMutability": "view",
      "type": "function"
    },
    {
      "inputs": [],
      "name": "tokenCenter",
      "outputs": [
        {
          "internalType": "address",
          "name": "",
          "type": "address"
        }
      ],
      "stateMutability": "view",
      "type": "function"
    },
    {
      "inputs": [],
      "name": "totalSupply",
      "outputs": [
        {
          "internalType": "uint256",
          "name": "",
          "type": "uint256"
        }
      ],
      "stateMutability": "view",
      "type": "function"
    },
    {
      "inputs": [
        {
          "internalType": "address",
          "name": "to",
          "type": "address"
        },
        {
          "internalType": "uint256",
          "name": "amount",
          "type": "uint256"
        }
      ],
      "name": "transfer",
      "outputs": [
        {
          "internalType": "bool",
          "name": "",
          "type": "bool"
        }
      ],
      "stateMutability": "nonpayable",
      "type": "function"
    },
    {
      "inputs": [
        {
          "internalType": "address",
          "name": "from",
          "type": "address"
        },
        {
          "internalType": "address",
          "name": "to",
          "type": "address"
        },
        {
          "internalType": "uint256",
          "name": "amount",
          "type": "uint256"
        }
      ],
      "name": "transferFrom",
      "outputs": [
        {
          "internalType": "bool",
          "name": "",
          "type": "bool"
        }
      ],
      "stateMutability": "nonpayable",
      "type": "function"
    },
    {
      "inputs": [
        {
          "internalType": "address",
          "name": "_curator",
          "type": "address"
        }
      ],
      "name": "updateCurator",
      "outputs": [],
      "stateMutability": "nonpayable",
      "type": "function"
    },
    {
      "inputs": [],
      "name": "vaultClosed",
      "outputs": [
        {
          "internalType": "bool",
          "name": "",
          "type": "bool"
        }
      ],
      "stateMutability": "view",
      "type": "function"
    }
  ],
  "bytecode": "0x60a060405234801561001057600080fd5b5060405161134f38038061134f83398101604081905261002f91610040565b6001600160a01b0316608052610070565b60006020828403121561005257600080fd5b81516001600160a01b038116811461006957600080fd5b9392505050565b6080516112b661009960003960008181610289015281816104970152610c6f01526112b66000f3fe608060405234801561001057600080fd5b50600436106101375760003560e01c806370a08231116100b8578063a457c2d71161007c578063a457c2d7146102c3578063a9059cbb146102d6578063af640d0f146102e9578063dd62ed3e146102f2578063e66f53b714610305578063fc0c546a1461031857600080fd5b806370a082311461023757806371ca337d1461026057806395d89b4114610269578063983e49b3146102715780639d71ad3f1461028457600080fd5b806323b872dd116100ff57806323b872dd146101db578063313ce567146101ee57806339509351146101fd57806342966c68146102105780635c9920fc1461022357600080fd5b806306fdde031461013c578063095ea7b31461015a5780630c6a62dd1461017d578063150b7a021461019257806318160ddd146101c9575b600080fd5b61014461032b565b6040516101519190610dc4565b60405180910390f35b61016d610168366004610e2e565b6103bd565b6040519015158152602001610151565b61019061018b366004610e58565b6103d7565b005b6101b06101a0366004610f06565b630a85bd0160e11b949350505050565b6040516001600160e01b03199091168152602001610151565b6035545b604051908152602001610151565b61016d6101e9366004610f82565b61044d565b60405160128152602001610151565b61016d61020b366004610e2e565b610471565b61016d61021e366004610fbe565b610493565b60cb5461016d90600160a01b900460ff1681565b6101cd610245366004610e58565b6001600160a01b031660009081526033602052604090205490565b6101cd60cc5481565b61014461052b565b61019061027f366004610ff7565b61053a565b6102ab7f000000000000000000000000000000000000000000000000000000000000000081565b6040516001600160a01b039091168152602001610151565b61016d6102d1366004610e2e565b6106a1565b61016d6102e4366004610e2e565b61071c565b6101cd60ca5481565b6101cd610300366004611099565b61072a565b60cb546102ab906001600160a01b031681565b60c9546102ab906001600160a01b031681565b60606036805461033a906110cc565b80601f0160208091040260200160405190810160405280929190818152602001828054610366906110cc565b80156103b35780601f10610388576101008083540402835291602001916103b3565b820191906000526020600020905b81548152906001019060200180831161039657829003601f168201915b5050505050905090565b6000336103cb818585610755565b60019150505b92915050565b60cb546001600160a01b0316331461042b5760405162461bcd60e51b81526020600482015260126024820152713ab83230ba329d3737ba1031bab930ba37b960711b60448201526064015b60405180910390fd5b60cb80546001600160a01b0319166001600160a01b0392909216919091179055565b60003361045b85828561087a565b6104668585856108f4565b506001949350505050565b6000336103cb818585610484838361072a565b61048e9190611106565b610755565b60007f00000000000000000000000000000000000000000000000000000000000000006001600160a01b031633146105195760405162461bcd60e51b815260206004820152602360248201527f596f7520646f6e2774206861766520726967687420746f206275726e20746f6b60448201526232b71760e91b6064820152608401610422565b6105233383610a9f565b506001919050565b60606037805461033a906110cc565b600054610100900460ff161580801561055a5750600054600160ff909116105b806105745750303b158015610574575060005460ff166001145b6105d75760405162461bcd60e51b815260206004820152602e60248201527f496e697469616c697a61626c653a20636f6e747261637420697320616c72656160448201526d191e481a5b9a5d1a585b1a5e995960921b6064820152608401610422565b6000805460ff1916600117905580156105fa576000805461ff0019166101001790555b6106048484610bd0565b61060c610c05565b60c980546001600160a01b03808a166001600160a01b03199283161790925560ca88905560cb8054928b169290911691909117905560cc8290556106508886610c2e565b508015610697576000805461ff0019169055604051600181527f7f26b83ff96e1f2b6a682f133852f6798a09c465da95921460cefb38474024989060200160405180910390a15b5050505050505050565b600033816106af828661072a565b90508381101561070f5760405162461bcd60e51b815260206004820152602560248201527f45524332303a2064656372656173656420616c6c6f77616e63652062656c6f77604482015264207a65726f60d81b6064820152608401610422565b6104668286868403610755565b6000336103cb8185856108f4565b6001600160a01b03918216600090815260346020908152604080832093909416825291909152205490565b6001600160a01b0383166107b75760405162461bcd60e51b8152602060048201526024808201527f45524332303a20617070726f76652066726f6d20746865207a65726f206164646044820152637265737360e01b6064820152608401610422565b6001600160a01b0382166108185760405162461bcd60e51b815260206004820152602260248201527f45524332303a20617070726f766520746f20746865207a65726f206164647265604482015261737360f01b6064820152608401610422565b6001600160a01b0383811660008181526034602090815260408083209487168084529482529182902085905590518481527f8c5be1e5ebec7d5bd14f71427d1e84f3dd0314c0f7b2291e5b200ac8c7c3b92591015b60405180910390a3505050565b6000610886848461072a565b905060001981146108ee57818110156108e15760405162461bcd60e51b815260206004820152601d60248201527f45524332303a20696e73756666696369656e7420616c6c6f77616e63650000006044820152606401610422565b6108ee8484848403610755565b50505050565b6001600160a01b0383166109585760405162461bcd60e51b815260206004820152602560248201527f45524332303a207472616e736665722066726f6d20746865207a65726f206164604482015264647265737360d81b6064820152608401610422565b6001600160a01b0382166109ba5760405162461bcd60e51b815260206004820152602360248201527f45524332303a207472616e7366657220746f20746865207a65726f206164647260448201526265737360e81b6064820152608401610422565b6001600160a01b03831660009081526033602052604090205481811015610a325760405162461bcd60e51b815260206004820152602660248201527f45524332303a207472616e7366657220616d6f756e7420657863656564732062604482015265616c616e636560d01b6064820152608401610422565b6001600160a01b0380851660008181526033602052604080822086860390559286168082529083902080548601905591517fddf252ad1be2c89b69c2b068fc378daa952ba7f163c4a11628f55a4df523b3ef90610a929086815260200190565b60405180910390a36108ee565b6001600160a01b038216610aff5760405162461bcd60e51b815260206004820152602160248201527f45524332303a206275726e2066726f6d20746865207a65726f206164647265736044820152607360f81b6064820152608401610422565b6001600160a01b03821660009081526033602052604090205481811015610b735760405162461bcd60e51b815260206004820152602260248201527f45524332303a206275726e20616d6f756e7420657863656564732062616c616e604482015261636560f01b6064820152608401610422565b6001600160a01b03831660008181526033602090815260408083208686039055603580548790039055518581529192917fddf252ad1be2c89b69c2b068fc378daa952ba7f163c4a11628f55a4df523b3ef910161086d565b505050565b600054610100900460ff16610bf75760405162461bcd60e51b815260040161042290611127565b610c018282610d2b565b5050565b600054610100900460ff16610c2c5760405162461bcd60e51b815260040161042290611127565b565b6000610c38610d6b565b60cc54604051633384432160e01b81526001600160a01b0385811660048301523060248301526044820185905260648201929092527f000000000000000000000000000000000000000000000000000000000000000090911690633384432190608401600060405180830381600087803b158015610cb557600080fd5b505af1925050508015610cc6575060015b610d1e5760405162461bcd60e51b8152602060048201526024808201527f4572726f723a206661696c656420746f206d696e742067656e6572616c20746f6044820152636b656e7360e01b6064820152608401610422565b5060016103d16001609755565b600054610100900460ff16610d525760405162461bcd60e51b815260040161042290611127565b6036610d5e83826111c0565b506037610bcb82826111c0565b600260975403610dbd5760405162461bcd60e51b815260206004820152601f60248201527f5265656e7472616e637947756172643a207265656e7472616e742063616c6c006044820152606401610422565b6002609755565b600060208083528351808285015260005b81811015610df157858101830151858201604001528201610dd5565b506000604082860101526040601f19601f8301168501019250505092915050565b80356001600160a01b0381168114610e2957600080fd5b919050565b60008060408385031215610e4157600080fd5b610e4a83610e12565b946020939093013593505050565b600060208284031215610e6a57600080fd5b610e7382610e12565b9392505050565b634e487b7160e01b600052604160045260246000fd5b600067ffffffffffffffff80841115610eab57610eab610e7a565b604051601f8501601f19908116603f01168101908282118183101715610ed357610ed3610e7a565b81604052809350858152868686011115610eec57600080fd5b858560208301376000602087830101525050509392505050565b60008060008060808587031215610f1c57600080fd5b610f2585610e12565b9350610f3360208601610e12565b925060408501359150606085013567ffffffffffffffff811115610f5657600080fd5b8501601f81018713610f6757600080fd5b610f7687823560208401610e90565b91505092959194509250565b600080600060608486031215610f9757600080fd5b610fa084610e12565b9250610fae60208501610e12565b9150604084013590509250925092565b600060208284031215610fd057600080fd5b5035919050565b600082601f830112610fe857600080fd5b610e7383833560208501610e90565b600080600080600080600060e0888a03121561101257600080fd5b61101b88610e12565b965061102960208901610e12565b95506040880135945060608801359350608088013567ffffffffffffffff8082111561105457600080fd5b6110608b838c01610fd7565b945060a08a013591508082111561107657600080fd5b506110838a828b01610fd7565b92505060c0880135905092959891949750929550565b600080604083850312156110ac57600080fd5b6110b583610e12565b91506110c360208401610e12565b90509250929050565b600181811c908216806110e057607f821691505b60208210810361110057634e487b7160e01b600052602260045260246000fd5b50919050565b808201808211156103d157634e487b7160e01b600052601160045260246000fd5b6020808252602b908201527f496e697469616c697a61626c653a20636f6e7472616374206973206e6f74206960408201526a6e697469616c697a696e6760a81b606082015260800190565b601f821115610bcb57600081815260208120601f850160051c810160208610156111995750805b601f850160051c820191505b818110156111b8578281556001016111a5565b505050505050565b815167ffffffffffffffff8111156111da576111da610e7a565b6111ee816111e884546110cc565b84611172565b602080601f831160018114611223576000841561120b5750858301515b600019600386901b1c1916600185901b1785556111b8565b600085815260208120601f198616915b8281101561125257888601518255948401946001909101908401611233565b50858210156112705787850151600019600388901b60f8161c191681555b5050505050600190811b0190555056fea26469706673582212205adf5d072fd3cf77d424621a66ad0c00895b1be81dd401297b80c0278636c96c64736f6c63430008110033",
  "linkReferences": {},
  "deployedLinkReferences": {}
}