{
  "_format": "hh-sol-artifact-1",
  "contractName": "ERC20TokenCenter",
  "sourceName": "contracts/fractional/ERC20TokenCenter.sol",
  "abi": [
    {
      "inputs": [
        {
          "internalType": "string",
          "name": "name",
          "type": "string"
        },
        {
          "internalType": "string",
          "name": "symbol",
          "type": "string"
        },
        {
          "internalType": "uint8",
          "name": "decimals",
          "type": "uint8"
        }
      ],
      "stateMutability": "nonpayable",
      "type": "constructor"
    },
    {
      "anonymous": false,
      "inputs": [
        {
          "indexed": true,
          "internalType": "address",
          "name": "owner",
          "type": "address"
        },
        {
          "indexed": true,
          "internalType": "address",
          "name": "spender",
          "type": "address"
        },
        {
          "indexed": false,
          "internalType": "uint256",
          "name": "prevAmount",
          "type": "uint256"
        },
        {
          "indexed": false,
          "internalType": "uint256",
          "name": "currAmount",
          "type": "uint256"
        }
      ],
      "name": "AllowanceRecord",
      "type": "event"
    },
    {
      "anonymous": false,
      "inputs": [
        {
          "indexed": true,
          "internalType": "address",
          "name": "owner",
          "type": "address"
        },
        {
          "indexed": true,
          "internalType": "address",
          "name": "spender",
          "type": "address"
        },
        {
          "indexed": false,
          "internalType": "uint256",
          "name": "amount",
          "type": "uint256"
        }
      ],
      "name": "Approval",
      "type": "event"
    },
    {
      "anonymous": false,
      "inputs": [
        {
          "indexed": true,
          "internalType": "address",
          "name": "originalNFT",
          "type": "address"
        },
        {
          "indexed": true,
          "internalType": "uint256",
          "name": "vaultId",
          "type": "uint256"
        },
        {
          "indexed": false,
          "internalType": "uint256",
          "name": "ratio",
          "type": "uint256"
        },
        {
          "indexed": false,
          "internalType": "uint256",
          "name": "supply",
          "type": "uint256"
        }
      ],
      "name": "ExchangeToERC20",
      "type": "event"
    },
    {
      "anonymous": false,
      "inputs": [
        {
          "indexed": true,
          "internalType": "address",
          "name": "issuingNFT",
          "type": "address"
        },
        {
          "indexed": false,
          "internalType": "uint256",
          "name": "tokenId",
          "type": "uint256"
        }
      ],
      "name": "ExchangeToERC721",
      "type": "event"
    },
    {
      "anonymous": false,
      "inputs": [
        {
          "indexed": true,
          "internalType": "address",
          "name": "previousOwner",
          "type": "address"
        },
        {
          "indexed": true,
          "internalType": "address",
          "name": "newOwner",
          "type": "address"
        }
      ],
      "name": "OwnershipTransferred",
      "type": "event"
    },
    {
      "anonymous": false,
      "inputs": [
        {
          "indexed": true,
          "internalType": "address",
          "name": "from",
          "type": "address"
        },
        {
          "indexed": true,
          "internalType": "address",
          "name": "to",
          "type": "address"
        },
        {
          "indexed": false,
          "internalType": "uint256",
          "name": "amount",
          "type": "uint256"
        }
      ],
      "name": "Transfer",
      "type": "event"
    },
    {
      "anonymous": false,
      "inputs": [
        {
          "indexed": true,
          "internalType": "address",
          "name": "from",
          "type": "address"
        },
        {
          "indexed": true,
          "internalType": "address",
          "name": "spender",
          "type": "address"
        },
        {
          "indexed": false,
          "internalType": "address",
          "name": "to",
          "type": "address"
        },
        {
          "indexed": false,
          "internalType": "uint256",
          "name": "amount",
          "type": "uint256"
        }
      ],
      "name": "TransferByPlatform",
      "type": "event"
    },
    {
      "inputs": [],
      "name": "DOMAIN_SEPARATOR",
      "outputs": [
        {
          "internalType": "bytes32",
          "name": "",
          "type": "bytes32"
        }
      ],
      "stateMutability": "view",
      "type": "function"
    },
    {
      "inputs": [
        {
          "internalType": "address",
          "name": "",
          "type": "address"
        },
        {
          "internalType": "address",
          "name": "",
          "type": "address"
        }
      ],
      "name": "allowance",
      "outputs": [
        {
          "internalType": "uint256",
          "name": "",
          "type": "uint256"
        }
      ],
      "stateMutability": "view",
      "type": "function"
    },
    {
      "inputs": [
        {
          "internalType": "address",
          "name": "spender",
          "type": "address"
        },
        {
          "internalType": "uint256",
          "name": "amount",
          "type": "uint256"
        }
      ],
      "name": "approve",
      "outputs": [
        {
          "internalType": "bool",
          "name": "",
          "type": "bool"
        }
      ],
      "stateMutability": "nonpayable",
      "type": "function"
    },
    {
      "inputs": [
        {
          "internalType": "address",
          "name": "",
          "type": "address"
        }
      ],
      "name": "balanceOf",
      "outputs": [
        {
          "internalType": "uint256",
          "name": "",
          "type": "uint256"
        }
      ],
      "stateMutability": "view",
      "type": "function"
    },
    {
      "inputs": [
        {
          "internalType": "address",
          "name": "from",
          "type": "address"
        },
        {
          "internalType": "uint256",
          "name": "amount",
          "type": "uint256"
        }
      ],
      "name": "burnToken",
      "outputs": [
        {
          "internalType": "bool",
          "name": "",
          "type": "bool"
        }
      ],
      "stateMutability": "nonpayable",
      "type": "function"
    },
    {
      "inputs": [
        {
          "internalType": "bytes32",
          "name": "_hash",
          "type": "bytes32"
        },
        {
          "internalType": "bytes",
          "name": "_signature",
          "type": "bytes"
        }
      ],
      "name": "callERC1271isValidSignature",
      "outputs": [],
      "stateMutability": "view",
      "type": "function"
    },
    {
      "inputs": [],
      "name": "co2eCertificateNFT",
      "outputs": [
        {
          "internalType": "contract CO2eCertificateNFT",
          "name": "",
          "type": "address"
        }
      ],
      "stateMutability": "view",
      "type": "function"
    },
    {
      "inputs": [],
      "name": "decimals",
      "outputs": [
        {
          "internalType": "uint8",
          "name": "",
          "type": "uint8"
        }
      ],
      "stateMutability": "view",
      "type": "function"
    },
    {
      "inputs": [
        {
          "internalType": "address",
          "name": "spender",
          "type": "address"
        },
        {
          "internalType": "uint256",
          "name": "subtractedValue",
          "type": "uint256"
        }
      ],
      "name": "decreaseAllowance",
      "outputs": [
        {
          "internalType": "bool",
          "name": "",
          "type": "bool"
        }
      ],
      "stateMutability": "nonpayable",
      "type": "function"
    },
    {
      "inputs": [],
      "name": "erc721VaultFactory",
      "outputs": [
        {
          "internalType": "contract ERC721VaultFactory",
          "name": "",
          "type": "address"
        }
      ],
      "stateMutability": "view",
      "type": "function"
    },
    {
      "inputs": [
        {
          "internalType": "address",
          "name": "receiver",
          "type": "address"
        },
        {
          "internalType": "uint256",
          "name": "amount",
          "type": "uint256"
        }
      ],
      "name": "exchangeToken",
      "outputs": [
        {
          "internalType": "bool",
          "name": "",
          "type": "bool"
        }
      ],
      "stateMutability": "nonpayable",
      "type": "function"
    },
    {
      "inputs": [
        {
          "internalType": "address",
          "name": "creator",
          "type": "address"
        },
        {
          "internalType": "uint256",
          "name": "vaultId",
          "type": "uint256"
        },
        {
          "internalType": "address",
          "name": "originalNFT",
          "type": "address"
        },
        {
          "internalType": "uint256",
          "name": "supply",
          "type": "uint256"
        },
        {
          "internalType": "uint256",
          "name": "ratio",
          "type": "uint256"
        }
      ],
      "name": "exchangeToken",
      "outputs": [
        {
          "internalType": "bool",
          "name": "",
          "type": "bool"
        }
      ],
      "stateMutability": "nonpayable",
      "type": "function"
    },
    {
      "inputs": [
        {
          "internalType": "address",
          "name": "spender",
          "type": "address"
        },
        {
          "internalType": "uint256",
          "name": "addedValue",
          "type": "uint256"
        }
      ],
      "name": "increaseAllowance",
      "outputs": [
        {
          "internalType": "bool",
          "name": "",
          "type": "bool"
        }
      ],
      "stateMutability": "nonpayable",
      "type": "function"
    },
    {
      "inputs": [
        {
          "internalType": "address",
          "name": "to",
          "type": "address"
        },
        {
          "internalType": "uint256",
          "name": "amount",
          "type": "uint256"
        }
      ],
      "name": "mintToken",
      "outputs": [
        {
          "internalType": "bool",
          "name": "",
          "type": "bool"
        }
      ],
      "stateMutability": "nonpayable",
      "type": "function"
    },
    {
      "inputs": [],
      "name": "name",
      "outputs": [
        {
          "internalType": "string",
          "name": "",
          "type": "string"
        }
      ],
      "stateMutability": "view",
      "type": "function"
    },
    {
      "inputs": [
        {
          "internalType": "address",
          "name": "",
          "type": "address"
        }
      ],
      "name": "nonces",
      "outputs": [
        {
          "internalType": "uint256",
          "name": "",
          "type": "uint256"
        }
      ],
      "stateMutability": "view",
      "type": "function"
    },
    {
      "inputs": [],
      "name": "owner",
      "outputs": [
        {
          "internalType": "address",
          "name": "",
          "type": "address"
        }
      ],
      "stateMutability": "view",
      "type": "function"
    },
    {
      "inputs": [
        {
          "internalType": "address",
          "name": "owner",
          "type": "address"
        },
        {
          "internalType": "address",
          "name": "spender",
          "type": "address"
        },
        {
          "internalType": "uint256",
          "name": "value",
          "type": "uint256"
        },
        {
          "internalType": "uint256",
          "name": "deadline",
          "type": "uint256"
        },
        {
          "internalType": "uint8",
          "name": "v",
          "type": "uint8"
        },
        {
          "internalType": "bytes32",
          "name": "r",
          "type": "bytes32"
        },
        {
          "internalType": "bytes32",
          "name": "s",
          "type": "bytes32"
        }
      ],
      "name": "permit",
      "outputs": [],
      "stateMutability": "nonpayable",
      "type": "function"
    },
    {
      "inputs": [],
      "name": "renounceOwnership",
      "outputs": [],
      "stateMutability": "nonpayable",
      "type": "function"
    },
    {
      "inputs": [
        {
          "internalType": "address",
          "name": "newCO2eCertificateNFT",
          "type": "address"
        }
      ],
      "name": "setCO2eCertificateNFT",
      "outputs": [
        {
          "internalType": "bool",
          "name": "",
          "type": "bool"
        }
      ],
      "stateMutability": "nonpayable",
      "type": "function"
    },
    {
      "inputs": [
        {
          "internalType": "address",
          "name": "newERC721VaultFactory",
          "type": "address"
        }
      ],
      "name": "setERC721VaultFactory",
      "outputs": [
        {
          "internalType": "bool",
          "name": "",
          "type": "bool"
        }
      ],
      "stateMutability": "nonpayable",
      "type": "function"
    },
    {
      "inputs": [],
      "name": "symbol",
      "outputs": [
        {
          "internalType": "string",
          "name": "",
          "type": "string"
        }
      ],
      "stateMutability": "view",
      "type": "function"
    },
    {
      "inputs": [],
      "name": "totalSupply",
      "outputs": [
        {
          "internalType": "uint256",
          "name": "",
          "type": "uint256"
        }
      ],
      "stateMutability": "view",
      "type": "function"
    },
    {
      "inputs": [
        {
          "internalType": "address",
          "name": "to",
          "type": "address"
        },
        {
          "internalType": "uint256",
          "name": "amount",
          "type": "uint256"
        }
      ],
      "name": "transfer",
      "outputs": [
        {
          "internalType": "bool",
          "name": "",
          "type": "bool"
        }
      ],
      "stateMutability": "nonpayable",
      "type": "function"
    },
    {
      "inputs": [
        {
          "internalType": "address",
          "name": "from",
          "type": "address"
        },
        {
          "internalType": "address",
          "name": "to",
          "type": "address"
        },
        {
          "internalType": "uint256",
          "name": "amount",
          "type": "uint256"
        }
      ],
      "name": "transferFrom",
      "outputs": [
        {
          "internalType": "bool",
          "name": "",
          "type": "bool"
        }
      ],
      "stateMutability": "nonpayable",
      "type": "function"
    },
    {
      "inputs": [
        {
          "internalType": "address",
          "name": "newOwner",
          "type": "address"
        }
      ],
      "name": "transferOwnership",
      "outputs": [],
      "stateMutability": "nonpayable",
      "type": "function"
    }
  ],
  "bytecode": "0x60e06040523480156200001157600080fd5b5060405162001f0538038062001f0583398101604081905262000034916200023a565b828282620000423362000089565b6001805560026200005484826200034e565b5060036200006383826200034e565b5060ff81166080524660a05262000079620000d9565b60c0525062000498945050505050565b600080546001600160a01b038381166001600160a01b0319831681178455604051919092169283917f8be0079c531659141344cd1fd0a4f28419497f9722a3daafe3b4186f6b6457e09190a35050565b60007f8b73c3c69bb8fe3d512ecc4cf759cc79239f7b179b0ffacaa9a75d522b39400f60026040516200010d91906200041a565b6040805191829003822060208301939093528101919091527fc89efdaa54c0f20c7adf612882df0950f5a951637e0307cdcb4c672f298b8bc660608201524660808201523060a082015260c00160405160208183030381529060405280519060200120905090565b634e487b7160e01b600052604160045260246000fd5b600082601f8301126200019d57600080fd5b81516001600160401b0380821115620001ba57620001ba62000175565b604051601f8301601f19908116603f01168101908282118183101715620001e557620001e562000175565b816040528381526020925086838588010111156200020257600080fd5b600091505b8382101562000226578582018301518183018401529082019062000207565b600093810190920192909252949350505050565b6000806000606084860312156200025057600080fd5b83516001600160401b03808211156200026857600080fd5b62000276878388016200018b565b945060208601519150808211156200028d57600080fd5b506200029c868287016200018b565b925050604084015160ff81168114620002b457600080fd5b809150509250925092565b600181811c90821680620002d457607f821691505b602082108103620002f557634e487b7160e01b600052602260045260246000fd5b50919050565b601f8211156200034957600081815260208120601f850160051c81016020861015620003245750805b601f850160051c820191505b81811015620003455782815560010162000330565b5050505b505050565b81516001600160401b038111156200036a576200036a62000175565b62000382816200037b8454620002bf565b84620002fb565b602080601f831160018114620003ba5760008415620003a15750858301515b600019600386901b1c1916600185901b17855562000345565b600085815260208120601f198616915b82811015620003eb57888601518255948401946001909101908401620003ca565b50858210156200040a5787850151600019600388901b60f8161c191681555b5050505050600190811b01905550565b60008083546200042a81620002bf565b600182811680156200044557600181146200045b576200048c565b60ff19841687528215158302870194506200048c565b8760005260208060002060005b85811015620004835781548a82015290840190820162000468565b50505082870194505b50929695505050505050565b60805160a05160c051611a3d620004c8600039600061059701526000610562015260006102030152611a3d6000f3fe608060405234801561001057600080fd5b506004361061018e5760003560e01c80638da5cb5b116100de578063d505accf11610097578063dd62ed3e11610071578063dd62ed3e1461038b578063ef51a56c146103b6578063f2fde38b146103c9578063f8b81156146103dc57600080fd5b8063d505accf14610352578063d5fbd7d614610365578063dc53565f1461037857600080fd5b80638da5cb5b146102ed57806395d89b41146102fe578063a457c2d714610306578063a9059cbb14610319578063cf3cb33f1461032c578063d1df306c1461033f57600080fd5b8063395093511161014b578063715018a611610125578063715018a61461029d578063792e0e12146102a757806379c65068146102ba5780637ecebe00146102cd57600080fd5b8063395093511461023f5780636438aec11461025257806370a082311461027d57600080fd5b806306fdde0314610193578063095ea7b3146101b157806318160ddd146101d457806323b872dd146101eb578063313ce567146101fe5780633644e51514610237575b600080fd5b61019b6103ef565b6040516101a89190611511565b60405180910390f35b6101c46101bf366004611542565b61047d565b60405190151581526020016101a8565b6101dd60045481565b6040519081526020016101a8565b6101c46101f936600461156c565b6104ea565b6102257f000000000000000000000000000000000000000000000000000000000000000081565b60405160ff90911681526020016101a8565b6101dd61055e565b6101c461024d366004611542565b6105b9565b600954610265906001600160a01b031681565b6040516001600160a01b0390911681526020016101a8565b6101dd61028b3660046115a8565b60056020526000908152604090205481565b6102a56106f5565b005b6101c46102b53660046115a8565b610709565b6101c46102c8366004611542565b610765565b6101dd6102db3660046115a8565b60076020526000908152604090205481565b6000546001600160a01b0316610265565b61019b610782565b6101c4610314366004611542565b61078f565b6101c4610327366004611542565b610868565b6101c461033a366004611542565b6108ce565b6101c461034d366004611542565b610aa4565b6102a56103603660046115c3565b610b38565b6101c4610373366004611636565b610d7c565b600854610265906001600160a01b031681565b6101dd610399366004611684565b600660209081526000928352604080842090915290825290205481565b6102a56103c43660046116b7565b610e64565b6102a56103d73660046115a8565b610fa9565b6101c46103ea3660046115a8565b611022565b600280546103fc90611733565b80601f016020809104026020016040519081016040528092919081815260200182805461042890611733565b80156104755780601f1061044a57610100808354040283529160200191610475565b820191906000526020600020905b81548152906001019060200180831161045857829003601f168201915b505050505081565b3360008181526006602090815260408083206001600160a01b038716808552925280832085905551919290917f8c5be1e5ebec7d5bd14f71427d1e84f3dd0314c0f7b2291e5b200ac8c7c3b925906104d89086815260200190565b60405180910390a35060015b92915050565b60006104f784848461107f565b506000546001600160a01b0316330361055457604080516001600160a01b038581168252602082018590523392908716917f78938870b87caabcb61158279f645a22b7cdccd94455ad4e50a2e016066205c9910160405180910390a35b5060019392505050565b60007f000000000000000000000000000000000000000000000000000000000000000046146105945761058f61115f565b905090565b507f000000000000000000000000000000000000000000000000000000000000000090565b600033806105e25760405162461bcd60e51b81526004016105d99061176d565b60405180910390fd5b6001600160a01b0384166106085760405162461bcd60e51b81526004016105d9906117b1565b6001600160a01b0380821660009081526006602090815260408083209388168352929052908120549061063b8583611809565b9050610647868261047d565b6106935760405162461bcd60e51b815260206004820152601a60248201527f4661696c656420746f2063616c6c2060617070726f766528296000000000000060448201526064016105d9565b856001600160a01b0316836001600160a01b03167fbb33c2e8d6646ee230d5501f21dc3a6045906477cfa799e615f90fe50644d1d684846040516106e1929190918252602082015260400190565b60405180910390a350600195945050505050565b6106fd6111f9565b6107076000611253565b565b60006107136111f9565b6008546001600160a01b03908116908316036107415760405162461bcd60e51b81526004016105d99061181c565b50600880546001600160a01b0319166001600160a01b03831617905560015b919050565b600061076f6111f9565b61077983836112a3565b50600192915050565b600380546103fc90611733565b600033806107af5760405162461bcd60e51b81526004016105d99061176d565b6001600160a01b0384166107d55760405162461bcd60e51b81526004016105d9906117b1565b6001600160a01b038082166000908152600660209081526040808320938816835292905290812054908482101561085a5760405162461bcd60e51b8152602060048201526024808201527f54727920746f20646563726561736520616c6c6f77616e63652062656c6f77206044820152637a65726f60e01b60648201526084016105d9565b50838103610647868261047d565b3360009081526005602052604081208054839190839061088990849061185d565b90915550506001600160a01b038316600081815260056020526040908190208054850190555133906000805160206119e8833981519152906104d89086815260200190565b60006108d86112fd565b33600090815260066020908152604080832030845290915290205482111561095b5760405162461bcd60e51b815260206004820152603060248201527f436172626f6e2043726564697420465420616c6c6f77616e6365206973206e6f60448201526f7420656e6f75676820666f72206e6f7760801b60648201526084016105d9565b61096730333085611356565b60095460405163095ea7b360e01b81526001600160a01b03909116600482015260248101839052309063095ea7b3906044016020604051808303816000875af11580156109b8573d6000803e3d6000fd5b505050506040513d601f19601f820116820180604052508101906109dc9190611870565b50600954604051630f38ca0d60e31b81526001600160a01b0385811660048301526024820185905260009216906379c65068906044016020604051808303816000875af1158015610a31573d6000803e3d6000fd5b505050506040513d601f19601f82011682018060405250810190610a559190611892565b6009546040518281529192506001600160a01b0316907f387694a022dfd6aef0fb3f9edf73271e7fd53d15ccff87ae191080d83e4907649060200160405180910390a2505060018080556104e4565b600080546001600160a01b03163314801590610acb57506009546001600160a01b03163314155b15610b2e5760405162461bcd60e51b815260206004820152602d60248201527f43616c6c6572206973206e6f7420616c6c6f77656420746f20696e766f6b652060448201526c3a3434b990333ab731ba34b7b760991b60648201526084016105d9565b610779838361145f565b42841015610b885760405162461bcd60e51b815260206004820152601760248201527f5045524d49545f444541444c494e455f4558504952454400000000000000000060448201526064016105d9565b60006001610b9461055e565b6001600160a01b038a811660008181526007602090815260409182902080546001810190915582517f6e71edae12b1b97f4d1f60370fef10105fa2faae0126114a169c64845d6126c98184015280840194909452938d166060840152608083018c905260a083019390935260c08083018b90528151808403909101815260e08301909152805192019190912061190160f01b6101008301526101028201929092526101228101919091526101420160408051601f198184030181528282528051602091820120600084529083018083525260ff871690820152606081018590526080810184905260a0016020604051602081039080840390855afa158015610ca0573d6000803e3d6000fd5b5050604051601f1901519150506001600160a01b03811615801590610cd65750876001600160a01b0316816001600160a01b0316145b610d135760405162461bcd60e51b815260206004820152600e60248201526d24a72b20a624a22fa9a4a3a722a960911b60448201526064016105d9565b6001600160a01b0390811660009081526006602090815260408083208a8516808552908352928190208990555188815291928a16917f8c5be1e5ebec7d5bd14f71427d1e84f3dd0314c0f7b2291e5b200ac8c7c3b925910160405180910390a350505050505050565b60408051336020820181905291810186905260009190829060600160408051601f198184030181529082905280516020820120633bd4695b60e21b835290925090309063ef51a56c90610dd590849086906004016118ab565b60006040518083038186803b158015610ded57600080fd5b505afa158015610e01573d6000803e3d6000fd5b50505050610e0f89876112a3565b604080518681526020810188905289916001600160a01b038a16917f6ae8c5feccf1b0f2a2c65113f9fe4eb216d999525f24a420fcadf40ce2d986e9910160405180910390a350600198975050505050505050565b600854604051630b135d3f60e11b81526001600160a01b0390911690631626ba7e90610e98908690869086906004016118cc565b602060405180830381865afa925050508015610ed1575060408051601f3d908101601f19168201909252610ece91810190611902565b60015b610f435760405162461bcd60e51b815260206004820152603a60248201527f4661696c656420746f2063616c6c20604552433732315661756c74466163746f60448201527f72796027732060697356616c69645369676e617475726528296000000000000060648201526084016105d9565b630b135d3f60e11b6001600160e01b0319821614610fa35760405162461bcd60e51b815260206004820152601a60248201527f496e76616c6964204552432d31323731207369676e617475726500000000000060448201526064016105d9565b50505050565b610fb16111f9565b6001600160a01b0381166110165760405162461bcd60e51b815260206004820152602660248201527f4f776e61626c653a206e6577206f776e657220697320746865207a65726f206160448201526564647265737360d01b60648201526084016105d9565b61101f81611253565b50565b600061102c6111f9565b6009546001600160a01b039081169083160361105a5760405162461bcd60e51b81526004016105d99061181c565b50600980546001600160a01b0383166001600160a01b03199091161790556001919050565b6001600160a01b038316600090815260066020908152604080832033845290915281205460001981146110db576110b6838261185d565b6001600160a01b03861660009081526006602090815260408083203384529091529020555b6001600160a01b0385166000908152600560205260408120805485929061110390849061185d565b90915550506001600160a01b03808516600081815260056020526040908190208054870190555190918716906000805160206119e88339815191529061114c9087815260200190565b60405180910390a3506001949350505050565b60007f8b73c3c69bb8fe3d512ecc4cf759cc79239f7b179b0ffacaa9a75d522b39400f6002604051611191919061192c565b6040805191829003822060208301939093528101919091527fc89efdaa54c0f20c7adf612882df0950f5a951637e0307cdcb4c672f298b8bc660608201524660808201523060a082015260c00160405160208183030381529060405280519060200120905090565b6000546001600160a01b031633146107075760405162461bcd60e51b815260206004820181905260248201527f4f776e61626c653a2063616c6c6572206973206e6f7420746865206f776e657260448201526064016105d9565b600080546001600160a01b038381166001600160a01b0319831681178455604051919092169283917f8be0079c531659141344cd1fd0a4f28419497f9722a3daafe3b4186f6b6457e09190a35050565b80600460008282546112b59190611809565b90915550506001600160a01b0382166000818152600560209081526040808320805486019055518481526000805160206119e883398151915291015b60405180910390a35050565b60026001540361134f5760405162461bcd60e51b815260206004820152601f60248201527f5265656e7472616e637947756172643a207265656e7472616e742063616c6c0060448201526064016105d9565b6002600155565b604080516001600160a01b0385811660248301528481166044830152606480830185905283518084039091018152608490920183526020820180516001600160e01b03166323b872dd60e01b17905291516000928392908816916113ba91906119cb565b6000604051808303816000865af19150503d80600081146113f7576040519150601f19603f3d011682016040523d82523d6000602084013e6113fc565b606091505b50915091508180156114265750805115806114265750808060200190518101906114269190611870565b6114575760405162461bcd60e51b81526020600482015260026024820152612a2360f11b60448201526064016105d9565b505050505050565b6001600160a01b0382166000908152600560205260408120805483929061148790849061185d565b90915550506004805482900390556040518181526000906001600160a01b038416906000805160206119e8833981519152906020016112f1565b60005b838110156114dc5781810151838201526020016114c4565b50506000910152565b600081518084526114fd8160208601602086016114c1565b601f01601f19169290920160200192915050565b60208152600061152460208301846114e5565b9392505050565b80356001600160a01b038116811461076057600080fd5b6000806040838503121561155557600080fd5b61155e8361152b565b946020939093013593505050565b60008060006060848603121561158157600080fd5b61158a8461152b565b92506115986020850161152b565b9150604084013590509250925092565b6000602082840312156115ba57600080fd5b6115248261152b565b600080600080600080600060e0888a0312156115de57600080fd5b6115e78861152b565b96506115f56020890161152b565b95506040880135945060608801359350608088013560ff8116811461161957600080fd5b9699959850939692959460a0840135945060c09093013592915050565b600080600080600060a0868803121561164e57600080fd5b6116578661152b565b94506020860135935061166c6040870161152b565b94979396509394606081013594506080013592915050565b6000806040838503121561169757600080fd5b6116a08361152b565b91506116ae6020840161152b565b90509250929050565b6000806000604084860312156116cc57600080fd5b83359250602084013567ffffffffffffffff808211156116eb57600080fd5b818601915086601f8301126116ff57600080fd5b81358181111561170e57600080fd5b87602082850101111561172057600080fd5b6020830194508093505050509250925092565b600181811c9082168061174757607f821691505b60208210810361176757634e487b7160e01b600052602260045260246000fd5b50919050565b60208082526024908201527f43616e6e6f7420617070726f76652066726f6d20746865207a65726f206164646040820152637265737360e01b606082015260800190565b60208082526022908201527f43616e6e6f7420617070726f766520746f20746865207a65726f206164647265604082015261737360f01b606082015260800190565b634e487b7160e01b600052601160045260246000fd5b808201808211156104e4576104e46117f3565b60208082526021908201527f43616e6e6f7420736574207468652073616d65206164647265737320747769636040820152606560f81b606082015260800190565b818103818111156104e4576104e46117f3565b60006020828403121561188257600080fd5b8151801515811461152457600080fd5b6000602082840312156118a457600080fd5b5051919050565b8281526040602082015260006118c460408301846114e5565b949350505050565b83815260406020820152816040820152818360608301376000818301606090810191909152601f909201601f1916010192915050565b60006020828403121561191457600080fd5b81516001600160e01b03198116811461152457600080fd5b600080835481600182811c91508083168061194857607f831692505b6020808410820361196757634e487b7160e01b86526022600452602486fd5b81801561197b5760018114611990576119bd565b60ff19861689528415158502890196506119bd565b60008a81526020902060005b868110156119b55781548b82015290850190830161199c565b505084890196505b509498975050505050505050565b600082516119dd8184602087016114c1565b919091019291505056feddf252ad1be2c89b69c2b068fc378daa952ba7f163c4a11628f55a4df523b3efa2646970667358221220edeb2848b892c35e232b1caf5f0918eba8715cbf7085bbbef136fc90f29f7d7464736f6c63430008110033",
  "linkReferences": {},
  "deployedLinkReferences": {}
}